:020000040800F2
:10000000900F00207D020008191400081514000844
:10001000171400081114000805150008000000005E
:10002000000000000000000000000000491400086B
:100030001314000800000000471400084B140008C7
:10004000970200089702000897020008970200082C
:10005000970200089702000897020008970200081C
:10006000970200089702000897020008970200080C
:1000700097020008970200089702000897020008FC
:1000800097020008970200089702000897020008EC
:1000900097020008970200089702000897020008DC
:1000A00097020008970200089702000897020008CC
:1000B0009D140008970200089702000897020008A4
:1000C00097020008970200089702000897020008AC
:1000D000970200080115000897020008970200081F
:1000E000970200089702000897020008970200088C
:1000F000970200089702000897020008970200087C
:10010000970200089702000897020008970200086B
:100110009702000897020008C1140008970200081F
:10012000970200089702000897020008970200084B
:10013000970200089702000897020008970200083B
:1001400000000000000000000000000000000000AF
:10015000970200089702000897020008970200081B
:10016000970200089702000897020008970200080B
:1001700097020008970200089702000897020008FB
:100180009702000800F002F800F069F80AA090E871
:10019000000C82448344AAF10107DA4501D100F042
:1001A0005EF8AFF2090EBAE80F0013F0010F18BFA6
:1001B000FB1A43F001031847F83100001832000021
:1001C000103A24BF78C878C1FAD8520724BF30C883
:1001D00030C144BF04680C60704700000023002455
:1001E00000250026103A28BF78C1FBD8520728BF47
:1001F00030C148BF0B607047692900F0CD80642989
:1002000000F0CA80752900F0C7806F2900F05E8178
:10021000782900F085810368DB0928BF41F080015F
:10022000632900F0D583E32900F0FA8300207047AA
:100230001FB502F0BFFE9DE8030000F0CFFE00F006
:1002400061FD04000020002102F09EFE401C606061
:1002500000F08EFC1FBD10B500F0F3FC10BD00F0E7
:100260002BFD1146FFF7E4FF01F0A6FF00F036FE7C
:1002700003B4FFF7F0FF03BC00F050FC09488047CF
:1002800009480047FEE7FEE7FEE7FEE7FEE7FEE778
:10029000FEE7FEE7FEE7FEE704480549054A064B90
:1002A000704700004D1400088501000890030020ED
:1002B000900F002090070020900700200FB4044901
:1002C00010B503AA029800F08FFB10BC5DF814FB78
:1002D0000C01002070B5044685690068C10601D58F
:1002E000302600E02026C00707D070BDD4E90121E8
:1002F00030469047206A401C20626D1EF6D570BDC6
:1003000070B5044685690078C00707D170BDD4E98F
:10031000012120209047206A401C20626D1EF6D5E6
:1003200070BD09684A0501D540B27047C905FCD5C2
:1003300000B2704709684A0501D5C0B27047C905C7
:10034000FCD580B2704770B50C460546012A05D031
:100350002878800600D5EA69002302E0012305E041
:100360005B1C934202D2E05C0028F9D1A869E61830
:10037000C01AA861286A184428622846FFF7AAFF15
:1003800004E0D5E9012114F8010B9047B442F8D3F9
:100390002846FFF7B5FF70BD2DE9F0410646002461
:1003A00010687529314616A510D0FFF7BAFF00284E
:1003B00002DA404213A507E031688A0701D512A589
:1003C00002E0490704D511A5012401E0FFF7B2FFBF
:1003D00000210A2206F1240709E0B0FBF2FCB0FB81
:1003E000F2F302FB1C00303078541846491C0028F8
:1003F000F3D123462A463046BDE8F04100F085BAE5
:10040000000000002D0000002B0000002000000074
:100410002DE9FF5F15468A460446DFF8AC80F844B4
:100420000027D8E900103E46CDE9001010E03AF868
:1004300016106A4602A800F0FFFA411C07D0217886
:10044000890603D5E269391891420DD80744761C14
:100450002078800602D5E069B84205DDAE42E6DBD1
:100460003AF816000028E2D1A069C01BA06120461E
:10047000FFF730FFD8E90010CDE90010002017E0A9
:100480003AF818106A4602A800F0D6FAB0F1FF3F19
:1004900081460BD000250DF1080B05E0D4E90121C0
:1004A0001BF8050090476D1C4D45F7D308F101007E
:1004B000B0428046E4DB206A384420622046FFF7E1
:1004C0001FFFBDE8FF9F0000AE2B000070B5044683
:1004D00021461068FFF72EFF002104F1240505E0F6
:1004E00000F007023032C0086A54491C0028F7D1D6
:1004F0002068002308A2050708D500F02000084363
:1005000004D0E069012305A2401EE0612046BDE859
:10051000704000F0FAB90000000000003000000058
:1005200070B504460D4621461068FFF703FF218889
:10053000090502D50F4A7A4402E00E4A7A440E3287
:10054000002104F1240305E000F00F060009965D88
:100550005E54491C0028F7D120780023000704D5F9
:10056000702D02D009B1022311322046BDE870403F
:1005700000F0CBB99E2A00002DE9F05F89460446C1
:100580004FF0000ADFF874B1FB44C0F820A0204609
:10059000E1688847002874D0252806D0D4E90121D5
:1005A0009047206A401C2062F1E700265F46204603
:1005B000E16888472028054607DB312D05D27819E8
:1005C00010F8200C08B10643F1E7B00701D526F07A
:1005D0000406C4F81CA00027C4F818A02A2D09D0CE
:1005E000284602F0C9FC38B304EB8708303DC8F850
:1005F000185019E059F8041B204604EB870291615A
:10060000E1688847012F054618D1E069002820DA03
:1006100026F020061DE0D8F8180000EB800005EB5E
:1006200040003038C8F818002046E1688847054681
:1006300002F0A2FC0028EED1012F0AD02E2D08D105
:100640002046E16888477F1C0546022F46F02006B9
:10065000C4DBA069002803DA404246F00106A0612D
:10066000F00701D026F010066C2D0BD0682D09D0B4
:100670004C2D39D06A2D35D0742D35D07A2D33D00C
:1006800016E038E0E1682F4620468847B842054624
:1006900009D16C2F26D04FF48060E16806432046D4
:1006A0008847054604E06C2F1AD04FF4807006434B
:1006B0000DB3A5F14100192802D8203546F4006693
:1006C0004A462946204626604E46FFF795FD80B1F2
:1006D00001280BD0F61D26F0070000F1080956E7A7
:1006E0004020E4E78020D8E70020D6E706F104099F
:1006F0004DE7284652E7206ABDE8F09F742A0000C3
:1007000010B5044603E001F0CFFC401C09D014F8FA
:10071000010B05490028F6D1BDE810400A2001F080
:10072000C3BC4FF0FF3010BD0C0100200EB50546D4
:1007300014460E4613A000F0AEF9284600F0ABF9BF
:1007400016A000F0A8F9304600F0A5F915A000F0B9
:10075000A2F900218DF80B100A210DF10A008DF885
:100760000A1008E094FBF1F201FB124294FBF1F451
:10077000303200F8012D002CF4DC00F08CF900F090
:100780007FF900002A2A2A20617373657274696FE9
:100790006E206661696C65643A2000002C206669F1
:1007A0006C6520002C206C696E652000032A40F2E5
:1007B000308010F0030C00F0158011F8013BBCF103
:1007C000020F624498BF11F801CB00F8013B38BF1B
:1007D00011F8013BA2F1040298BF00F801CB38BF29
:1007E00000F8013B11F0030300F05F81083AC0F00C
:1007F000088051F8043B083A51F804CBA0E80810EF
:10080000F5E7121D5CBF51F8043B40F8043BAFF321
:100810000080D20724BF11F8013B11F801CB48BF7B
:1008200011F8012B24BF00F8013B00F801CB48BFB1
:1008300000F8012B70474FF0000200B513469446B4
:100840009646203922BFA0E80C50A0E80C50B1F128
:100850002001BFF4F7AF090728BFA0E80C5048BF3C
:100860000CC05DF804EB890028BF40F8042B08BFDA
:10087000704748BF20F8022B11F0804F18BF00F8D6
:10088000012B70470000000030B44FF0013C50F8DD
:10089000042B51F8043BCCFA52F4D51A20D1FCB900
:1008A00050F8042B51F8043BCCFA52F4D51A17D166
:1008B000B4B950F8042B51F8043BCCFA52F4D51AD1
:1008C0000ED16CB950F8042B51F8043BCCFA52F419
:1008D000D51A05D1002CDAD030BC4FF0000070479B
:1008E00029BAB1FA81F111F01801D1F12000844048
:1008F000F2D1CA40CB4012F0FF0213F0FF0330BC2C
:10090000D01A70477047704770472DE9F0470D4681
:1009100099469246044600F124080168880604D5E9
:10092000E06921F01001216000E00120A84201DD12
:10093000471B00E00027A1697A1902EB0900081A99
:10094000A0612078C00602D42046FFF7C3FC002631
:1009500008E0D4E901211AF806009047206A401CFB
:10096000761C20624E45F4DB2078C0060AD520466E
:10097000FFF7B0FC06E0D4E9012130209047206A5F
:10098000401C2062381EA7F10107F4DC07E0D4E91F
:10099000012118F805009047206A401C2062281E9B
:1009A000A5F10105F3DC2046FFF7AAFC207800063C
:1009B00002D50220BDE8F0870120FBE710B54369AE
:1009C00013B1AFF3008001E0FFF7BDFC012010BDC3
:1009D000127800F124010A7000224A700122EDE72A
:1009E00011684FF0FF32E9E7074B70B50D467B44C5
:1009F00000F0A7F80446284600F0B6F810B14FF012
:100A0000FF3070BD204670BDB716000010B54369B9
:100A100013B1AFF3008001E0FFF7FAFC012010BD35
:100A2000128800F1240182840022C2840122EDE7B1
:100A300011684FF0FF32E9E72DE9F04116460C4608
:100A4000054600F071F8036893F80101012807D00A
:100A5000FF2C12D8185D80B101202C70BDE8F08108
:100A6000D3F807013246214603F20713C718284678
:100A7000BC46BDE8F041002360474FF0FF30EDE792
:100A800010B5002000F010F9FFF7E5FBBDE81040BD
:100A9000012000F043B810B5044602E0641C00F0E9
:100AA00036F820780028F9D110BD10B5203AC0F0F2
:100AB0000B80B1E81850A0E81850B1E81850A0E831
:100AC0001850203ABFF4F5AF5FEA027C24BFB1E8CA
:100AD0001850A0E8185044BF18C918C0BDE810400D
:100AE0005FEA827C24BF51F8043B40F8043B08BF16
:100AF0007047D20728BF31F8023B48BF11F8012BDD
:100B000028BF20F8023B48BF00F8012B704708B50A
:100B100069468DF800000320ABBE08BD01491820CE
:100B2000ABBEFEE72600020010B500F0EBF8001D9A
:100B300010BD00BF5524000001694A1C02610878FD
:100B4000704700B58FB0CDE901310021059105490D
:100B50007944CDE9031011466846FFF70DFD0FB04B
:100B600000BD0000E5FFFFFF007B00F08000704744
:100B700010B542485421FFF75EFE41485421FFF76B
:100B80005AFE40485421FFF756FE3F493B483C4A35
:100B90003F4B08603D490A603A491960531C0365A0
:100BA000481C1065012008653B48344A39A1784447
:100BB00000F0F6F820B9384878440A3800F0B4F963
:100BC00037482F4A35A1784400F0EAF820B9344874
:100BD00078440A3800F0A8F932482A4A2FA178440C
:100BE00000F0DEF820B92F4878440A3800F09CF96C
:100BF00040232248DC000021224600F0AEF820B15C
:100C000025487844543800F08FF91D482246402387
:100C1000002100F0A2F820B121487844543800F0B7
:100C200083F9184822461023002100F096F8002886
:100C300006D01C487844BDE81040563800F074B91E
:100C400010BD104870B5006D20F001040B4800F095
:100C50001FF90B4800F01CF90A4800F019F909E0E7
:100C6000206D20F00105204600F012F9204600F02A
:100C70004DF82C46002CF3D170BD0000B8000020C8
:100C80000C01002060010020000000200400002072
:100C900008000020720000005F24000077000000C0
:100CA0004B2400003724000010B500F025F9BDE802
:100CB000104000F01CB97047754600F06FF9AE4661
:100CC00005006946534620F00700854618B020B558
:100CD000FFF7E2FABDE820404FF000064FF00007B2
:100CE0004FF000084FF0000BAC46ACE8C009ACE890
:100CF000C009ACE8C009ACE8C00921F007018D4685
:100D00007047000000487047D401002070B50446C9
:100D1000051F00F047F90068002C14BF446870BD3F
:100D2000002C18BFAC423CBF20466468F8D3016871
:100D30000A18AA4218BF456003D12A680546114423
:100D4000016028684119A1421CBF6C6070BD6168D8
:100D5000696021680844286070BD70B5C468A50743
:100D600013D0650211D4B2F5807F09D0B2F5007FAF
:100D700006D0B2F5806F08D1012300F1240106E00E
:100D80005D1E6FF07F46B54201D3012070BD016149
:100D9000C361416024F470611143C160002070BDE3
:100DA0002DE9F0410C461646070047D0104600F0EA
:100DB0006FF82078611C61280AD0722802D0772849
:100DC0003CD102E00125002405E00225042402E0D4
:100DD000082448F2020511F8010B2B2806D06228DE
:100DE00009D011F8010C74280AD00BE045F0030576
:100DF00044F00204EFE745F0040544F00104EAE79B
:100E000044F010043846214600F095F8411C15D0F6
:100E10000021316171604FF40071F560F161706122
:100E2000200704D530460222002100F035F9306D4C
:100E300040F0010030653046BDE8F0810020FBE75E
:100E40002DE9F0410D460646104C206DC10704D037
:100E5000410804D020F00104F7E722460EE05420B8
:100E600000F0EBF807000ED0206D47F001010843B9
:100E7000542120653846FFF7DEFC3A4629463046C5
:100E8000BDE8F0418CE70020D6E70000B800002064
:100E90002DE9F04704464FF000094FF0FF37C568D1
:100EA000D4E90486A80707D0204600F0A5F930460B
:100EB00000F04BF8002802DA3846BDE8F087280534
:100EC00002D54046FFF722FF4C212046FFF7B3FC36
:100ED000206D20F0010020654846EEE710B504467D
:100EE000AFF300802046BDE81040FFF7C1B90028ED
:100EF00001D0FFF713BE704710B5002102A000F02B
:100F0000BFF9012010BD0000534947414252543AF5
:100F10002041626E6F726D616C207465726D696ED6
:100F20006174696F6E00000010B500F0C3F9BDE890
:100F30001040FFF7DCBF0EB5CDE9000100F01DFA4F
:100F4000029069460120ABBE0EBD08B5694600900F
:100F50000220ABBE08BD1FB58DE80700694605201D
:100F6000ABBE04B010BD1FB58DE80F00694606206A
:100F7000ABBEF6E708B5694600900920ABBE08BDD8
:100F80001CB5CDE9000169460A20ABBE1CBD704707
:100F900008B5694600900C20ABBE08BD00487047FC
:100FA000B401002000487047BC0100207047704722
:100FB0007047704738B504460A4600206946AFF3CB
:100FC0000080002808BF38BD02460099204600F086
:100FD00092F9012038BD012000F0C8B9F8B5AFF38F
:100FE0000080054600200C46102000BF0646A819C8
:100FF000A0420DD9324669460020AFF300800700B9
:1010000008BF00F0B3F90098A04218BF0546C41904
:10101000FFF7C8FF05600746F01D20F007004619DE
:10102000284600F061F9B44208BFF8BDA21B314662
:101030003868BDE8F84000F05EB970B50646FFF7C5
:10104000B1FF056806F10B0020F00704B4429CBF15
:10105000002070BD2B466A68BAB11068A04210D358
:1010600004F1080188423CBF5068586007D35168BA
:10107000101941601168091B016058601460101D4F
:1010800070BD13465268002AE7D121462846FFF773
:1010900091FF0028DED170BD2DE9F04104461646CF
:1010A0000D464769007B80072ED03846FFF762FF68
:1010B00050BB3EB3012E02D0022E25D104E02046C3
:1010C00000F033F905441DE03846FFF761FFE168A1
:1010D000002841F01001E16005DA204600F058F8E0
:1010E0000120BDE8F081C9030BD56268E16A914235
:1010F00000D81146A26911442269891A814200DD93
:1011000008460544002D01DA0220EAE7E16A60683A
:10111000E268814206D29103E06203D522F40031F5
:1011200041F01002A6690027AE4213DCE16A814259
:1011300001D90B4600E0034603EB060C2369ACEB38
:10114000030CAC4506DD814201D98C4600E08446A3
:101150009C4505D1A760276042F02000A5620DE004
:10116000AD1BE669AE1B8142A66000D90846C01AD5
:10117000281A20605819606022F0200003490840B6
:10118000E060002084F84870ABE70000BFCFD7FFD5
:10119000C16821F4001141F08001C160002181602B
:1011A000016070472DE9F047814614460E464FF026
:1011B000FF383248D5685769054209D03846A169D9
:1011C000FFF7DEFE002811DB2C48C0430540E56038
:1011D0002B46324649463846FFF7BDFEA16920F04E
:1011E0000042B21A11440028A16103D02046FFF743
:1011F000CFFF4046BDE8F08770B504460569C06A78
:101200006168884200D80846E16821F42011E16055
:10121000C90312D5A84208D02246411B2846FFF731
:10122000C1FF10B14FF0FF3070BD0020E562C4E98E
:101230000150E06820F48030E060002070BD10B5FF
:101240000446C06820F02000E060A16AA0698842DE
:101250000DD02046FFF7D0FFE06820F4405040F06A
:101260001000E060A06AA0612069E062606044F262
:101270004001E0688843E06010BD000010000200FB
:1012800070B505460C460A2000E06D1CFFF73FFCD8
:1012900035B128780028F8D102E0641CFFF737FC4C
:1012A00014B120780028F8D1BDE870400A20FFF77B
:1012B0002EBC000010B5014602A0FFF7E1FF01209F
:1012C00010BD000053494752545245443A205265DC
:1012D0006469726563743A2063616E2774206F706D
:1012E000656E3A200000000000210160C0E9011095
:1012F000704710207047034640688C46002818BF8E
:1013000088423CBF03464068F8D3186818448842B6
:1013100007D00CF1030020F00700001D411A521AFB
:101320000146081D0A60FFF7F1BC10B50146C2680E
:10133000900703D0900607D5886A0AE000F03CF8D1
:1013400001210160881E10BD8B69486818440B6933
:10135000C01A91F848301BB191F84910401A10BDDD
:101360001103FCD50028FADD401E10BD10B500F0B9
:1013700027F8BDE81040FFF7BABD10B5431C02E0E6
:1013800010F8011B71B18107FAD14FF0013202C888
:101390008C1A8C4314EAC211F9D0C01A0A0603D081
:1013A000C01E10BDC01A10BD0A0401D0801E10BDA1
:1013B0000902FCD0401E10BD00487047B401002057
:1013C00010B5012805D0002103A0FFF759FF012027
:1013D00010BD09A1F8E7000053494752544D454D4F
:1013E0003A204F7574206F662068656170206D65C6
:1013F0006D6F7279000000003A2048656170206DC1
:10140000656D6F727920636F7272757074656400B8
:10141000FEE77047FEE7FEE77047012100F09EB847
:101420000020012100224FF416530090002000F00C
:1014300039BC4FF08040012100F0E3BF4FF0804005
:10144000002100F0DCBF7047704770471248D0F8A9
:10145000801041F47001C0F88010BF490A6842F062
:1014600001020A600A689207FCD54A6822F003026A
:101470004A604A6812F00C0FFBD10A68B74B1A4059
:101480000A6000224A600A634FF41F028A604FF02C
:1014900000610160704700BF08ED00E080B54FF0CB
:1014A0008040012100F0B0FF30B1FFF7C2FF0348D8
:1014B0000068BDE88040004780BD00BF700200208A
:1014C00010B50D4C0121204600F0AEFF98B10B483D
:1014D000017B51B141890131418189B2082904D38D
:1014E0000021012201738271418120460121BDE862
:1014F000104000F086BF10BD001000407C020020AC
:1015000001F014B9FEE70000A54900F00F000A68D9
:1015100022F0F00242EA001008607047A04900F093
:1015200007000A6822F4E06242EA0020086070477F
:101530009B4900F007000A6822F4605242EAC0208A
:1015400008607047044901280A6822F0300208BF89
:1015500030320A60704700BF54100240042828D877
:10156000DFE800F00309121C22007B48026861F3E7
:1015700000020260704701F0010077490A6822F416
:10158000803242EA004007E001F0010072490A6837
:1015900022F0807242EA0060086070476E48026A7A
:1015A00061F30002026270476B48426A61F3000215
:1015B00042627047B0B528490A68C2F38103274ADE
:1015C000022B08D023BB0B6D9B0521D5CB6A9B0159
:1015D00048BF244A1CE00B680C680D68C5F34175D0
:1015E000C4F383440DB90F2C02D12D01013500E065
:1015F00002252C44DB0301D4194A08E00B689B0345
:1016000005D50B6DC3F301330233B2FBF3F2624332
:10161000026015A40B68C3F30313E35C164CDA40B5
:1016200042600B68C3F30223E35C22FA03F3C36056
:101630000B68C3F3C223E35C0424DA4082600B68C6
:10164000096804EA9363C1F3813119440BA3595C1F
:10165000B2FBF1F10161B0BD0410024000127A004A
:1016600000093D00006CDC020000000000000000EA
:1016700001020304060708093E32000802040608B6
:10168000020C0810344A010C00F01F00895821FA9E
:1016900000F000F0010070472F490020030B0A689A
:1016A000022B03D8013012F40032F7D00868C0F3DF
:1016B0004040704700F01F020123000C9340264A6F
:1016C0000129815814BF994319438150704700BFC5
:1016D00010B5334B1C6858B144F4803401281C60A9
:1016E0001C6814BF44F4003024F40030186006E095
:1016F00024F480301860D86A40F00070D86218680E
:1017000061F395401860C1F30210196860F35E71CF
:101710001960186820F0004040EAC270186010BDDF
:101720000D48016841F00101016001688907FCD59D
:10173000416821F003014160416811F00C0FFBD1B9
:101740000168064A114001600021416001634FF4C5
:101750001F018160704700BF00100240FFFFF2FED2
:101760000F490A6860F301020A6000BF00BF00BFB2
:1017700000BF00BF00BF00BF00BF00BF00BF00BF71
:1017800000BF00BF00BF00BF00BF00BF00BF00BF61
:1017900000BF704702480068C0F38100704700BF77
:1017A0000410024010B5084644490A2472B60C7071
:1017B0001146072201F05EFA012807D144F62060A5
:1017C00001F0B0FA013818BF032000E00320C0B2D6
:1017D00062B610BD2DE9F041124C72B60646A088E3
:1017E000B0F5807F18D2A088032807D32A4F0D4672
:1017F000A1889046384600F085FD18B1052062B6F4
:10180000BDE8F08117F8010B30702F60A088023816
:10181000A8F800000020F2E70D4903A09C22FEF783
:1018200085FF00BF1402002075735263764275660F
:10183000666572506F73203C204D425F5345525F86
:101840005044555F53495A455F4D415800000000D0
:10185000F7320008B0B5194C72B663780BB10524A5
:1018600017E001254B1EE580A36001F8010CE0881C
:101870001044E0801846E18800F044FDE1884A1CED
:10188000E280054A505400200121A570002400F098
:1018900013FF62B62046B0BD9002002010B572B6AC
:1018A00001200021002400F007FF044844700020BC
:1018B00062B6BDE8104001F0CDB900BF14020020AF
:1018C00080B572B60020002100F0F6FE00F00AFF9D
:1018D00062B680BD10B5064C207801281CBF0620DA
:1018E00010BD0448806880470020207010BD00BFF4
:1018F0000C00002050020020F8B50C46098805298C
:101900002AD1C278017940F2CE7541EA0222531EF3
:101910009BB2AB4220D800250127B0F8016092B2FB
:10192000831C25800770258801352580D508490747
:1019300018BF07EBD205457020880130208030BAEF
:1019400007EB104081B21846002300F011FB28B1CC
:10195000BDE8F84000F0B6BC0320F8BD208850FA7E
:1019600085F020800020F8BDF8B50C4609880529CF
:101970002AD1C278017940F2CE7541EA0222531E83
:101980009BB2AB4220D80025B0F8016092B2831C14
:101990000127258002250570258801352580D50879
:1019A000490718BF07EBD205457020880130208019
:1019B00030BA07EB104081B2184600F011FB28B195
:1019C000BDE8F84000F07EBC0320F8BD208850FA46
:1019D00085F020800020F8BD70B50C4609880529E7
:1019E00020D102790321531E7C2B1CD80025B0F88E
:1019F0000160831C25800170550021880131218000
:101A00004570012120880130208030BA01EB104060
:101A100081B21846002300F005FB30B1BDE87040EC
:101A200000F050BC0321084670BD208800212844E6
:101A30002080F8E7B0B50C460988052926D1B0F812
:101A400003104FF0FF3209BA02EB114292B27B2A27
:101A50001CD800250A0CB0F80110831C2580042531
:101A60000570258801352580550045702088013096
:101A7000208008BA012101EB104081B2184600F025
:101A8000FBFA28B1BDE8B04000F01CBC0320B0BD9B
:101A90002088284420800020B0BD2DE9F041054673
:101AA00008880A2848D3B5F803000C464FF0FF31E8
:101AB00006BA01EB164082B203207C2A3DD8B5F865
:101AC000072012BA01EB124189B2782935D8687A19
:101AD000120CB0EB420F1CBF0320BDE8F081B5F83B
:101AE00005004FF00108B5F80170012300BA08EBBA
:101AF000104105F10A0089B200F094FAA8B9002358
:101B0000320C38BA23801723560008EB1041A81C6A
:101B10002B7089B22388013323806E7023880133B0
:101B20002380002300F07EFA18B1BDE8F04100F0F8
:101B3000C9BB2088304420800020BDE8F08100002F
:101B4000B0B50C460549013031F8025B2A46FEF774
:101B50002DFE681C20800020B0BD00BF20020020A8
:101B60001CB50988052901D1017911B1032420464A
:101B70001CBDB0F80110C078FF2801D00028F5D1B5
:101B8000FF3809BA012200240123B0FA80F002EBE9
:101B9000114101228DF80740400989B28DF80600F5
:101BA0000DF1060000F0E4F90028E0D000F08AFB17
:101BB0000446DCE780B5098805291CBF032080BDE9
:101BC000B0F8011001220330012309BA02EB1141E0
:101BD000012289B200F026FA18B1BDE8804000F079
:101BE00071BB002080BDB0B50C460988062925D3FD
:101BF000C1780379012543EA01215B078AB24FEAE4
:101C0000D20318BF05EBD203013989B20D090321B4
:101C10007A2D14D84579DBB29D4210D1B0F801106D
:101C20000123063009BA03EB1141012389B200F008
:101C30009FF930B1BDE8B04000F044BB0321084635
:101C4000B0BD052000212080F9E7B0B50C46098819
:101C500006291FD302794379032102F07F05B3EBF4
:101C6000450F18D1C37842EA0322531E9BB2772B4B
:101C700011D8B0F801100123063092B209BA03EB73
:101C80001141012389B200F0CDF930B1BDE8B04077
:101C900000F018BB03210846B0BD052000212080BC
:101CA000F9E700002DE9F84309B3F7291FD85C4D87
:101CB000089C012829701DD0C8B92E4F2E48DFF886
:101CC000A0C0DFF8A0E0DFF8A080DFF8A090284EE9
:101CD000C5E90207084611461A462346C5E90469C4
:101CE000C5E9068EC5F820C000F09EF81BE0022072
:101CF000BDE8F883184F1948DFF848C0DFF848E01E
:101D0000DFF84880DFF84890124EC5E90207084620
:101D100011461A462346C5E90469C5E9068EC5F889
:101D200020C0FFF73FFD08B1BDE8F88300F08CFF4D
:101D300028B13A48012101700020BDE8F883032052
:101D4000BDE8F883212B0008592B00080D2A000854
:101D5000D517000855180008C11800089D1800087C
:101D6000112E00085D2E00088D2D0008691E000848
:101D7000E91E00085D1F00083D1F0008BCB527488C
:101D8000007808B10620BCBD0DF1070000F050FF3F
:101D9000012841D19DF80700022813D001283BD12A
:101DA0001F4C6369601C04F12401221D984798BBF5
:101DB00021786078884218BF00282DD1022000F0D9
:101DC00049FF29E0164C174B0022606A0178A17088
:101DD000102A06D013F832501DB18D4203D00132C3
:101DE000F6E7012004E003EBC2014A68211D904799
:101DF000617889B158B1A2780121A180616A42F06D
:101E000080020A70A1884A1CA280626A5054A2888B
:101E1000616A2078236998470020BCBD0C0000202F
:101E2000500200203800002010B508461446114624
:101E300072B6082200F01EFF01280ED1B4F5964FAD
:101E40008FBF232060000749B1FBF0F080B200F0A3
:101E500069FF013818BF032000E00320C0B262B65A
:101E600010BD00BFA07F17002DE9F041124C72B6E3
:101E700006466088B0F5807F18D26088042807D3B2
:101E80002D4F0D4661889046384600F0E9FA18B1AA
:101E9000052062B6BDE8F08117F8010B30702F60A5
:101EA00060880338A8F800000020F2E70D4903A07D
:101EB0009C22FEF73BFC00BF440200207573526376
:101EC00076427566666572506F73203C204D425FA6
:101ED0005345525F5044555F53495A455F4D4158F1
:101EE0000000000087330008B0B51B4C72B62378A1
:101EF000012B1DD101254B1EA580A36001F8010C0B
:101F0000A0881044A0801846A18800F0A9FAA188F2
:101F10004A1CA280084A5054000AA1884B1CA38086
:101F20005054002001216570002400F0C5FB00E042
:101F3000052462B62046B0BD9002002080B5064858
:101F4000002172B601700120002100F0B5FB00F005
:101F5000DBFB62B680BD00BF4402002080B572B6D4
:101F60000020002100F0A8FB00F0BCFB62B680BDA1
:101F7000F8B5054608B2012819DB50181446112897
:101F800015D84F1EABB1012B25D1BEB2134F20B2D5
:101F9000012820DB082820463146A8BF082015F874
:101FA000013BC2B2384600F0A5FF083CEFE7012034
:101FB000F8BD0A4E20B201280DDB08282046B9B230
:101FC000A8BF0820C2B2304600F088FF05F8010B18
:101FD0000837083CEEE70020F8BD00BF14000020E1
:101FE000F8B5054608B2012818DB50181446112828
:101FF00014D80B4E4F1E20B20128BCBF0020F8BDE4
:1020000008282046B9B2A8BF0820C2B2304600F066
:1020100065FF05F8010B0837083CECE70120F8BD27
:102020001600002010B599B15418112C10D80139A0
:1020300083B1012B1BD10F4B03EB4101130416D0CD
:1020400030F8023B013A1BBA1B0C21F8023BF5E7C2
:10205000012010BD074B03EB4101130407D031F8F9
:10206000023B013A1BBA1B0C20F8023BF5E70020AB
:1020700010BD00BF1800002091B15318112B0FD8CC
:10208000084B03EB41010239130404BF00207047E1
:1020900031F8023B013A1BBA1B0C20F8023BF3E774
:1020A000012070471E3200081CB501900446034809
:1020B00001A9012200F0DEFA20461CBD00380140D3
:1020C00041617047024A4FF6FF71C0E90012704744
:1020D00000040001F0B58B790A88032B0AD05BB9A4
:1020E0004979282913D0182912BF01F00F01026184
:1020F00008210EE000210CE00C79C97903F00803F7
:1021000004F0040401F003012344194401E0426196
:102110000821130616D000230F240025082D11D006
:1021200022FA05F6F6070AD0076804FA03F627EA4A
:102130000606066001FA03F607683E4306600433AC
:102140000135EBE7B2F5807F17D3120A00230F2485
:102150000025082D11D022FA05F6F6070AD04768A7
:1021600004FA03F627EA0606466001FA03F6476812
:102170003E43466004330135EBE7F0BD70B5C0F374
:102180000725C0F307424FF0FF3355FAA0F503FAD5
:1021900002F4C5F12005EB40064D2340040EC0B209
:1021A00066599040002926EA030318BF0343635190
:1021B00070BD00BF0000014000F062FB00F040FB7A
:1021C00000F0D8FA00F006FB00F09EFB00F0D8FA11
:1021D00000F0DCFB00F0B8FB00F004F8FFF7CEFDE8
:1021E000FCE70000E0B5FFF71BF910B10146084815
:1021F00004E0FFF76FFB40B101460648FEF75EF8CA
:102200000648BDE88C40FEF77BBA0348F9E700BFFB
:102210006B32000846320008A13200088E320008F6
:1022200000280CD400F01F010122400902FA01F13C
:10223000034A42F82010BFF34F8FBFF36F8F7047F0
:1022400080E100E0F0B51D4B4FF0FF361C68C4F391
:102250000224E51E84F0070438BF002506FA05F7BE
:10226000BA43042C28BF042406FA04F4A143A9406D
:1022700011430901B0F1FF3F0CDD094A831883F8CF
:10228000001300F01F010123400903FA01F142F895
:102290002010F0BD00F00F0018440172F0BD00BF27
:1022A00000E100E005494FF6FF030A681A4060F3B9
:1022B0000A22034810430860704700BF0CED00E09D
:1022C0000000FA0540B1072804BF06207047012826
:1022D00004BF022070470420704700000A2801D282
:1022E000302102E0102803D237210844C0B27047E1
:1022F000034902A040F2D112FEF718FA30000000A4
:10230000F732000800220B0405D010F8013B013918
:102310001A44D2B2F7E75042C0B27047B0B51E4C73
:102320001E4DFFF737FA022808D048BB286D8005FC
:1023300026D5E86A800148BF1A4C21E02868296840
:102340002A68C2F34172C1F383410AB90F2902D14D
:102350001201013200E002221144C00303D41048EC
:1023600001FB00F40CE02868800301D44C4307E033
:10237000286DC0F301300230B4FBF0F000FB01F433
:1023800009480AA204602968C1F30311515C24FAC8
:1023900001F10160B0BD00BF00127A0004100240DC
:1023A00000093D00006CDC0210000020000000006D
:1023B000000000000102030406070809044904287C
:1023C0000A6822F0040208BF04320A60704700BFA6
:1023D00010E000E0C1628262416941F001014161A7
:1023E0007047026801F0070122F0700242EA011111
:1023F00001607047026861F3000202607047416249
:102400007047C943016170470069084018BF012047
:10241000704722B1012A06D1C268114302E0C268A6
:1024200022EA0101C160704702690A4204D0C06813
:1024300008421CBF0120704700207047026801F06D
:10244000010122F0800242EAC11101607047426836
:1024500001F0070122F0700242EA01114160704769
:1024600070B5094A094BFF24FF250E0408D010F867
:10247000016B01397540565D5D5D65403446F4E79A
:1024800045EA042080B270BD1D3100081D300008EF
:10249000406880B270476FF35F2141607047C26847
:1024A00001F0010122F4005242EA4131C16070475B
:1024B000CA0607BFC94301600168406870470068E9
:1024C000084018BF0120704703291BD8DFE801F03E
:1024D00002060E12416921F4807102E0416941F463
:1024E00080714161416921F400710AE0416921F480
:1024F000807102E0416941F480714161416941F4B8
:1025000000714161704700002DE9F04186B001ADD6
:102510000446984616460F462846FFF74BF8924861
:10252000844205D01848844202D01848844202D11F
:1025300005F1080001E005F10C0000680A2100EB3C
:1025400080004000B0FBF7F0B0FBF1F101EB81023D
:10255000A0EB4200042888BF0131A068C1EA000056
:10256000A06006F00100E16821F4805141EA0030EA
:10257000E06008F00300216921F4405141EA003095
:10258000206106B0BDE8F0810064014000600140B8
:1025900010B501F01F030124090C012A0A5804FA9E
:1025A00003F314BF9A431A430A5010BD4A1E072A68
:1025B00010D910291CD020291DD040291ED08029D7
:1025C0001ED0B1F5807F1ED0B1F5007F1FD14269CA
:1025D000920A1AE0DFE802F0040A1B0A1B1B1B0721
:1025E000C268120A11E0C268920612D442690CE075
:1025F000C268120909E0C268520906E0C26803E035
:10260000C268D20901E002699209D20701D1002013
:1026100070470068084018BF0120704702290AD09F
:1026200001290CD099B9C16821F40071C160C16859
:1026300021F480610AE0C16841F4007102E0C168E0
:1026400021F40071C160C16841F48061C1607047CC
:10265000C26801F0010122F0040242EA8101C16076
:102660007047C26801F0010122F0080242EAC1018C
:10267000C1607047F8B514460D46064630468021C5
:10268000FFF71DFF0028F9D030468021FFF710FF2B
:102690000027A74208BFF8BDE95D3046FFF7FBFE03
:1026A00030464021FFF70BFF0028F9D0304640218B
:1026B000FFF7FEFE0137ECE770B50138D14DD24E81
:1026C0000C46B0FA80F0420928463146FFF760FF19
:1026D000601EB11CB0FA80F042092846BDE8704087
:1026E000FFF756BF80B5FEF7A4FE4FF080400121F2
:1026F0000022FFF78EFEFEF7A1FE4FF08040002182
:10270000BDE88040FFF776BE80B5FEF792FE4FF041
:10271000804001210122FFF77CFEFEF78FFE4FF083
:1027200080400121BDE88040FFF764BE10B5B54C84
:1027300020212046FFF73AFF30B10C48006880475F
:1027400020462021FFF7B4FE20468021FFF72EFF10
:1027500040B107480068804720468021BDE810400E
:10276000FFF7A6BE10BD00BF003801406802002080
:102770006C02002001480121FFF700BD0203103068
:102780002DE9FE4301AC2046FFF79CFC0F4D4FF4B2
:10279000C0514FF4C0592846FFF792FC05F58066FA
:1027A00030214FF030083046FFF78AFC084F2846AA
:1027B0002146CDE90197FFF78DFC30462146CDE952
:1027C0000187FFF787FCBDE8FE8300BF00080140DA
:1027D0000004100280B50320FFF764FD174801686C
:1027E0000021017302684173026881730268C17439
:1027F00002680175026881750268C2F30222D31E65
:1028000038BF0B4682F007014FF0FF32042928BF82
:10281000042102FA01F10F2222EA0101002299406B
:102820000901C17525200721FFF70CFD362008217D
:102830000022BDE88040FFF705BD00BF0CED00E0C1
:10284000B0B50C4D4FF4C0100121A8470A4C01212E
:102850002046A847601C0121A847E01C0121A84789
:1028600004F10C000121A847044801212A46BDE8D3
:10287000B0401047B51600080200180004001C0004
:1028800010B5FEF74DFF0420FEF7C7FD1D4C204696
:10289000FEF7F8FE0128FAD10120FEF7BEFDFEF793
:1028A000FBFE0028FBD00020FEF7B7FD0120FEF75D
:1028B000E9FE0128FAD100203B210122FEF708FFA2
:1028C0000220FEF7AAFD1920FEF7DCFE0128FAD14E
:1028D0000020FEF719FE0420FEF72AFE0420FEF772
:1028E0001DFE0120FEF72EFE0220FEF739FFFEF747
:1028F00051FF0228FBD10020FEF724FEBDE8104066
:10290000FFF70CBD01002400B0B586B001A8FEF7AA
:1029100051FE029C00200025FFF750FD07480849A2
:10292000B4FBF0F0086007486FF07F4185604160BC
:10293000016841F00101016006B0B0BD00127A00EB
:102940008C02002010E000E010B50F4C0021204662
:10295000FFF747FD20460121FFF770FD204640F2BA
:10296000E731EF22FFF736FD20460021FFF76FFD2C
:1029700020460121FFF73EFD204601210122BDE84E
:102980001040FFF746BD00BF001000407CB56D460B
:102990002846FFF797FBDB48E14C294601904FF4AE
:1029A0000070A4F5405600903046FFF793FBD648E0
:1029B000294601904FF4806000903046FFF78AFB73
:1029C00020464FF4E13100220023FFF79DFD204611
:1029D0000121FFF746FE20460121FFF739FE204680
:1029E0000021FFF71BFE20460021FFF76DFDC749C0
:1029F00020460122FFF7CCFD20460121FFF74FFDC5
:102A00007CBD00BF0038014005000C00BCB53C4D4A
:102A1000A87800286FD10DF1070000F023F99DF888
:102A2000070000F07F008DF80700697879B102296E
:102A300017D001292FD1FFF767FE9DF807100D2948
:102A400027D03A292AD10024EC70AC8024E000245D
:102A50003A2821D1FFF758FE0120AC80EC70687055
:102A60001AE02978884208D1FFF73CFE0020687000
:102A7000012000F0EFF804460EE000243A2811BFD0
:102A80006C70EC70AC80012004BF6870FFF73CFEF6
:102A900002E00220687000242046BCBDA1F1410084
:102AA000C2B24FF0FF30062A38BFA1F137003039EB
:102AB000CAB20A2A38BF0846E978002401290BD097
:102AC0000029E9D1A988FF2910D8A988CF4A000197
:102AD00050540120E870DEE7A988CC4A535C1843C3
:102AE0005054A8880130A880EC70D5E700246C70A1
:102AF000FFF7F8FDD0E74D4902A0E322FDF716FEEF
:102B00001402002065536E645374617465203D3D6A
:102B10002053544154455F54585F49444C4500008C
:102B200080B53A4841780139012902D80021417025
:102B300005E04178012902D04078022803D1FFF74F
:102B4000D1FD002080BD034838494FF4D472FDF711
:102B5000EDFD00BFB332000870B52C4D6878002839
:102B60004DD1A878042837D8DFE800F00324082CDA
:102B7000170001200021FFF79FFD2DE0E88830B30A
:102B8000E87801282AD038BBA86800780009FFF748
:102B9000A5FB00F0BDF8012012E000260320AE7076
:102BA00000F058F8044601200021FFF785FD20467B
:102BB000AE7070BD3A2000F0ABF80220A870002083
:102BC000E87009E0287800F0A3F8042003E00D2065
:102BD00000F09EF80320A870002070BDA86800785F
:102BE00000F00F00FFF77AFB00F092F80020E87089
:102BF000A8680130A860E8880138E880ECE70B4954
:102C000003A04FF4A872FDF791FD00BF140200204D
:102C1000655263765374617465203D3D2053544181
:102C200054455F52585F49444C450000F732000854
:102C30000B4A014600201378012B03D153780B7007
:102C400010700120704700BF05480021017001206D
:102C5000704700BF0249487001200870012070478A
:102C60007802002010B504462D48FFF711FC2070B3
:102C7000012010BD7CB522480121FEF71BFD6D46E9
:102C80002846FFF71FFA1F48254C294601904FF4AC
:102C90000070A4F5405600903046FFF71BFA1A4822
:102CA000294601904FF4806000903046FFF712FAF9
:102CB00020464FF4E13100220023FFF725FC204697
:102CC0000121FFF7CEFC20460121FFF7C1FC204681
:102CD0000021FFF7A3FC20460021FFF7F5FB25208C
:102CE00007210022FFF7AEFA084920460122FFF72C
:102CF0004FFC20460121FFF7D2FB01207CBD00BF25
:102D00000E001800000408020004000205000C0078
:102D100080B501460248FFF7BEFB012080BD00BF21
:102D200000380140B0B586B001AD044614212846F4
:102D3000FDF781FD2846FEF73DFC1C20FFF770FAE9
:102D40004FF4E0100121FEF7B5FC3220029A6043F7
:102D5000411E0C48B2FBF0F0421E4FF08040FFF7DE
:102D600039FB4FF080400021FFF73BFB06484FF056
:102D70008051002201601C200021FFF763FA01202E
:102D800006B0B0BD40420F0080E200E01CB5174C19
:102D9000607830BB0DF10700FFF764FF207803284F
:102DA0001DD8DFE800F01A020D1A0020608060884C
:102DB000411C618015499DF807200A5402200BE050
:102DC0006088FF2807D86088411C61800F499DF802
:102DD00007200A5401E003202070FFF795FC002033
:102DE0001CBD3D4902A0E622FDF7A0FC44020020E4
:102DF00065536E645374617465203D3D20535441A6
:102E000054455F54585F49444C45000090020020EF
:102E1000B0B5294D2878032811D0022802D030B946
:102E2000002000E00120FFF715FF044608E02878A5
:102E300028B12878022802D02878032806D1002457
:102E4000FFF750FC012028702046B0BD02482249FF
:102E500040F25B12FDF76AFC2433000870B5164D92
:102E60002878012822D16878012805D080B901206E
:102E70000021FFF721FC0BE0A88858B1A868007872
:102E8000FFF746FFA8680130A860A8880138A8802D
:102E9000002070BD0320FFF7DDFE04460120002165
:102EA0000026FFF709FC20466E7070BD0A4903A09A
:102EB00040F22112FDF73AFC44020020655263768D
:102EC0005374617465203D3D2053544154455F5215
:102ED000585F49444C45000087330008CB08A1EBFC
:102EE000C301C05A89B2C8404FF0FF3191408843B6
:102EF000C0B2704770B5092A17D200EBD106CC08D2
:102F0000055D7678A1EBC40145EA06254FF0FF3652
:102F100006FA02F2D24392B28A4089B225EA02024C
:102F200003FA01F11143015370BD02A005A137223C
:102F3000FDF7FCFB75634E42697473203C3D2038FD
:102F4000000000002E2E2F2E2E2F757365722F6617
:102F50007265656D6F646275732F6D6F64627573F2
:102F60002F66756E6374696F6E732F6D6275746909
:102F70006C732E630000000030380A2801D2012053
:102F8000704700207047000010B500290AD008786B
:102F9000002807D005487844FDF776FC002801D0CA
:102FA000002010BD0248784410BD00003A04000023
:102FB00032040000F1EE100A4FF6FF71C0F2C0318A
:102FC00020EA010040F04070E1EE100A7047000076
:102FD0000000000000000000303132333435363755
:102FE000383941424344454640305800303132334D
:102FF000343536373839616263646566403078004D
:1030000004000008000000000000000200010000B1
:10301000103A7474003A7474003A74740000C181F8
:103020004001C0804101C0804100C1814001C08099
:103030004100C1814000C1814001C0804101C08088
:103040004100C1814000C1814001C0804100C18177
:103050004001C0804101C0804100C1814001C08069
:103060004100C1814000C1814001C0804100C18157
:103070004001C0804101C0804100C1814000C18148
:103080004001C0804101C0804100C1814001C08039
:103090004100C1814000C1814001C0804101C08028
:1030A0004100C1814000C1814001C0804100C18117
:1030B0004001C0804101C0804100C1814000C18108
:1030C0004001C0804101C0804100C1814001C080F9
:1030D0004100C1814000C1814001C0804100C181E7
:1030E0004001C0804101C0804100C1814001C080D9
:1030F0004100C1814000C1814001C0804101C080C8
:103100004100C1814000C1814001C0804100C181B6
:103110004001C0804101C0804100C1814000C0C168
:1031200001C30302C2C60607C705C5C404CC0C0D03
:10313000CD0FCFCE0E0ACACB0BC90908C8D81819B3
:10314000D91BDBDA1A1EDEDF1FDD1D1CDC14D4D513
:1031500015D71716D6D21213D311D1D010F03031A3
:10316000F133F3F23236F6F737F53534F43CFCFD43
:103170003DFF3F3EFEFA3A3BFB39F9F83828E8E9D3
:1031800029EB2B2AEAEE2E2FEF2DEDEC2CE4242553
:10319000E527E7E62622E2E323E12120E0A06061C3
:1031A000A163A3A26266A6A767A56564A46CACAD83
:1031B0006DAF6F6EAEAA6A6BAB69A9A86878B8B933
:1031C00079BB7B7ABABE7E7FBF7DBDBC7CB4747593
:1031D000B577B7B67672B2B373B17170B0509091E3
:1031E000519353529296565797559594549C5C5DC3
:1031F0009D5F9F9E5E5A9A9B5B9959589888484953
:10320000894B8B8A4A4E8E8F4F8D4D4C8C448485D2
:10321000458747468682424383418180400034127D
:103220007856BC9AF0DE00000000000000000000AC
:10323000000000000000000000000000000000008E
:103240000000010203046D6F6462757320656E6196
:10325000626C65206661696C2C206572726F7220E9
:10326000636F64653A2025750D0A006D6F646275A1
:103270007320696E6974206661696C2C20657272B6
:103280006F7220636F64653A2025750D0A006578BA
:103290006974206D6F64627573207461736B2E0D99
:1032A000006D6F6462757320656E61626C65206F7E
:1032B0006B0D002820655263765374617465203D60
:1032C0003D2053544154455F52585F524356202984
:1032D000207C7C20282065526376537461746520BD
:1032E0003D3D2053544154455F52585F5741495426
:1032F0005F454F462029002E2E2F2E2E2F757365E9
:10330000722F667265656D6F646275732F6D6F6481
:103310006275732F61736369692F6D62617363698D
:10332000692E6300282065526376537461746520AA
:103330003D3D2053544154455F52585F494E4954D6
:103340002029207C7C202820655263765374617488
:1033500065203D3D2053544154455F52585F5243D0
:10336000562029207C7C2028206552637653746186
:103370007465203D3D2053544154455F52585F458C
:1033800052524F522029002E2E2F2E2E2F7573654C
:10339000722F667265656D6F646275732F6D6F64F1
:1033A0006275732F7274752F6D627274752E63005F
:1033B000E034000800000020B8000000C001000850
:1033C00098350008B8000020D80E0000DC01000885
:1033D0001001000043000000F8FFFFFF00404040E4
:1033E00040404040404041414141414040404040D8
:1033F0004040404040404040404040404005020284
:103400000202020202020202020202020220202042
:10341000202020202020200202020202020290909E
:10342000909090901010101010101010101010109C
:1034300010101010101010100202020202028888F0
:1034400088888888080808080808080808080808FC
:1034500008080808080808080202020240000000E4
:10346000000000000000000000000000000000005C
:10347000000000000000000000000000000000004C
:10348000000000000000000000000000000000003C
:10349000000000000000000000000000000000002C
:1034A000000000000000000000000000000000001C
:1034B000000000000000000000000000000000000C
:1034C00000000000000000000000000000000000FC
:1034D00000000000000000000000000000000000EC
:1034E00000000000000000000000000002000000DA
:1034F00000127A000102809000000B0016002100EB
:103500002C00370042004D0058006300000000000E
:10351000000000000000000011000000411B000836
:1035200004000000351A000803000000D919000843
:10353000100000004B1C000806000000B51B00082E
:10354000170000009B1A000801000000F91800088D
:1035500005000000611B00080F000000E71B0008C9
:1035600002000000691900080000000000000000CF
:10357000000000000000000000000000000000004B
:10358000000000000000000000000000000000003B
:08359000000000000000000033
:040000050800018569
:00000001FF
