:020000040800F2
:10000000580B0020990100080502000801020008B1
:1000100003020008FD010008E902000800000000DA
:100020000000000000000000000000000F020008B7
:10003000FF010008000000000D0200081102000886
:10004000B3010008B3010008B3010008B3010008C0
:10005000B3010008B3010008B3010008B3010008B0
:10006000B3010008B3010008B3010008B3010008A0
:10007000B3010008B3010008B3010008B301000890
:10008000B3010008B3010008B3010008B301000880
:10009000B3010008B3010008B3010008B301000870
:1000A000B3010008B3010008B3010008B301000860
:1000B000B3010008B3010008B3010008B301000850
:1000C000B3010008B3010008B3010008B301000840
:1000D000B3010008A1020008B3010008B301000841
:1000E000B3010008B3010008B3010008B301000820
:1000F000B3010008B3010008B3010008B301000810
:10010000B3010008B3010008B3010008B3010008FF
:10011000B3010008B301000865020008B30100083C
:10012000B3010008B3010008B3010008B3010008DF
:10013000B3010008B3010008B3010008B3010008CF
:1001400000000000000000000000000000000000AF
:10015000B3010008B3010008B3010008B3010008AF
:10016000B3010008B3010008B3010008B30100089F
:10017000B3010008B3010008B3010008B30100088F
:10018000B3010008DFF80CD000F026F80048004763
:1001900049080008580B00200648804706480047D9
:1001A000FEE7FEE7FEE7FEE7FEE7FEE7FEE7FEE727
:1001B000FEE7FEE7150200088501000810B50022E1
:1001C00000E0521C835C8C5CA34201D1002BF8D16F
:1001D000D8B2E1B2401A10BD064C074D06E0E06807
:1001E00040F0010394E8070098471034AC42F6D37E
:1001F000FFF7CCFF0011000820110008FEE7704750
:10020000FEE7FEE77047012100F0B2B87047704783
:10021000704700001248D0F8801041F47001C0F817
:100220008010D2490A6842F001020A600A68920707
:10023000FCD54A6822F003024A604A6812F00C0FAB
:10024000FBD10A68CA4B1A400A6000224A600A635E
:100250004FF41F028A604FF000610160704700BFD9
:1002600008ED00E010B50D4C0121204600F08FFC98
:1002700098B1E348017B51B141890131418189B293
:10028000082904D300210122017382714181204693
:100290000121BDE8104000F06CBC10BD0010004012
:1002A000B0B5104C2021204600F01EFDC0B1D44D49
:1002B000287B08B9012028730020A9886881288933
:1002C000814207D2204600F07EFCA9884A1CAA8001
:1002D0002A68505420462021BDE8B04000F083BC7D
:1002E000B0BD00BF00380140FEE7F0B54FF6FF7328
:1002F00000224AF201048A4204BF98B2F0BD855C34
:100300006B400025082D07D284EA5306DF0708BF9B
:100310005E0801353346F5E70132ECE7A54900F008
:100320000F000A6822F0F00242EA001008607047ED
:10033000A04900F007000A6822F4E06242EA0020C7
:10034000086070479B4900F007000A6822F4605279
:1003500042EAC02008607047044901280A6822F078
:10036000300208BF30320A60704700BF54100240AC
:10037000042828D8DFE800F00309121C22007B487B
:10038000026861F300020260704701F001007749E2
:100390000A6822F4803242EA004007E001F00100DE
:1003A00072490A6822F0807242EA00600860704771
:1003B0006E48026A61F30002026270476B48426A4B
:1003C00061F3000242627047B0B528490A68C2F37F
:1003D0008103274A022B08D023BB0B6D9B0521D537
:1003E000CB6A9B0148BF244A1CE00B680C680D686F
:1003F000C5F34175C4F383440DB90F2C02D12D010F
:10040000013500E002252C44DB0301D4194A08E041
:100410000B689B0305D50B6DC3F301330233B2FBAD
:10042000F3F26243026015A40B68C3F30313E35CA9
:10043000164CDA4042600B68C3F30223E35C22FAF5
:1004400003F3C3600B68C3F3C223E35C0424DA4004
:1004500082600B68096804EA9363C1F3813119442F
:100460000BA3595CB2FBF1F10161B0BD0410024075
:1004700000127A0000093D00006CDC020000000060
:10048000000000000102030406070809EE1000083E
:1004900002040608020C0810344A010C00F01F0088
:1004A000895821FA00F000F0010070472F49002020
:1004B000030B0A68022B03D8013012F40032F7D084
:1004C0000868C0F34040704700F01F020123000C91
:1004D0009340264A0129815814BF994319438150FA
:1004E000704700BF10B5334B1C6858B144F48034DA
:1004F00001281C601C6814BF44F4003024F4003050
:10050000186006E024F480301860D86A40F000706B
:10051000D862186861F395401860C1F30210196839
:1005200060F35E711960186820F0004040EAC27004
:10053000186010BD0D48016841F0010101600168BB
:100540008907FCD5416821F003014160416811F041
:100550000C0FFBD10168064A114001600021416087
:1005600001634FF41F018160704700BF001002401B
:10057000FFFFF2FE0F490A6860F301020A6000BF44
:1005800000BF00BF00BF00BF00BF00BF00BF00BF73
:1005900000BF00BF00BF00BF00BF00BF00BF00BF63
:1005A00000BF00BF00BF704702480068C0F3810071
:1005B000704700BF041002403F487047B0B539B1E2
:1005C00014462AB140690D460BA1FFF7F7FD10B1A3
:1005D00000242046B0BD384881790029F8D08188B0
:1005E000A14238BF0C4600218C42F2D00268525C16
:1005F0006A540131F8E700BF75736172743100000D
:10060000E800002010B50B4C2188A1F5FA72B2F574
:10061000FA7F01D2012106E0A1F57A7189087C29CF
:1006200003D80021218000F007F8208801302080C5
:1006300010BD00BFE00000200A46012803D038B9F1
:100640004FF4805101E04FF40061024800F07CB8A3
:10065000704700BF00080140E0B500688DF8071042
:100660000DF10701012200F0A3FB01208CBD80B534
:10067000006800F09DFB012080BD00000E480021B5
:100680004FF496720173817181800249826001602A
:10069000704700BF280200200021002283889A4270
:1006A00003D2036899540132F8E70348002101732B
:1006B0004181817181807047E80000207CB56E46E1
:1006C00004460D46304600F045F81B48314601907F
:1006D00020890090606800F045F818483146019084
:1006E000208A0090E06800F03DF86A78AB78E9680D
:1006F000206800F0A5FA2068012100F050FB206876
:10070000012100F043FBE978206800F025FB206818
:10071000002100F075FA297894F91200002200F007
:1007200025F920680649012200F0D0FA206801214D
:1007300000F050FA01207CBD000408020004000211
:1007400005000C00416170471023002A08BF1423E4
:10075000C1507047024A4FF6FF71C0E9001270475E
:1007600000040001F0B58B790A88032B0AD05BB92D
:100770004979282913D0182912BF01F00F0102610D
:1007800008210EE000210CE00C79C97903F0080380
:1007900004F0040401F003012344194401E0426120
:1007A0000821130616D000230F240025082D11D090
:1007B00022FA05F6F6070AD0076804FA03F627EAD4
:1007C0000606066001FA03F607683E430660043336
:1007D0000135EBE7B2F5807F17D3120A00230F240F
:1007E0000025082D11D022FA05F6F6070AD0476831
:1007F00004FA03F627EA0606466001FA03F647689C
:100800003E43466004330135EBE7F0BD70B5C0F3FD
:100810000725C0F307424FF0FF3355FAA0F503FA5E
:1008200002F4C5F12005EB40064D2340040EC0B292
:1008300066599040002926EA030318BF0343635119
:1008400070BD00BF0000014000F080FB00F05EFBC7
:1008500000F0D0FA00F024FB00F0BCFB00F0F6FA48
:1008600000F0FAFB00F0D6FB00F026F80120012191
:10087000FFF7E2FEFFF7A0FE04460CA000F046F9E9
:10088000054600F027F80020FFF7BCFE012000F02D
:10089000B7FAA0790028F4D0A86AA2882168C368B2
:1008A000284698472046FFF7F7FEEAE7757361721E
:1008B000743100007047000010B5A24C204600F0D3
:1008C00025F90F490860204600F0BAF825480121B3
:1008D000017010BDB0B50A4C084D20682968826AC5
:1008E00093688022984740B12868002100F00AF8F8
:1008F0002068BDE8B04000F015B9B0BD1000002080
:10090000E40000202DE9F0411649054600780978F9
:10091000884225D120B36878062821D12C79FCB1F2
:10092000601DC6B228463146FFF7DFFCA95B09040B
:1009300009BA814214D168880B4E05F105080027D9
:10094000000405BA022F0BD036F83700854205D1D6
:1009500006EBC70021464268404690470137F1E761
:10096000BDE8F0811800002000000020F0B51D4B0C
:100970004FF0FF361C68C4F30224E51E84F0070420
:1009800038BF002506FA05F7BA43042C28BF042413
:1009900006FA04F4A143A94011430901B0F1FF3F55
:1009A0000CDD094A831883F8001300F01F010123AE
:1009B000400903FA01F142F82010F0BD00F00F00E9
:1009C00018440172F0BD00BF00E100E005494FF698
:1009D000FF030A681A4060F30A22034810430860C4
:1009E000704700BF0CED00E00000FA05B0B54C4CBC
:1009F00025204FF400714FF496720023A0745148E3
:100A000021814FF416512546C4E9072361626061D4
:100A10004FF480602082094800F54051E060C4E94D
:100A20000010072045F8180FFFF728FEA06A294696
:100A300002682046BDE8B040104700BF00080140F2
:100A400080B54049FFF7BAFB00B180BDBDE88040EA
:100A5000FFF7CCBFB0B51E4C1E4DFFF7A5FD022819
:100A600008D048BB286D800526D5E86A800148BFBC
:100A70001A4C21E0286829682A68C2F34172C1F340
:100A800083410AB90F2902D11201013200E002228A
:100A90001144C00303D4104801FB00F40CE02868A3
:100AA000800301D44C4307E0286DC0F301300230CD
:100AB000B4FBF0F000FB01F409480AA204602968C5
:100AC000C1F30311515C24FA01F10160B0BD00BF14
:100AD00000127A000410024000093D00006CDC02A4
:100AE000C800002000000000000000000102030414
:100AF00006070809044904280A6822F0040208BF0E
:100B000004320A60704700BF10E000E080B50D4974
:100B1000FFF754FB0249002818BF0021084680BD9A
:100B20009C00002080B540690649FFF747FB08B1EB
:100B3000002080BDFFF740FD0028F9D0FFF7ACFD95
:100B4000012080BDF6100008C1628262416941F057
:100B5000010141617047026801F0070122F0700253
:100B600042EA011101607047026861F3000202600D
:100B70007047C9430161704722B1012A06D1C2689A
:100B8000114302E0C26822EA0101C16070470269B4
:100B90000A4204D0C06808421CBF012070470020F0
:100BA0007047026801F0010122F0800242EAC1119F
:100BB00001607047426801F0070122F0700242EACA
:100BC000011141607047406880B270476FF35F2148
:100BD00041607047C26801F0010122F4005242EA0C
:100BE0004131C1607047CA0607BFC943016001684F
:100BF000406870470068084018BF01207047000037
:100C000003291BD8DFE801F002060E12416921F426
:100C1000807102E0416941F480714161416921F4D0
:100C200000710AE0416921F4807102E0416941F4F8
:100C300080714161416941F4007141617047000078
:100C40002DE9F04186B001AD0446984616460F46A0
:100C50002846FFF7B9FB1A48844205D01948844258
:100C600002D01948844202D105F1080001E005F1E3
:100C70000C0000680A2100EB80004000B0FBF7F098
:100C8000B0FBF1F101EB8102A0EB4200042888BF28
:100C90000131A068C1EA0000A06006F00100E1682F
:100CA00021F4805141EA0030E06008F0030021693E
:100CB00021F4405141EA0030206106B0BDE8F081E6
:100CC00000380140006401400060014010B501F0AF
:100CD0001F030124090C012A0A5804FA03F314BF64
:100CE0009A431A430A5010BD4A1E072A10D91029E8
:100CF0001CD020291DD040291ED080291ED0B1F53E
:100D0000807F1ED0B1F5007F1FD14269920A1AE0A0
:100D1000DFE802F0040A1B0A1B1B1B07C268120A49
:100D200011E0C268920612D442690CE0C26812094E
:100D300009E0C268520906E0C26803E0C268D2094D
:100D400001E002699209D20701D1002070470068D2
:100D5000084018BF0120704702290AD001290CD091
:100D600099B9C16821F40071C160C16821F4806142
:100D70000AE0C16841F4007102E0C16821F4007129
:100D8000C160C16841F48061C1607047C26801F010
:100D9000010122F0040242EA8101C1607047C26889
:100DA00001F0010122F0080242EAC101C16070476E
:100DB000F8B514460D46064630468021FFF71AFF67
:100DC0000028F9D030468021FFF70DFF0027A74209
:100DD00008BFF8BDE95D3046FFF7F8FE3046402118
:100DE000FFF708FF0028F9D030464021FFF7FBFE4F
:100DF0000137ECE701480121FFF708BD020310307D
:100E0000B0B504464FF47A756CB1332C05D34CF26F
:100E1000503000F009F8323CF6E704FB05F000F032
:100E200003F80024F0E7B0BD10B5784909684843DD
:100E300005490A680B6814469A4238BF04F1807469
:100E4000E31A8342F6D310BD18E000E02DE9FE431B
:100E500001AC2046FFF77EFC0F4D4FF4C0514FF41C
:100E6000C0592846FFF76EFC05F5806630214FF02B
:100E700030083046FFF766FC084F28462146CDE98A
:100E80000197FFF76FFC30462146CDE90187FFF758
:100E900069FCBDE8FE8300BF0008014000041002A9
:100EA00080B50320FFF792FD174801680021017308
:100EB00002684173026881730268C1740268017537
:100EC000026881750268C2F30222D31E38BF0B4646
:100ED00082F007014FF0FF32042928BF042102FAF3
:100EE00001F10F2222EA0101002299400901C17596
:100EF00025200721FFF73AFD362008210022BDE812
:100F00008040FFF733BD00BF0CED00E0B0B50C4DE5
:100F10004FF4C0100121A8470A4C01212046A847E0
:100F2000601C0121A847E01C0121A84704F10C0026
:100F30000121A847044801212A46BDE8B0401047D6
:100F4000C90400080200180004001C0010B5FFF7D7
:100F5000F1FA0420FFF757F91D4C2046FFF79CFAE1
:100F60000128FAD10120FFF74EF9FFF79FFA002878
:100F7000FBD00020FFF747F90120FFF78DFA012889
:100F8000FAD100203B210122FFF7ACFA0220FFF743
:100F90003AF91920FFF780FA0128FAD10020FFF76B
:100FA000BDF90420FFF7CEF90420FFF7C1F90120B5
:100FB000FFF7D2F90220FFF7DDFAFFF7F5FA022872
:100FC000FBD10020FFF7C8F9BDE81040FFF742BD94
:100FD00001002400B0B586B001A8FFF7F5F9029C26
:100FE00000200025FFF786FD07480849B4FBF0F014
:100FF000086007486FF07F4185604160016841F0FB
:101000000101016006B0B0BD00127A00F8000020B6
:1010100010E000E010B50F4C00212046FFF79BFDCB
:1010200020460121FFF7BDFD204640F2E731EF22C7
:10103000FFF78AFD20460021FFF7BCFD2046012175
:10104000FFF792FD204601210122BDE81040FFF785
:1010500093BD00BF001000407CB56D462846FFF7E9
:1010600079FB1848184C294601904FF40070A4F5FC
:10107000405600903046FFF775FB14482946019012
:101080004FF4806000903046FFF76CFB20464FF431
:10109000E13100220023FFF7D3FD20460121FFF7B5
:1010A0007EFE20460121FFF771FE20460021FFF75A
:1010B00053FE20460021FFF7A3FD20460121FFF744
:1010C00089FD7CBD000408020038014000040002D4
:1010D00002E008C8121F08C1002AFAD17047704701
:1010E000002001E001C1121F002AFBD1704700005F
:1010F0000000010203047573617274310000000086
:101100002011000800000020E0000000D0100008BE
:1011100000120008E0000020780A0000E01000083B
:1011200001200000B508000802200000B5080008F2
:10113000FC0000202C010000010000000000000065
:10114000000000000000000000000000000000009F
:10115000000000000000000000000000000000008F
:10116000000000000000000000000000000000007F
:10117000000000000000000000000000000000006F
:10118000000000000000000000000000000000005F
:10119000000000000000000000000000000000004F
:1011A000000000000000000000000000000000003F
:1011B000000000000000000000000000000000002F
:1011C000000000000000000000000000000000001F
:1011D000000000000000000000000000000000000F
:1011E00000000000CC00002000127A00BD060008BC
:1011F00059060008BD0500086F0600080000000041
:040000050800018569
:00000001FF
