:020000040800F2
:100000001010002099010008E3020008A302000874
:10001000E10200089F020008C5030008000000007C
:10002000000000000000000000000000ED020008D9
:10003000A102000800000000EB020008EF02000827
:10004000B3010008B3010008B3010008B3010008C0
:10005000B3010008B3010008B3010008B3010008B0
:10006000B3010008B3010008B3010008B3010008A0
:10007000B3010008B3010008B3010008B301000890
:10008000B3010008B3010008B3010008B301000880
:10009000B3010008B3010008B3010008B301000870
:1000A000B3010008B3010008B3010008B301000860
:1000B000B3010008B3010008B3010008B301000850
:1000C000B3010008B3010008B3010008B301000840
:1000D000B30100087D030008B3010008B301000864
:1000E000B3010008B3010008B3010008B301000820
:1000F000B3010008B3010008B3010008B301000810
:10010000B3010008B3010008B3010008B3010008FF
:10011000B3010008B301000841030008B30100085F
:10012000B3010008B3010008B3010008B3010008DF
:10013000B3010008B3010008B3010008B3010008CF
:1001400000000000000000000000000000000000AF
:10015000B3010008B3010008B3010008B3010008AF
:10016000B3010008B3010008B3010008B30100089F
:10017000B3010008B3010008B3010008B30100088F
:10018000B3010008DFF80CD000F058F80048004731
:10019000150A00081010002006488047064800474E
:1001A000FEE7FEE7FEE7FEE7FEE7FEE7FEE7FEE727
:1001B000FEE7FEE7F10200088501000810B5002205
:1001C00000E0521C835C8C5CA34201D1002BF8D16F
:1001D000D8B2E1B2401A10BD2DE9F05F054600200B
:1001E00092469B4688460646814640241BE02846A8
:1001F00041464746224600F042F853465A46C01A46
:10020000914110D311461846224600F029F82D1AC4
:1002100067EB01084F4622460120002100F020F83C
:1002200017EB00094E41201EA4F10104DFDC484613
:1002300031462A464346BDE8F09F0000064C074D74
:1002400006E0E06840F0010394E8070098471034A6
:10025000AC42F6D3FFF79AFF88180008A8180008E8
:10026000202A04DB203A00FA02F100207047914076
:10027000C2F1200320FA03F3194390407047202A6B
:1002800004DB203A21FA02F00021704721FA02F340
:10029000D040C2F120029140084319467047FEE762
:1002A0007047FEE70B480122002300F10801642A91
:1002B00005D00A6041F8083C0C310132F7E74FF0F5
:1002C000FF320549C0F8AC2404480A6000210160EF
:1002D000704700BF0401002004000020EC00002053
:1002E000FEE77047012100F0B1B8704770477047D2
:1002F0001248D0F8801041F47001C0F88010D24943
:100300000A6842F001020A600A689207FCD54A684E
:1003100022F003024A604A6812F00C0FFBD10A680F
:10032000CA4B1A400A6000224A600A634FF41F0257
:100330008A604FF000610160704700BF08ED00E087
:1003400010B50D4C0121204600F091FD98B1E34815
:10035000017B51B141890131418189B2082904D31E
:100360000021012201738271418120460121BDE8F3
:10037000104000F06EBD10BD00100040B0B5104C34
:100380002021204600F020FEC0B1D44D287B08B9C2
:10039000012028730020A98868812889814207D21A
:1003A000204600F080FDA9884A1CAA802A68505483
:1003B00020462021BDE8B04000F085BDB0BD00BFA3
:1003C00000380140FEE7F0B54FF6FF7300224AF215
:1003D00001048A4204BF98B2F0BD855C6B400025E1
:1003E000082D07D284EA5306DF0708BF5E080135EF
:1003F0003346F5E70132ECE7A54900F00F000A6843
:1004000022F0F00242EA001008607047A04900F0B4
:1004100007000A6822F4E06242EA002008607047A0
:100420009B4900F007000A6822F4605242EAC020AB
:1004300008607047044901280A6822F0300208BFAA
:1004400030320A60704700BF54100240042828D898
:10045000DFE800F00309121C22007B48026861F308
:1004600000020260704701F0010077490A6822F437
:10047000803242EA004007E001F0010072490A6858
:1004800022F0807242EA0060086070476E48026A9B
:1004900061F30002026270476B48426A61F3000236
:1004A00042627047B0B528490A68C2F38103274AFF
:1004B000022B08D023BB0B6D9B0521D5CB6A9B017A
:1004C00048BF244A1CE00B680C680D68C5F34175F1
:1004D000C4F383440DB90F2C02D12D01013500E086
:1004E00002252C44DB0301D4194A08E00B689B0366
:1004F00005D50B6DC3F301330233B2FBF3F2624354
:10050000026015A40B68C3F30313E35C164CDA40D6
:1005100042600B68C3F30223E35C22FA03F3C36077
:100520000B68C3F3C223E35C0424DA4082600B68E7
:10053000096804EA9363C1F3813119440BA3595C40
:10054000B2FBF1F10161B0BD0410024000127A006B
:1005500000093D00006CDC0200000000000000000B
:1005600001020304060708097818000802040608B7
:10057000020C0810344A010C00F01F00895821FABF
:1005800000F000F0010070472F490020030B0A68BB
:10059000022B03D8013012F40032F7D00868C0F300
:1005A0004040704700F01F020123000C9340264A90
:1005B0000129815814BF994319438150704700BFE6
:1005C00010B5334B1C6858B144F4803401281C60CA
:1005D0001C6814BF44F4003024F40030186006E0B6
:1005E00024F480301860D86A40F00070D86218682F
:1005F00061F395401860C1F30210196860F35E71F1
:100600001960186820F0004040EAC270186010BD00
:100610000D48016841F00101016001688907FCD5BE
:10062000416821F003014160416811F00C0FFBD1DA
:100630000168064A114001600021416001634FF4E6
:100640001F018160704700BF00100240FFFFF2FEF3
:100650000F490A6860F301020A6000BF00BF00BFD3
:1006600000BF00BF00BF00BF00BF00BF00BF00BF92
:1006700000BF00BF00BF00BF00BF00BF00BF00BF82
:1006800000BF704702480068C0F38100704700BF98
:10069000041002403F487047B0B539B114462AB142
:1006A00040690D460BA1FFF789FD10B100242046DB
:1006B000B0BD384881790029F8D08188A14238BF7F
:1006C0000C4600218C42F2D00268525C6A5401311F
:1006D000F8E700BF7573617274310000F400002008
:1006E00010B50B4C2188A1F5FA72B2F5FA7F01D250
:1006F000012106E0A1F57A7189087C2903D800213F
:10070000218000F007F820880130208010BD00BF54
:10071000E80000200A46012803D038B94FF4805180
:1007200001E04FF40061024800F0ACB8704700BF30
:1007300000080140E0B500688DF807100DF10701D1
:10074000012200F0A5FC01208CBD80B5006800F0FE
:100750009FFC012080BD00000E4800214FF49672DE
:10076000017381718180024982600160704700BF1E
:10077000E40600200021002283889A4203D2036805
:1007800099540132F8E703480021017341818171D6
:1007900081807047F40000207CB56E4604460D460B
:1007A000304600F075F81B483146019020890090D2
:1007B000606800F075F8184831460190208A009072
:1007C000E06800F06DF86A78AB78E968206800F0BE
:1007D000A7FB2068012100F052FC2068012100F0F5
:1007E00045FCE978206800F027FC2068002100F033
:1007F00077FB297894F91200002200F0E5F92068CF
:100800000649012200F0D2FB2068012100F052FBD2
:1008100001207CBD000408020004000205000C0059
:100820001CB501900446034801A9012200F030FCE8
:1008300020461CBD0038014001A001F00BB800BFEC
:10084000E8BF99E698AF49442031303031E79A84C7
:10085000E58E9FE5A78BE587BDE695B0000000001B
:1008600001A000F0F7BF00BFE8BF99E698AF494488
:100870002031303032E79A84E587BDE695B000003C
:10088000416170471023002A08BF1423C1507047EC
:10089000024A4FF6FF71C0E90012704700040001E0
:1008A000F0B58B790A88032B0AD05BB949792829DE
:1008B00013D0182912BF01F00F01026108210EE0C8
:1008C00000210CE00C79C97903F0080304F004045A
:1008D00001F003012344194401E042610821130699
:1008E00016D000230F240025082D11D022FA05F67A
:1008F000F6070AD0076804FA03F627EA0606066038
:1009000001FA03F607683E43066004330135EBE75E
:10091000B2F5807F17D3120A00230F240025082D7B
:1009200011D022FA05F6F6070AD0476804FA03F652
:1009300027EA0606466001FA03F647683E4346602A
:1009400004330135EBE7F0BD70B5C0F30725C0F304
:1009500007424FF0FF3355FAA0F503FA02F4C5F150
:100960002005EB40064D2340040EC0B2665990406E
:10097000002926EA030318BF0343635170BD00BF7B
:100980000000014070B50E46054600F0E7F8044649
:10099000013018D00E4804EB440140F8215000EB20
:1009A00081014E600B490A68531C06D002EB4201DC
:1009B00000EB810151F8082FF6E70C6006A02946EC
:1009C000224600F0F5FCB4F1FF3018BF012070BDE5
:1009D0000401002004000020E695B0E68DAE20253D
:1009E0006420E5B7B2E68F92E585A5E588B0E99386
:1009F000BEE8A1A8E5B0BEE983A8EFBC88E88A827A
:100A0000E782B9E7B4A2E5BC95EFBC9A2564290A50
:100A10000000000000F00AFC00F0E8FB00F05AFBC8
:100A200000F0AEFB00F046FC00F080FB00F084FC20
:100A300000F060FC00F038F801200121FFF76AFEA9
:100A4000FFF728FE044613A000F0D0F90546FFF793
:100A500029FC124940F2E930FFF794FF104940F2B7
:100A6000EA30FFF78FFF00F0EFF800F02BF80020DE
:100A7000FFF736FE012000F033FBA0790028F4D008
:100A8000A86AA2882168C368284698472046FFF7CD
:100A900071FEEAE77573617274310000390800086D
:100AA000610800087047000010B5DE4C204600F0D9
:100AB0009DF90F490860204600F032F925480121D0
:100AC000017010BDB0B50A4C084D20682968826AD3
:100AD00093688022984740B12868002100F00AF806
:100AE0002068BDE8B04000F08DB9B0BD180000200E
:100AF000F00000202DE9F0411649054600780978FC
:100B0000884225D120B36878062821D12C79FCB100
:100B1000601DC6B228463146FFF755FCA95B0904A3
:100B200009BA814214D168880B4E05F105080027E7
:100B3000000405BA022F0BD036F83700854205D1E4
:100B400006EBC70021464268404690470137F1E76F
:100B5000BDE8F081200000200800002010B50B48FF
:100B60000468611C0DD00A4A04EB4401002342F8DA
:100B7000213002EB81018A6802604FF0FF3088600B
:100B800002E004A000F066FE204610BDEC0000204C
:100B900004010020E99499E8AFAFEFBC9AE586859F
:100BA000E5AD98E6B1A0E5B7B2E6BBA1EFBC8CE637
:100BB00097A0E6B395E58886E9858DE696B0E88A44
:100BC00082E782B9EFBC8100F0B51D4B4FF0FF36D4
:100BD0001C68C4F30224E51E84F0070438BF002516
:100BE00006FA05F7BA43042C28BF042406FA04F4D5
:100BF000A143A94011430901B0F1FF3F0CDD094AAF
:100C0000831883F8001300F01F010123400903FA41
:100C100001F142F82010F0BD00F00F0018440172FD
:100C2000F0BD00BF00E100E005494FF6FF030A6890
:100C30001A4060F30A22034810430860704700BF5F
:100C40000CED00E00000FA05F8B5104F38680130EF
:100C500016D013A000F0ACFB174E15A417A53868EA
:100C6000411C0ED000EB4007284656F8271000F034
:100C70009FFB06EB87070020796888470837EEE777
:100C800003A42046BDE8F84000F0E4BD04000020C5
:100C9000E993BEE8A1A8E4B8BAE7A9BAEFBC81001D
:100CA000E5BD93E5898DE993BEE8A1A83A2000004F
:100CB0004E554C4C000000000401002046494420E1
:100CC0003A202564202D3E2000000000B0B54C4C99
:100CD00025204FF400714FF496720023A074514800
:100CE00021814FF416512546C4E9072361626061F2
:100CF0004FF480602082094800F54051E060C4E96B
:100D00000010072045F8180FFFF726FDA06A2946B6
:100D100002682046BDE8B040104700BF000801400F
:100D200080B54049FFF74AFA00B180BDBDE8804078
:100D3000FFF7CCBFB0B51E4C1E4DFFF7A3FC022839
:100D400008D048BB286D800526D5E86A800148BFD9
:100D50001A4C21E0286829682A68C2F34172C1F35D
:100D600083410AB90F2902D11201013200E00222A7
:100D70001144C00303D4104801FB00F40CE02868C0
:100D8000800301D44C4307E0286DC0F301300230EA
:100D9000B4FBF0F000FB01F409480AA204602968E2
:100DA000C1F30311515C24FA01F10160B0BD00BF31
:100DB00000127A000410024000093D00006CDC02C1
:100DC000D000002000000000000000000102030429
:100DD00006070809044904280A6822F0040208BF2B
:100DE00004320A60704700BF10E000E080B50D4992
:100DF000FFF7E4F90249002818BF0021084680BD2A
:100E0000A400002080B540690649FFF7D7F908B172
:100E1000002080BDFFF73EFC0028F9D0FFF7AAFCB8
:100E2000012080BD80180008C1628262416941F0E2
:100E3000010141617047026801F0070122F0700270
:100E400042EA011101607047026861F3000202602A
:100E50007047C9430161704722B1012A06D1C268B7
:100E6000114302E0C26822EA0101C16070470269D1
:100E70000A4204D0C06808421CBF0120704700200D
:100E80007047026801F0010122F0800242EAC111BC
:100E900001607047426801F0070122F0700242EAE7
:100EA000011141607047406880B270476FF35F2165
:100EB00041607047C26801F0010122F4005242EA29
:100EC0004131C1607047CA0607BFC943016001686C
:100ED000406870470068084018BF01207047000054
:100EE00003291BD8DFE801F002060E12416921F444
:100EF000807102E0416941F480714161416921F4EE
:100F000000710AE0416921F4807102E0416941F415
:100F100080714161416941F4007141617047000095
:100F20002DE9F04186B001AD0446984616460F46BD
:100F30002846FFF7B7FA1A48844205D01948844278
:100F400002D01948844202D105F1080001E005F100
:100F50000C0000680A2100EB80004000B0FBF7F0B5
:100F6000B0FBF1F101EB8102A0EB4200042888BF45
:100F70000131A068C1EA0000A06006F00100E1684C
:100F800021F4805141EA0030E06008F0030021695B
:100F900021F4405141EA0030206106B0BDE8F08103
:100FA00000380140006401400060014010B501F0CC
:100FB0001F030124090C012A0A5804FA03F314BF81
:100FC0009A431A430A5010BD4A1E072A10D9102905
:100FD0001CD020291DD040291ED080291ED0B1F55B
:100FE000807F1ED0B1F5007F1FD14269920A1AE0BE
:100FF000DFE802F0040A1B0A1B1B1B07C268120A67
:1010000011E0C268920612D442690CE0C26812096B
:1010100009E0C268520906E0C26803E0C268D2096A
:1010200001E002699209D20701D1002070470068EF
:10103000084018BF0120704702290AD001290CD0AE
:1010400099B9C16821F40071C160C16821F480615F
:101050000AE0C16841F4007102E0C16821F4007146
:10106000C160C16841F48061C1607047C26801F02D
:10107000010122F0040242EA8101C1607047C268A6
:1010800001F0010122F0080242EAC101C16070478B
:10109000F8B514460D46064630468021FFF71AFF84
:1010A0000028F9D030468021FFF70DFF0027A74226
:1010B00008BFF8BDE95D3046FFF7F8FE3046402135
:1010C000FFF708FF0028F9D030464021FFF7FBFE6C
:1010D0000137ECE701480121FFF736BC020310306D
:1010E000B0B504464FF47A756CB1332C05D34CF28D
:1010F000503000F009F8323CF6E704FB05F000F050
:1011000003F80024F0E7B0BD10B5784909684843FA
:1011100005490A680B6814469A4238BF04F1807486
:10112000E31A8342F6D310BD18E000E02DE9FE4338
:1011300001AC2046FFF7ACFB0F4D4FF4C0514FF40C
:10114000C0592846FFF79CFB05F5806630214FF01B
:1011500030083046FFF794FB084F28462146CDE97A
:101160000197FFF79DFB30462146CDE90187FFF748
:1011700097FBBDE8FE8300BF000801400004100299
:1011800080B50320FFF750FD174801680021017367
:1011900002684173026881730268C1740268017554
:1011A000026881750268C2F30222D31E38BF0B4663
:1011B00082F007014FF0FF32042928BF042102FA10
:1011C00001F10F2222EA0101002299400901C175B3
:1011D00025200721FFF7F8FC362008210022BDE872
:1011E0008040FFF7F1BC00BF0CED00E0B0B50C4D46
:1011F0004FF4C0100121A8470A4C01212046A847FE
:10120000601C0121A847E01C0121A84704F10C0043
:101210000121A847044801212A46BDE8B0401047F3
:10122000A50500080200180004001C0010B5FFF717
:10123000EFF90420FFF756F81D4C2046FFF79AF906
:101240000128FAD10120FFF74DF8FFF79DF900289A
:10125000FBD00020FFF746F80120FFF78BF90128AB
:10126000FAD100203B210122FFF7AAF90220FFF763
:1012700039F81920FFF77EF90128FAD10020FFF78D
:10128000BBF80420FFF7CCF80420FFF7BFF80120DB
:10129000FFF7D0F80220FFF7DBF9FFF7F3F9022898
:1012A000FBD10020FFF7C6F8BDE81040FFF742BDB4
:1012B00001002400B0B586B001A8FFF7F3F8029C46
:1012C00000200025FFF786FD07480849B4FBF0F031
:1012D000086007486FF07F4185604160016841F018
:1012E0000101016006B0B0BD00127A00B405002013
:1012F00010E000E010B50F4C00212046FFF79BFDE9
:1013000020460121FFF7BDFD204640F2E731EF22E4
:10131000FFF78AFD20460021FFF7BCFD2046012192
:10132000FFF792FD204601210122BDE81040FFF7A2
:1013300093BD00BF001000407CB56D462846FFF706
:10134000A7FA1848184C294601904FF40070A4F5EC
:10135000405600903046FFF7A3FA14482946019002
:101360004FF4806000903046FFF79AFA20464FF421
:10137000E13100220023FFF7D3FD20460121FFF7D2
:101380007EFE20460121FFF771FE20460021FFF777
:1013900053FE20460021FFF7A3FD20460121FFF761
:1013A00089FD7CBD000408020038014000040002F1
:1013B0000FB4054B10B503A9044A029800F018F8C1
:1013C00010BC5DF814FB000021080008000000209C
:1013D00002E008C8121F08C1002AFAD170477047FE
:1013E000002001E001C1121F002AFBD1704700005C
:1013F0002DE9FF4F8DB00F460546002606E0252853
:101400000BD0DDE90F1290476D1C761C2878002860
:10141000F5D111B03046BDE8F08F0024A246A146B8
:101420000122EC4900E0044315F8013F203B02FA99
:1014300003F00842F7D128782A2810D06FF02F0245
:101440002878A0F13001092914D80AEB8A0102EBAF
:10145000410144F0020400EB010A6D1CF0E701CFEA
:101460005FEA000A03D544F40054CAF1000A44F0CC
:1014700002046D1C28782E2817D115F8010F44F0AE
:1014800004042A280ED06FF02F022878A0F1300132
:1014900009290AD809EB890102EB410100EB010996
:1014A0006D1CF2E757F8049B6D1C28786C280FD050
:1014B00006DC4C2817D068280DD06A2814D104E027
:1014C000742810D07A280FD10DE044F400140AE0FB
:1014D00044F4801401E044F440146978814202D15C
:1014E00004F580146D1C6D1C2A786E2A1FD00CDC4C
:1014F000632A31D004DC002A8BD0582A11D1A3E012
:10150000642A68D0692A0CD165E0732A2ED004DCE5
:101510006F2A73D0702A04D19BE0752A6FD0782A85
:101520006ED01046DDE90F129047761C50E1C4F3EF
:101530000250022806D0032809D0042801CF09D080
:10154000066045E101CFF117C0E9006140E101CF3C
:1015500006803DE106703BE117F8040B8DF80000B2
:1015600000208DF80100EB46012003E057F804BB92
:101570004FF0FF3061074FF0000102D40DE008F199
:101580000101884649450FDA8045F8DB1BF8081051
:101590000029F4D108E008F1010188468142FADB14
:1015A0001BF808100029F6D1DDE90F23AAEB08008B
:1015B0008146214600F036F9304400EB080604E08D
:1015C000DDE90F121BF8010B9047B8F10108F7D2C3
:1015D00021464846F7E00A21C4F302534FF0000BBE
:1015E0000891022B04D001CFC117032B09D00AE0C8
:1015F000FF1D27F00707F7E8020108E032E01FE0CF
:1016000020E000B2C117042B01D140B2C117031E64
:1016100071F1000307DA4FF0000CD0EB0C006CEB1B
:1016200001012D2302E0230504D52B238DF824305E
:10163000012303E0E30701D02023F7E7984658E0B1
:101640000A2110E010210EE010204FF0000B08904E
:101650000CE010214FF0000B44F004044FF0080997
:10166000089103E008214FF0000B0891C4F30253E6
:10167000022B04D001CF0021032B06D006E0FF1D72
:1016800027F00707F7E8020103E080B2042B00D13E
:10169000C0B24FF0000823072BD5702A07D0DDF821
:1016A00020C08CF0100C5CEA0B0C05D00EE040233F
:1016B0008DF82430012308E050EA010306D03023DE
:1016C0008DF824308DF8252002239846DDF820C0BF
:1016D0008CF0080C5CEA0B0C0BD150EA010301D131
:1016E000630706D530238DF824304FF00108A9F1A7
:1016F0000109582A04D038A20B9208AA0A920BE0DA
:101700003AA2F9E75B46089AFEF766FD0B9B9B5CE5
:101710000A9A521E0A92137050EA0102F2D10A98F4
:10172000ADEB000000F1200B600702D524F48034FB
:1017300001E04FF00109D94502DDA9EB0B0000E003
:10174000002000EB0B0141440890AAEB010AE003E2
:1017500006D4DDE90F232146504600F063F8064425
:101760004FF0000908E009A911F80900DDE90F129E
:10177000904709F10109761CC145F4DBE0030CD563
:10178000DDE90F232146504600F04CF8064404E002
:10179000DDE90F1230209047761C0899481E08900A
:1017A0000029F5DC08E00A980A990078491C0A919A
:1017B000DDE90F129047761CBBF10001ABF1010B84
:1017C000F1DC21465046DDE90F2300F019F806440C
:1017D0006D1C1BE6092801003031323334353637B1
:1017E000383961626364656600000000303132336D
:1017F000343536373839414243444546000000000D
:101800002DE9F041044600251E461746880404D4FD
:1018100005E039462020B0476D1C641EF9D52846E6
:10182000BDE8F0812DE9F041044600251E469046B2
:10183000C80301D5302700E02027880404D505E03F
:1018400041463846B0476D1C641EF9D52846BDE8B0
:10185000F081000010B5044601E0FEF7E1FF14F846
:10186000010B04490028F8D1BDE810400A20FEF71A
:10187000D7BF0000000000200000000001020304A8
:101880007573617274310000A81800080000002010
:10189000E8000000D013000890190008E8000020BC
:1018A000280F0000E013000800000000FFFFFFFF0A
:1018B00001200000A50A000802200000A50A000877
:1018C000B80500202C01000001000000000000000D
:1018D0000000000000000000000000000000000008
:1018E00000000000000000000000000000000000F8
:1018F00000000000000000000000000000000000E8
:1019000000000000000000000000000000000000D7
:1019100000000000000000000000000000000000C7
:1019200000000000000000000000000000000000B7
:1019300000000000000000000000000000000000A7
:101940000000000000000000000000000000000097
:101950000000000000000000000000000000000087
:101960000000000000000000000000000000000077
:1019700000000000D400002000127A00990700083F
:1019800035070008990600084B0700080000000012
:040000050800018569
:00000001FF
