:020000040800F2
:10000000E8080020F5020008B9080008B108000857
:10001000B5080008AB0800087B09000800000000D4
:10002000000000000000000000000000BD08000803
:10003000AF08000800000000BB080008BF08000867
:100040000F0300080F0300080F0300080F03000848
:100050000F0300080F0300080F0300080F03000838
:100060000F0300080F0300080F0300080F03000828
:100070000F0300080F0300080F0300080F03000818
:100080000F0300080F0300080F0300080F03000808
:100090000F0300080F0300080F0300080F030008F8
:1000A0000F0300080F0300080F0300080F030008E8
:1000B000510900080F0300080F0300080F03000890
:1000C0000F0300080F0300080F0300080F030008C8
:1000D0000F0300080F0300086B09000873090008EC
:1000E0000F0300080F0300080F0300080F030008A8
:1000F0000F0300080F0300080F0300080F03000898
:100100000F0300080F0300080F0300080F03000887
:100110000F0300080F0300080F0300080F03000877
:100120000F0300080F0300080F0300080F03000867
:100130000F0300080F0300080F0300080F03000857
:100140000F0300080F0300080F0300080F03000847
:100150000F0300080F030008000000000F03000851
:100160000F0300080F03000800000000000000005B
:100170000F0300080F0300080F0300080000000031
:10018000000000000F0300080F0300080F03000821
:100190000F03000800000000000000000000000045
:1001A0000000000000000000000000000F03000835
:1001B0000F030008000000000F030008000000000B
:1001C000000000000000000000000000000000002F
:1001D00000000000000000000F0300080F030008EB
:1001E0000F0300080F0300080F0300080F030008A7
:1001F0000F0300080F0300080F0300080F03000897
:100200000F0300080F0300080F03000800F002F8B6
:1002100000F061F80AA090E8000C82448344AAF13F
:100220000107DA4501D100F056F8AFF2090EBAE83D
:100230000F0013F0010F18BFFB1A43F0010318471A
:10024000F82D0000182E00000A444FF0000C10F8A2
:10025000013B13F0070408BF10F8014B1D1108BF44
:1002600010F8015B641E05D010F8016B641E01F8E4
:10027000016BF9D113F0080F1EBF10F8014BAD1C34
:100280000C1B09D16D1E58BF01F801CBFAD505E052
:1002900014F8016B01F8016B6D1EF9D59142D6D3AC
:1002A000704700000023002400250026103A28BFD4
:1002B00078C1FBD8520728BF30C148BF0B607047D8
:1002C000752900F0EF80002070471FB502F03CFD5B
:1002D0001FBD10B510BD00F080FA1146FFF7F5FF05
:1002E00001F082FC00F09EFA03B4FFF7F2FF03BCBA
:1002F00000F054FB0948804709480047FEE7FEE745
:10030000FEE7FEE7FEE7FEE7FEE7FEE7FEE7FEE7C5
:1003100004480549054A064B70470000C10800081B
:100320000D020008E8020020E8080020E804002090
:10033000E8040020704753EA020C00F069802DE9C0
:10034000F04B4FF00006002B1FBFB3FA83F503FA02
:1003500005F424FA05F65E4012BF1643B2FA82F5A0
:1003600002FA05F4C5F120051EBF22FA05FC44EA95
:100370000C04203556EA044C4FEA144418BF641CA0
:100380004FF000084FF00009904271EB030C39D395
:10039000002919BFB1FA81F701FA07F6B0FA80F720
:1003A00000FA07F6C7F120071EBF20FA07FC46EA4D
:1003B0000C062037B6FBF4FCA7EB0507103F07F04F
:1003C0001F0BCBF120060CFA0BFB2CFA06F644BFF0
:1003D000B3460026202FA4BF5E464FF0000B5BEA19
:1003E000060C08BF4FF0010B19EB0B09ABFB027CAD
:1003F00048EB0608C01B06FB02CC0BFB03CC71EBE1
:100400000C01C1E70B46024641464846BDE8F08B69
:1004100013B54FF000004FF00001AFF30080BDE8CE
:100420001C4070470FB4044910B503AA029800F0AD
:1004300057F910BC5DF814FB5C0100202DE9F04178
:100440000E460446002020622046E168884730B30B
:10045000252805D0D4E901219047206A401CF2E705
:10046000E168204600278847050018D0A5F1410023
:10047000192802D820354FF4006732462946204615
:100480002760FFF71DFF40B1012804D0F61D26F0BC
:1004900007060836D8E7361DD6E72846DAE7206A89
:1004A000BDE8F0812DE9F041064600241068752969
:1004B000314616A510D0AFF30080002802DA404282
:1004C00013A507E031688A0701D512A502E04907A4
:1004D00004D511A5012401E0AFF3008000210A2218
:1004E00006F1240709E0B0FBF2FCB0FBF2F302FBDB
:1004F0001C00303078541846491C0028F3D123469C
:100500002A463046BDE8F04100F091B800000000F6
:100510002D0000002B000000200000000EB5054655
:1005200014460E4613A000F0F8F8284600F0F5F83F
:1005300016A000F0F2F8304600F0EFF815A000F039
:10054000ECF800218DF80B100A210DF10A008DF84E
:100550000A1008E094FBF1F201FB124294FBF1F463
:10056000303200F8012D002CF4DC00F0D6F800F059
:10057000C9F800002A2A2A20617373657274696FB2
:100580006E206661696C65643A2000002C20666903
:100590006C6520002C206C696E652000032A40F2F7
:1005A000308010F0030C00F0158011F8013BBCF115
:1005B000020F624498BF11F801CB00F8013B38BF2D
:1005C00011F8013BA2F1040298BF00F801CB38BF3B
:1005D00000F8013B11F0030300F0A980083AC0F0D5
:1005E000088051F8043B083A51F804CBA0E8081001
:1005F000F5E7121D5CBF51F8043B40F8043BAFF334
:100600000080D20724BF11F8013B11F801CB48BF8D
:1006100011F8012B24BF00F8013B00F801CB48BFC3
:1006200000F8012B704770477047704770472DE9FD
:10063000F0470D4699469246044600F124080168A9
:10064000880604D5E06921F01001216000E0012056
:10065000A84201DD471B00E00027A1697A1902EBDF
:100660000900081AA0612078C00602D42046AFF322
:100670000080002608E0D4E901211AF8060090471E
:10068000206A401C761C20624E45F4DB2078C006B0
:100690000AD52046AFF3008006E0D4E901213020DE
:1006A0009047206A401C2062381EA7F10107F4DC45
:1006B00007E0D4E9012118F805009047206A401CA2
:1006C0002062281EA5F10105F3DC2046AFF300806F
:1006D0002078000602D50220BDE8F0870120FBE764
:1006E000074B70B50D467B4400F059F80446284688
:1006F00000F068F810B14FF0FF3070BD204670BDBB
:100700000B14000010B5002000F060F8FFF7E1FDC9
:10071000BDE81040012000F041B910B5044602E0E8
:10072000641C00F03DF920780028F9D110BD10B507
:10073000203AC0F00B80B1E81850203AA0E81850D9
:10074000B1E81850A0E81850BFF4F5AF5FEA027C9A
:1007500024BFB1E81850A0E8185044BF18C918C009
:10076000BDE810405FEA827C24BF51F8043B40F8AA
:10077000043B08BF7047D20728BF31F8023B48BF8F
:1007800011F8012B28BF20F8023B48BF00F8012BCD
:100790007047000001694A1C02610878704700B583
:1007A0008FB0CDE901310021059105497944CDE9AA
:1007B000031011466846FFF741FE0FB000BD000070
:1007C000E5FFFFFF007B00F08000704710B500F0F0
:1007D00037F8BDE8104000F02EB8754600F048F834
:1007E000AE4605006946534620F00700854618B01E
:1007F00020B5FFF78DFDBDE820404FF000064FF01B
:1008000000074FF000084FF0000B21F00701AC4645
:10081000ACE8C009ACE8C009ACE8C009ACE8C00964
:100820008D46704710B50446AFF300802046BDE802
:100830001040FFF759BD002801D000F0AFB8704755
:1008400010B5002102A000F017F8012010BD000033
:10085000534947414252543A2041626E6F726D6172
:100860006C207465726D696E6174696F6E00000052
:10087000004870478402002070B505460C460A20E7
:1008800000E06D1C00F08CF835B128780028F8D114
:1008900002E0641C00F084F814B120780028F8D13C
:1008A000BDE870400A2000F07BB800BFFEE770474B
:1008B00000BFFEE700BFFEE7704770477047704714
:1008C0001F48006840F470001D4908601D4800681A
:1008D00020F00100401C1B49086000BF1948006857
:1008E000C0F340000028F9D016480830006820F016
:1008F000030014490831086000BF1248083000683E
:10090000C0F381000028F8D10E4800680E49084065
:100910000C49086000200B49083108600B48091F8A
:10092000086000200749A03108604FF41F00054906
:100930000C3108604FF00060014980390860704751
:1009400088ED00E000380240FFFFF2FE02300300B5
:1009500010B50121880701F0C0FB28B101218807EB
:1009600001F0B8FB01F0B0FA10BD10B501F03CFD8C
:1009700010BD10B501F038FD10BD00BFFEE700004E
:10098000002807DB00F01F0201219140024A4309C1
:1009900042F823107047000080E200E000BF70477B
:1009A00000BF704710B500F01BFA002000F030F8CF
:1009B000012000F02DF8022000F02AF8002000F0BD
:1009C0004FF8012000F04CF8022000F049F800F048
:1009D00001F810BD1CB501214FF4401000F072F970
:1009E000684601F099F801208DF8070000208DF885
:1009F00004008DF806000120009002208DF805000B
:100A00006946024801F092F81CBD00000000024057
:100A10001CB504460F4951F82400012100F052F999
:100A2000684601F079F801208DF8070000208DF864
:100A3000040001208DF80600074830F814000090EB
:100A400000208DF80500054951F82400694601F0A1
:100A50006DF81CBD48010020400100203401002039
:100A6000022800DD7047064931F8101031B1044901
:100A700031F81010034A52F82020916100BFF1E7CD
:100A800040010020340100200349096860F3071188
:100A9000014A1160704700000838024003490968A4
:100AA00060F38C21014A1160704700000838024051
:100AB0000349096860F34F31014A11607047000033
:100AC00008380240012807D10749096821F03001A0
:100AD0003031054A116005E00349096821F0300111
:100AE000014A116070470000A438024005282BD24B
:100AF000DFE800F0030A11182100154A126861F3BB
:100B00000002134B1A6020E0114A126861F3104290
:100B10000F4B1A6019E00E4A126861F318620C4B11
:100B20001A6012E00A4A7032126861F30002084B40
:100B300070331A6009E0064A7432126861F30002E9
:100B4000034B74331A6000E000BF00BF7047000021
:100B5000003802402DE9FE4F04464FF00009CA4616
:100B6000CB460020029001900025002600F030F9CD
:100B70000090009820B1012812D002283FD112E045
:100B800031480068C0F3803038B12F480068C0F3A6
:100B9000003010B12D48206001E02D48206031E088
:100BA0002B4820602EE028489C380068C0F3805015
:100BB000029025489C380068C0F3881922489C3868
:100BC000006800F00F0A20489C380068C0F302401B
:100BD000204911F800B0029810B91D48019001E0B9
:100BE0001B4801900AFB0BFC0198A0FB0970014611
:100BF000624600233846FFF79EFB206002E014485F
:100C0000206000BF00BF104898380068C0F303158B
:100C10001148465D2068F04060600B4898380068D5
:100C2000C0F382250D48465D6068F040E0600648EC
:100C300098380068C0F342350948465D6068F04066
:100C4000A060BDE8FE8F0000A0380240006CDC020E
:100C500000127A00882F0008682F0008782F0008FB
:100C6000802F000810B501460020094B03EB11420C
:100C7000D2F8002801F01F040123A3401A4001F01C
:100C80001F040123A3409A4200D000E0012010BDC0
:100C90000030024030B50024002500E0641C112023
:100CA000FFF7E0FF012802D0B4F5405FF6D3112032
:100CB000FFF7D8FF012801D0002500E001252846D4
:100CC00030BD000010B501290FD1104B03EB1042CD
:100CD000D2F8002800F01F040123A3401A430B4C54
:100CE00004EB1043C3F800280EE0084B03EB10425E
:100CF000D2F8002800F01F040123A3409A43034CBC
:100D000004EB1043C3F8002810BD0000003002407F
:100D100030B50B4C246860F39654094D2C602C467A
:100D2000246861F38E142C602C46246862F303045B
:100D30002C602C46246863F312442C6030BD000004
:100D4000043802401A48006820F00100401C18498D
:100D5000086000BF16480068C0F340000028F9D0C2
:100D600013480830006820F003001149083108607A
:100D700000BF0F4808300068C0F381000028F8D198
:100D80000B4800680B4908400949086000200849E1
:100D9000083108600848091F086000200449A03194
:100DA00008604FF41F0002490C31086070470000D2
:100DB00000380240FFFFF2FE0230030003490968D9
:100DC00060F30101014A11607047000008380240D9
:100DD00002480068C0F381007047000008380240F4
:100DE00010B5042001F04EF9074800680749B0FB30
:100DF000F1F007490860084600684FF47A714843EB
:100E00000449086010BD00003001002040420F007E
:100E100054010020580100202DE9F04180460C4685
:100E200015461E46002772B60A200B490870334645
:100E300007222946204601F0BFFC012801D00327E4
:100E400006E044F6206001F0D9FD012800D0032718
:100E500062B63846BDE8F0815B0000202DE9F04124
:100E600004460D461646002772B613480088FF2830
:100E700000DC04E09C2211A117A0FFF74FFB0E48F5
:100E80000088032813DB0C4801881D48006801F026
:100E90000AF860B91A48006800782070064800888F
:100EA000801E308016480068401C286000E005273E
:100EB00062B63846BDE8F081500000202E2E5C6DF1
:100EC0006F646275735C61736369695C6D626173A1
:100ED0006369692E6300000075735263764275661C
:100EE000666572506F73203C204D425F5345525FE0
:100EF0005044555F53495A455F4D4158000000002A
:100F00004C0000202DE9F04104460D4616464FF0F6
:100F1000000872B61648007818BB681E15490860AC
:100F200001201549088013480068047008460088AD
:100F300030440880084601880E48006800F0B3FF7E
:100F400007460D490888411C0B4A11800B49096866
:100F50000F5401200A4908700121002001F0F2F924
:100F600001E04FF0050862B64046BDE8F0810000A0
:100F70004900002054000020580000204C000020B0
:100F80004800002010B572B60021012001F0DAF906
:100F900000200349087062B6002001F0F5FB10BD87
:100FA0004900002010B572B60021084601F0CAF9C8
:100FB00001F0F0F962B610BD10B5002406480078C3
:100FC000012806D1054800688047002002490870C2
:100FD00000E00624204610BD6E00002074000020B2
:100FE0002DE9F05F06460D464FF0000B28880528D6
:100FF00048D170784FEA0029B07840EA090909F130
:1010000001001FFA80F9F078040230790443012CC2
:1010100035DBB4F5FA6F32DA37460020288001203C
:1010200007F8010B2888401C288004F0070040B115
:101030002046E11704EB5171C910491C01F0FF086B
:1010400005E02046E11704EB5171C1F3C70807F82A
:10105000018B2888401C28800023224649463846B8
:1010600000F06AFC8246BAF1000F04D0504600F04E
:10107000CFFE834608E028884044288004E04FF0F3
:10108000030B01E04FF0030B5846BDE8F09F2DE93C
:10109000F05F06460D464FF0000B2888052847D123
:1010A00070784FEA0029B07840EA090909F1010097
:1010B0001FFA80F9F078040230790443012C34DB04
:1010C000B4F5FA6F31DA374600202880022007F89D
:1010D000010B2888401C288004F0070040B12046FE
:1010E000E11704EB5171C910491C01F0FF0805E03C
:1010F0002046E11704EB5171C1F3C70807F8018BD3
:101100002888401C288022464946384600F060FC6A
:101110008246BAF1000F04D0504600F079FE8346B3
:1011200008E028884044288004E04FF0030B01E0E9
:101130004FF0030B5846BDE8F09F2DE9F0470546F8
:101140000C464FF0000A2088052837D168784FEA0E
:101150000028A87840EA080808F101001FFA80F882
:10116000E87806022E79012E25DB7D2E23DC2F4622
:1011700000202080032007F8010B2088401C2080DD
:101180007006000E07F8010B2088401C2080002309
:1011900032464146384600F04BFC8146B9F1000F1B
:1011A00004D0484600F034FE824609E0208800EB77
:1011B0004600208004E04FF0030A01E04FF0030AEC
:1011C0005046BDE8F0872DE9F04705460C464FF044
:1011D000000A2088052837D168784FEA0028A878C7
:1011E00040EA080808F101001FFA80F8E8780602D2
:1011F00028790643012E24DB7D2E22DA2F4600209B
:101200002080042007F8010B2088401C20807006F5
:10121000000E07F8010B2088401C20803246414612
:10122000384600F043FC8146B9F1000F04D048462F
:1012300000F0EEFD824609E0208800EB46002080A9
:1012400004E04FF0030A01E04FF0030A5046BDE806
:10125000F0872DE9FC5F04460D46002000902888A9
:101260000A285DDB60784FEA002AA07840EA0A0A83
:101270000AF101001FFA80FAE0780602207906439D
:1012800060794FEA002BA07940EA0B0B0BF10100CB
:101290001FFA80FBE0790702207A0743607A019009
:1012A000012E3BDB7D2E39DC012F37DB792F35DC3E
:1012B00079000198814231D101233A46594604F11F
:1012C0000A0000F0B5FB8146B9F1000F1ED1A0461F
:1012D00000202880172008F8010B2888401C28804F
:1012E0007006000E08F8010B2888401C2880002397
:1012F00032465146404600F09BFB8146B9F1000F53
:1013000004D12888022101FB06002880B9F1000FD2
:1013100006D0484600F07CFD009001E003200090DC
:101320000098BDE8FC9F000070B505460C460648D5
:1013300002880649681CFFF731F903480088401C01
:101340002080002070BD00005C00002064010020AF
:101350002DE9F84304460F464FF000083888052869
:1013600029D160780502A0780543681C85B22079F0
:10137000F0B9E078FF2801D0E078C8B900208DF8F6
:101380000100E078FF2803D101208DF8000002E081
:1013900000208DF8000001231A462946684600F017
:1013A000CBFA06464EB1304600F032FD804604E0EE
:1013B0004FF0030801E04FF003084046BDE8F88312
:1013C0002DE9F04104460F464FF000083888052803
:1013D00012D160780502A0780543681C85B201230C
:1013E0001A462946E01C00F023FB064636B130467B
:1013F00000F00EFD804601E04FF003084046BDE8D6
:10140000F0812DE9F05F05460E464FF0000B308865
:10141000052839DD68780702A8780743781C87B269
:10142000E87804022879044395F805A004F0070041
:1014300040B12046E11704EB5171C910491C01F07D
:10144000FF0805E02046E11704EB5171C1F3C7081E
:10145000012C16DBB4F5F66F13DCD04511D1012356
:1014600022463946A81D00F067FA8146B9F1000FFF
:1014700004D0484600F0CCFC834607E005203080CD
:1014800004E04FF0030B01E04FF0030B5846BDE8BA
:10149000F09F2DE9F04704460E464FF0000A3088D1
:1014A000062828DB60780702A0780743781C87B2FB
:1014B000E07805022079054394F80590012D17DBAB
:1014C000782D15DC6806000E484511D101232A4607
:1014D0003946A01D00F0ACFA8046B8F1000F04D0E8
:1014E000404600F095FC824607E00520308004E08D
:1014F0004FF0030A01E04FF0030A5046BDE8F087C1
:101500002DE9F04705460C4616461F46DDF82090AB
:101510004FF000081CB1012C01DBF72C02DD4FF06D
:10152000020859E02E48047015B1012D42D120E087
:101530002C482D4908602D482D4908602D482E491A
:1015400008602E482E49086000202E4908602E4869
:101550002E4908602E482F4908602F482F490860FF
:101560004B463A4631461E48007800F007F980465F
:1015700023E02B481C4908602A481D4908602A4876
:101580001D49086029481E49086000201D4908605F
:1015900027481E49086027481E49086026481F49F9
:1015A00008604B463A4631460D480078FFF734FC58
:1015B000804602E04FF0020800BF00BFB8F1000F04
:1015C0000AD101F0D9F810B94FF0030804E01B4824
:1015D000057001201A4908704046BDE8F0870000F8
:1015E0006C0000200519000874000020251900086F
:1015F000780000207918000870000020D11700083A
:101600007C000020800000207D2A0008840000204B
:10161000CD2B0008880000204D2B00088C000020F6
:10162000850F0008A50F0008050F00085D0E0008D3
:101630002D24000815260008AD2500086D000020A7
:101640006E00002038B500254148007808B106201A
:1016500038BD684601F07EF8012877D19DF800007A
:1016600030B1012805D0022818D003286DD16BE0D5
:101670006BE0384A38493948394B1B68984705466A
:101680005DB93648007837490978884202D0334836
:10169000007810B9022001F077F856E02E48006873
:1016A000007831490870012030490870002417E0A3
:1016B0002F4810F8340000B914E02D4810F8340019
:1016C0002949097888420AD1294800EBC4002149F8
:1016D00042682148006890472449087002E0641C71
:1016E000102CE5DB00BF1D48007858B31F48007878
:1016F000C8B10020174908801B48007840F08001DD
:10170000144802880088401C124B18801248006858
:10171000815416480278184601880088401C1880B9
:101720000D480068425413480078012800D100BFDA
:1017300008480288084801680A4800780E4B1B6870
:101740009847054601E001E000BF00BF00207FE7A9
:101750006E0000201E010020180100201C01002046
:101760007C0000206C0000201D01002020010020D2
:10177000980000206D000020700000202DE9F04747
:1017800081460E4614461F464FF0000872B63B468F
:1017900008222146304601F00FF8012802D04FF010
:1017A00003080FE0B4F5964F01D9232503E060004C
:1017B0000649B1FBF0F5A8B201F020F9012801D0EB
:1017C0004FF0030862B64046BDE8F087A07F1700DF
:1017D0002DE9F04104460D4616464FF0000800275B
:1017E00072B613480088FF2800DC04E09C2211A197
:1017F00016A0FEF793FE0E480088042812DB0C4862
:1018000001881C4800F0B8FC60B91A4800782070C4
:1018100007480088C01E30801648401C28604FF0E2
:10182000010800E0052762B63846BDE8F0810000F7
:101830006A0000202E2E5C6D6F646275735C72749A
:10184000755C6D627274752E63000000757352636F
:1018500076427566666572506F73203C204D425F1C
:101860005345525F5044555F53495A455F4D415867
:1018700000000000840100202DE9F04105460E46DD
:1018800017464FF0000872B619480078012829D190
:10189000701E184908600120174908801548006823
:1018A00005700846008838440880084601881148B9
:1018B000006800F061FC04460F490888411C0E4B8B
:1018C00019800E490C54221219460888411C1980AF
:1018D0000A490A5401200A4908700121002000F039
:1018E00031FD01E04FF0050862B64046BDE8F081E9
:1018F00061000020640000206800002084010020B6
:101900006000002010B572B6002005490870002163
:10191000012000F017FD00F052FD62B610BD00007E
:101920006100002010B572B60021084600F00AFDE3
:1019300000F030FD62B610BD2DE9F04705460E46B9
:10194000904699464FF0000A0FFA88F430B2012809
:1019500036DB06EB0800112832DC701E07B2B9F145
:10196000000F03D0B9F1010F29D115E011E0082CC7
:1019700001DD082000E02046C2B2B9B2134801F0F0
:1019800081F905F8010BA4F1080004B207F1080081
:1019900007B2002CEBDC12E00EE015F8013B082C3E
:1019A00001DD082000E02046C2B2B9B2074801F0CC
:1019B0007FF9A4F1080004B2002CEEDC00BF01E0C6
:1019C0004FF0010A5046BDE8F087000044000020B7
:1019D0002DE9F04705460C4616464FF0000937B290
:1019E00020B201281CDBA019112819DC601E1FFA87
:1019F00080F812E0082F01DD082000E03846C2B26E
:101A000041460A4801F03EF905F8010BA7F108002C
:101A100007B208F108001FFA80F8002FEADC01E0A5
:101A20004FF001094846BDE8F0870000460000205D
:101A3000F0B504460D460020012D31DBAE18112E05
:101A40002EDC184E3688A91B13B1012B27D111E0CB
:101A50000DE0154E36F81160361204F8016B124E87
:101A600016F8116004F8016B491C561EB2B2002A28
:101A7000EFDC14E010E014F8017B3E020A4F27F877
:101A8000116014F8016B37F811703E43064F27F8C8
:101A90001160491C561EB2B2002AECDC00BF00E007
:101AA0000120F0BD220000202400002030B50346B4
:101AB0000020012917DB8D18112D14DC0B4D2D880A
:101AC0004C1B0DE00A4D35F814502D1203F8015B44
:101AD000074D15F8145003F8015B641C551EAAB29B
:101AE000002AEFDC00E0012030BD000000000020F3
:101AF0000200002070B504460D4600BF8021054855
:101B000000F068FB0028F9D0A1B2024800F054FBB5
:101B1000204670BD001001404FF6FF7101600021AA
:101B20008171017141710121C171704770B50A461F
:101B300000211488A3B233E003F001046CB30468FD
:101B40004E000325B540AC43046094794D00AC4091
:101B500005682C430460446801258D40AC43446013
:101B6000446815798D402C43446084684E000325F9
:101B7000B540AC438460D4794D00AC4085682C43BB
:101B80008460C4684E000325B540AC43C4605479FA
:101B90004D00AC40C5682C43C4605B104C1CA1B226
:101BA000002BC9DC70BDF0B5002300244D07ED0EFD
:101BB00002FA05F3CD105DB1456A4E07F70E0F2608
:101BC000BE40B5434562456A45EA030444620AE003
:101BD000056A4E07F70E0F26BE40B5430562056A3B
:101BE00045EA03040462F0BD00F086F9FEF7DAFE70
:101BF0004FF4E13000F086FA03A0FEF713FC00F08A
:101C00000FF800BFFEE700000D0A737461727420C4
:101C100074657374206D6F646275732E2E0D0A00E7
:101C200038B500204FF41653024601210090FFF70B
:101C300067FC04467CB910A0FEF7F4FBFFF7BCF983
:101C400004461CB911A0FEF7EDFB08E0214614A0E4
:101C5000FEF7E8FB03E021461BA0FEF7E3FB1CB107
:101C600022A0FEF7DFFB38BD25A0FEF7DBFB00BF9F
:101C7000FFF7E8FCFCE700006D6F64627573206994
:101C80006E6974206F6B0D0A000000006D6F646256
:101C9000757320656E61626C65206F6B0D0A0000C4
:101CA0006D6F6462757320656E61626C652066613C
:101CB000696C2C206572726F7220636F64653A20C4
:101CC00025750D0A000000006D6F64627573206950
:101CD0006E6974206661696C2C206572726F722067
:101CE000636F64653A2025750D0A00006578697494
:101CF000206D6F64627573207461736B2E0D0A0022
:101D00007374617274206D6F6462757320706F6F8D
:101D10006C696E672E2E0D0A0000000010B501469A
:101D2000084600280BDB00F01F0301229A40054BF8
:101D3000440943F82420BFF34F8FBFF36F8F00BFD8
:101D400010BD000080E100E02DE9F0470B4614468D
:101D50004FF0000C00BF2C4A1268C2F302211D464E
:101D600026460A46C2F10709B9F1040F02D94FF01D
:101D7000040901E0C2F10709C84602F10409B9F1FA
:101D8000070F02D24FF0000901E0A2F103094F460C
:101D90004FF0010909FA08F9A9F1010909EA050951
:101DA00009FA07F94FF0010A0AFA07FAAAF1010A3B
:101DB0000AEA060A49EA0A09CC46014662460029AF
:101DC00004DB15072E0E114D6E5407E015072F0E7C
:101DD0000D4D0C3501F00F06361FAF5500BF014603
:101DE00000290DDB00BF00BF01F01F050122AA4042
:101DF0004D09AD0005F1E025C5F8002100BF00BF89
:101E000000BFBDE8F08700000CED00E000E400E05A
:101E1000014621B1012904D0072906D103E00020A1
:101E200005E0022003E0062001E0042000BF00BF1F
:101E30007047000010B50446092C03DC04F13000A3
:101E4000C0B210BD0A2C05DB0F2C03DC04F13700F7
:101E5000C0B2F6E740F2D11201A108A0FEF75EFB86
:101E60002E2E5C6D6F646275735C61736369695C6F
:101E70006D6261736369692E6300000030000000C9
:101E80000146302905DB392903DCA1F13000C0B25D
:101E90007047412905DB462903DCA1F13700C0B2B8
:101EA000F6E7FF20F4E710B50246002003E012F841
:101EB000014B2318D8B20B1EA1F10104A1B2F6D137
:101EC0004342D8B210BD000010B5024800688047F8
:101ED00010BD00008C00002010B50248006880474B
:101EE00010BD00008400002010B502480068804743
:101EF00010BD00008800002010B501212248FEF727
:101F0000E1FE2248006920F00700401C1F490861DB
:101F10001F48006820F00300401C1D490860FEF7C0
:101F200011FF01210846FEF7E1FD00BFFEF7B2FEFA
:101F30000028FBD001231A4648211846FEF7E8FE88
:101F400001210220FEF7D2FD00BF1920FEF78AFE14
:101F50000128FAD10020FEF797FD0420FEF7A8FD26
:101F60000420FEF79BFD0120FEF7ACFD0220FEF7EA
:101F700025FF00BFFEF72CFF0228FBD10020FEF753
:101F8000A1FD00F007F810BD1C00400000700040EB
:101F9000603C02402DE9FC5F002400250026A1469C
:101FA000A246A34600200190FEF712FF0090009881
:101FB00020B1012814D0022841D115E02B48006837
:101FC000C0F3803040B129480068C0F3003018B138
:101FD00027482849086002E027482649086032E07F
:101FE0002548244908602EE020489C380068C0F34A
:101FF00080591E489C380068C0F388141B489C38E0
:10200000006800F00F0519489C380068C0F30240D2
:102010001A490E5CB9F1000F02D1DFF85CA001E0B3
:10202000DFF854A005FB06FCAAFB047001466246DB
:1020300000233846FEF77FF90E49086003E00E489A
:102040000C49086000BF00BF084898380068C0F31A
:10205000031B0B4810F80B0001900648006801991B
:10206000C84004490860BDE8FC9F0000A038024059
:10207000006CDC023001002000127A00622F0008A0
:10208000522F0008042808D14FF0E021096941F0DF
:1020900004014FF0E022116107E04FF0E0210969EF
:1020A00021F004014FF0E02211617047C1628262A9
:1020B000436923F001035B1C43617047026861F3CD
:1020C000061202607047026861F300020260704706
:1020D00041627047CA43026170470246002013699B
:1020E0000B400BB1012000E000207047012A03D112
:1020F000C3680B43C36003E012B9C3688B43C3607A
:10210000704700001CB5044601211848FEF7DAFDAF
:1021100001214FF44010FEF7D5FD6846FFF7FCFCA7
:1021200001208DF8070000208DF8040002208DF8B2
:1021300006000002009000208DF8050069460C485A
:10214000FFF7F4FC072209210948FFF72CFD0023C3
:1021500001222146074800F045F80121054800F01A
:10216000EBF80121034800F030F81CBD04004400E6
:10217000000002400010014070B502460C46FF25E9
:10218000FF2309E012F8010B80EA03010648405CD6
:1021900080EA05030548455C201EA4F10106B4B29F
:1021A000F0D143EA052070BD522D0008522E0008E0
:1021B0000146486880B27047C1F308024260704728
:1021C000426961F3CF3242617047C26861F34D32B8
:1021D000C260704702461068084008B1012070478D
:1021E0000020FCE72DE9FF4704468846164699463D
:1021F0006846FEF7AFFC2448844202D0234884425C
:1022000001D1029F00E0039F07EB87004000B0FB75
:10221000F8F50A20B5FBF0F100FB1150052803D2B8
:102220000A20B5FBF0F503E00A20B5FBF0F0451CF1
:10223000A06865F30F00A06056B9E06820F08050F8
:1022400000F18050E060E06820F48050E06014E02D
:10225000012E08D1E06820F08050E060E06820F4B2
:102260008050E06009E0E06820F08050E060E068C5
:1022700020F4805000F58050E060206969F30D3053
:102280002061BDE8FF8700000010014000140140FC
:1022900030B5012A0BD100EB11431B6801F01F057B
:1022A0000124AC40234300EB114423600AE000EB1F
:1022B00011431B6801F01F050124AC40A34300EB50
:1022C0001144236030BD41B9C26822F40072C2607B
:1022D000C26822F48062C2601AE001290AD1C26891
:1022E00022F40072C260C26822F4806202F5806249
:1022F000C2600DE002290BD1C26822F4007202F51F
:102300000072C260C26822F4806202F58062C2601C
:102310007047C26861F38202C2607047C36861F3AC
:102320005953C360C36862F31443C3607047426982
:1023300061F38E3242617047C26861F3C302C260CA
:102340007047000070B505460C46012D06D10122EC
:102350000E490F480068FFF79BFF05E000220B497C
:102360000B480068FFF794FF012C07D101220749B1
:10237000891C07480068FFF78BFF06E0002203492D
:10238000891C03480068FFF783FF70BD05000C003F
:102390002C01002010B501218807FFF79BFE0022C9
:1023A00001218807FFF7A2FE00214FF08040FFF7D0
:1023B0008FFE00214FF08040FFF785FE10BD10B565
:1023C00001218807FFF786FE012211469007FFF7DB
:1023D0008DFE00214FF08040FFF77AFE0121880733
:1023E000FFF771FE10BD000010B50F480068C0680F
:1023F000C0F3401040B120210B480068FFF7EAFE0F
:10240000012801D1FFF768FD07480068C068C0F3E4
:10241000C01040B1802104480068FFF7DBFE0128AE
:1024200001D1FFF761FD10BD2C01002038B500255A
:102430004A48007800B904E0E32249A14FA0FEF722
:102440006DF8684600F0ACF99DF8000000F07F00E0
:1024500000905148007800286ED0012802D0022850
:1024600079D146E0FFF7ABFF9DF800003A2805D18F
:1024700000204A4908704A49088039E09DF8000068
:102480000D2803D102204449087031E09DF8000076
:10249000FFF7F6FC04464148007810B1012826D128
:1024A00014E03F480088FF280ADC2007000E3D4961
:1024B00009683B4A1288885401203849087016E0A0
:1024C000002035490870FFF765FF10E035490968BD
:1024D000334A1288881801782143017030480088F7
:1024E000401C2F49088000202C49087000BF00BF05
:1024F00031E09DF800002C490978884209D1FFF7A6
:1025000049FF002024490870012000F03DF90546EC
:1025100011E09DF800003A280AD100201F490870F8
:102520001F49088001201C490870FFF748FF02E09E
:102530000020194908700EE09DF800003A2809D1E2
:10254000FFF73DFF0020164908801449087001205C
:102550001149087000BF00BF284638BD4800002060
:102560002E2E5C6D6F646275735C61736369695C68
:102570006D6261736369692E6300000065536E6468
:102580005374617465203D3D2053544154455F545C
:10259000585F49444C45000049000020520000208B
:1025A000500000204C0000205B00002010B51048B7
:1025B0000078012802D0022805D100E000BF0020E9
:1025C0000B4908700FE00A480078012803D008483A
:1025D0000078022800D105E04FF4D47205A10C4820
:1025E000FDF79CFF00BF00BFFFF7D4FE002010BD29
:1025F000490000202E2E5C6D6F646275735C617300
:102600006369695C6D6261736369692E63000000D0
:10261000902F000870B500253A48007800B905E011
:102620004FF4A87238A13FA0FDF778FF4448007826
:10263000052864D2DFE800F05E030E474F003A241D
:10264000204600F0CFF902203D49087000203D49A6
:10265000087054E03C48008800282DDD3948007897
:1026600010B1012827D10DE038490968097808110F
:10267000FFF7E0FB0446204600F0B4F901203149A1
:10268000087018E031490968097801F00F00FFF778
:10269000D1FB0446204600F0A5F92C480068401CF8
:1026A0002A49086000202749087027480088401EF2
:1026B0002549088000BF05E00D2000F093F90320B4
:1026C0001F4908701BE02248007800F08BF90420B5
:1026D0001B49087013E0002019490870032000F01E
:1026E00053F8054600210120FFF72CFE0020144975
:1026F000087004E000210120FFF724FE00BF00BFA6
:10270000284670BD490000202E2E5C6D6F646275F6
:10271000735C61736369695C6D6261736369692E7F
:1027200063000000655263765374617465203D3D1B
:102730002053544154455F52585F49444C45000072
:1027400048000020520000205800002054000020C3
:102750005B00002001460020054A127832B1054A8C
:1027600012780A700022024B1A7001207047000094
:1027700022010020210100200020024908700120D0
:10278000704700002201002001460120024A10701B
:102790000248017001207047220100202101002021
:1027A00010B5044603480068FFF702FD20700120C1
:1027B00010BD00002C0100202DE9FC5F07468B4670
:1027C000904699464FF0000A4FF0010A022F05D2B9
:1027D0007D4850F827007D49086001E04FF0000A6D
:1027E000B9F1000F06D0B9F1010F06D0B9F1020F0F
:1027F00009D105E00026022408E00226002405E0B5
:102800000126002402E04FF0000A00BF00BFB8F12B
:10281000070F0CD0B8F1080F13D10CB9022505E051
:10282000022C01D1012501E04FF0000A0CE00CB9A7
:10283000012505E0022C01D1002501E04FF0000A3E
:1028400002E04FF0000A00BF00BFBAF1010F7DD1D6
:102850006846FFF761F95D4800685D49084418B1B2
:10286000B0F5806F5DD12DE02620FFF757FA0121EA
:102870005848FEF727FA01214FF44010FEF722FADC
:1028800001208DF8070000208DF8040002208DF84B
:1028900006000E20009000208DF8050069464E4885
:1028A000FFF744F9072201214B48FFF77CF9072283
:1028B00002214948FFF777F9072203214648FFF72D
:1028C00072F931E02720FFF729FA01214148401C25
:1028D000FEF7F8F901214148FEF7F4F901208DF8DF
:1028E000070000208DF8040002208DF806004FF448
:1028F0009840009000208DF8050069463848FFF7A1
:1029000015F907220A213648FFF74DF907220B2156
:102910003348FFF748F907220E213148FFF743F902
:1029200002E04FF0000A00BF00BF314627480068B0
:10293000FFF7C9FC23462A46594624480068FFF79A
:1029400051FC022211462148006800E039E0FFF7FF
:10295000E5FC00211D480068FFF732FC01211B48FF
:102960000068FFF7E4FC012118480068FFF7E4FC69
:10297000012116480068FFF7CCFC012113480068CC
:10298000FFF723FC114800681149084418B1B0F55D
:10299000806F12D108E02620FDF7F2FF012200210E
:1029A0002620FFF7D1F90BE02720FDF7E9FF0122F0
:1029B00000212720FFF7C8F902E04FF0000A00BF0E
:1029C00000BF5046BDE8FC9F240100202C010020E0
:1029D00000BCFFBF110040000000024001003000B9
:1029E0000004024010B50446214603480068FFF782
:1029F000E3FB012010BD00002C0100207FB5044640
:102A0000002000900190029003906846FEF7A2F823
:102A10001C20FFF783F901218805FEF753F91549BA
:102A20000198B0FBF1F0451E04EBC40000EB04106C
:102A30000122C2EB40012A464FF08040FFF736FBEF
:102A400000214FF08040FFF739FB1C20002807DBF6
:102A500000F01F0201219140074A430942F8231068
:102A600000BF002211461C20FFF76EF9012004B0C0
:102A700070BD000040420F0080E200E038B5002445
:102A80002148007800B904E0E62220A125A0FDF746
:102A900045FD6846FFF784FE2948007830B10128DB
:102AA0000AD0022819D003282BD102E0FFF787FCB7
:102AB00027E0FFF784FC24E00020224908809DF8ED
:102AC00000200888411C1F4B19801F490A5402200E
:102AD0001B490870FFF773FC13E01A480088FF28B1
:102AE00009DC9DF8002017490888411C154B198006
:102AF00015490A5402E0032011490870FFF75FFCF2
:102B000000BF00BF204638BD600000202E2E5C6D47
:102B10006F646275735C7274755C6D627274752E2D
:102B20006300000065536E645374617465203D3D1D
:102B30002053544154455F54585F49444C4500006C
:102B4000610000206A0000208401002010B50024EC
:102B50001648007820B1022807D003280BD109E0DD
:102B60000020FFF711FE044618E00120FFF70CFEDD
:102B7000044613E012E00D48007838B10B480078A5
:102B8000022803D009480078032800D105E04FF45B
:102B9000AD7207A10C48FDF7C1FC00BF00BFFFF7F5
:102BA000F9FB012001490870204610BD610000209A
:102BB0002E2E5C6D6F646275735C7274755C6D62F1
:102BC0007274752E63000000D42F000810B5002425
:102BD0001B480078012800D105E040F2211219A11C
:102BE0001EA0FDF79BFC2448007810B1012824D1D9
:102BF00004E000210120FFF7A5FB1EE01F4800882C
:102C000078B11F4909680878FFF7ECFE1C48006896
:102C1000401C1B49086019480088401E174908805D
:102C20000AE00320FFF7B0FD044600210120FFF772
:102C300089FB00201049087000BF00BF204610BD6E
:102C4000610000202E2E5C6D6F646275735C72747F
:102C5000755C6D627274752E630000006552637658
:102C60005374617465203D3D2053544154455F5277
:102C7000585F49444C450000600000206800002077
:102C800064000020F0B503460C461546E208A4EBAC
:102C9000C20087B20120A840401E86B2995C501C39
:102CA000185C41EA002139413140C8B2F0BD000052
:102CB0002DE9FF5F05460E469046DDF80CB0B8F1F1
:102CC000080F00DC04E0372213A11BA0FDF726FC4F
:102CD000F408A6EBC4001FFA80FA0BFA0AF01FFAF8
:102CE00080FB012000FA08F0401E1FFA80F9A6EBD5
:102CF000C40009FA00F01FFA80F92F5D601C285CFF
:102D000047EA002727EA090040EA0B072F55391246
:102D1000601C2954BDE8FF9F2E2E5C6D6F646275A8
:102D2000735C66756E6374696F6E735C6D627574E7
:102D3000696C732E6300000075634E4269747320E2
:102D40003C3D2038000000004FF04070E1EE100ADA
:102D5000704700C1814001C0804101C0804100C175
:102D6000814001C0804100C1814000C1814001C05B
:102D7000804101C0804100C1814000C1814001C04B
:102D8000804100C1814001C0804101C0804100C13B
:102D9000814001C0804100C1814000C1814001C02B
:102DA000804100C1814001C0804101C0804100C11B
:102DB000814000C1814001C0804101C0804100C10B
:102DC000814001C0804100C1814000C1814001C0FB
:102DD000804101C0804100C1814000C1814001C0EB
:102DE000804100C1814001C0804101C0804100C1DB
:102DF000814000C1814001C0804101C0804100C1CB
:102E0000814001C0804100C1814000C1814001C0BA
:102E1000804100C1814001C0804101C0804100C1AA
:102E2000814001C0804100C1814000C1814001C09A
:102E3000804101C0804100C1814000C1814001C08A
:102E4000804100C1814001C0804101C0804100C17A
:102E5000814000C0C101C30302C2C60607C705C541
:102E6000C404CC0C0DCD0FCFCE0E0ACACB0BC909B2
:102E700008C8D81819D91BDBDA1A1EDEDF1FDD1DC2
:102E80001CDC14D4D515D71716D6D21213D311D1F2
:102E9000D010F03031F133F3F23236F6F737F53542
:102EA00034F43CFCFD3DFF3F3EFEFA3A3BFB39F972
:102EB000F83828E8E929EB2B2AEAEE2E2FEF2DED42
:102EC000EC2CE42425E527E7E62622E2E323E121B2
:102ED00020E0A06061A163A3A26266A6A767A565C2
:102EE00064A46CACAD6DAF6F6EAEAA6A6BAB69A932
:102EF000A86878B8B979BB7B7ABABE7E7FBF7DBD42
:102F0000BC7CB47475B577B7B67672B2B373B17171
:102F100070B0509091519353529296565797559541
:102F200094549C5C5D9D5F9F9E5E5A9A9B5B9959F1
:102F30005898884849894B8B8A4A4E8E8F4F8D4DC1
:102F40004C8C448485458747468682424383418131
:102F5000804000000000000000000102030406079A
:102F60000809010204081020000000000000000011
:102F7000010203040607080900000000010203041F
:102F800000000000010203040102040810200000F8
:102F90002820655263765374617465203D3D20534B
:102FA000544154455F52585F5243562029207C7C3F
:102FB000202820655263765374617465203D3D205E
:102FC00053544154455F52585F574149545F454FF0
:102FD0004620290028206552637653746174652069
:102FE0003D3D2053544154455F52585F494E49542A
:102FF0002029207C7C2028206552637653746174DC
:1030000065203D3D2053544154455F52585F524323
:10301000562029207C7C20282065526376537461D9
:103020007465203D3D2053544154455F52585F45DF
:1030300052524F5220290000583000080000002052
:103040006401000048020008E0300008640100202C
:1030500084070000A4020008120100091834127845
:1030600056BC9AF0DE3201120B12161221122C12EB
:10307000371242124D1258CA6322440280901384C0
:1030800001021E20022902321113291333080413EE
:10309000C7113308031A3B08321013931433080680
:1030A0001AC12032171353122A08A613E10F33084E
:1030B000051A5118320F1A03282972138F10023D76
:1030C00008124412401A48044123127A7C0C024030
:1030D000041A20181A806C117A3004C12998000053
:040000050800020DE0
:00000001FF
