:020000040800F2
:10000000B8230024B102000885390008E103000884
:1000100081390008FF030008E54E000800000000D9
:100020000000000000000000000000003D3F00084C
:10003000710500080000000087390008A93F00088A
:10004000CB020008CB020008CB020008CB0200085C
:10005000CB020008CB020008CB020008CB0200084C
:10006000CB020008CB020008CB020008CB0200083C
:10007000CB020008CB020008CB020008CB0200082C
:10008000CB020008CB020008CB020008CB0200081C
:10009000CB020008CB020008CB020008CB0200080C
:1000A000CB020008CB020008CB020008CB020008FC
:1000B000DD420008CB020008CB020008CB0200089A
:1000C000CB020008CB020008CB020008CB020008DC
:1000D000CB020008254C0008CB020008354C000874
:1000E000CB020008CB02000800000000CB02000891
:1000F000CB020008CB020008CB020008CB020008AC
:10010000CB020008CB020008CB020008CB0200089B
:10011000CB020008CB020008CB020008CB0200088B
:10012000CB020008CB020008CB020008CB0200087B
:10013000CB020008CB020008CB020008CB0200086B
:1001400000000000000000000000000000000000AF
:10015000CB020008CB020008CB020008CB0200084B
:10016000CB020008CB020008CB020008CB0200083B
:10017000CB020008CB020008CB0200080000000000
:10018000CB020008CB020008CB020008CB0200081B
:10019000CB020008CB020008CB020008CB0200080B
:1001A000CB020008CB020008CB020008CB020008FB
:1001B000CB020008CB020008CB020008CB020008EB
:1001C000CB020008CB020008CB020008CB020008DB
:1001D000CB020008CB020008CB020008CB020008CB
:1001E000CB020008CB020008CB020008CB020008BB
:1001F000CB020008CB020008CB020008CB020008AB
:10020000CB020008CB020008CB020008CB0200089A
:10021000CB020008CB020008CB020008CB0200088A
:10022000CB020008CB020008CB020008000000004F
:10023000CB020008CB02000800000000CB0200083F
:10024000CB020008CB020008CB020008CB0200085A
:10025000CB020008CB020008CB020008CB0200084A
:10026000CB020008CB020008CB020008CB0200083A
:10027000CB020008CB020008CB02000800000000FF
:10028000CB020008CB020008CB02000800000000EF
:1002900000000000CB020008DFF810D000F08EF85C
:1002A00000480047615C0008AFF30080B8230024D9
:1002B0000648804706480047FEE7FEE7FEE7FEE700
:1002C000FEE7FEE7FEE7FEE7FEE7FEE7D9410008AE
:1002D000990200082DE9F05F0546002092469B46F2
:1002E00088460646814640241BE02846414647464C
:1002F000224600F053F853465A46C01A914110D393
:1003000011461846224600F03AF82D1A67EB01080C
:100310004F4622460120002100F031F817EB00097A
:100320004E41201EA4F10104DFDC484631462A4636
:100330004346BDE8F09F40EA01039B0703D009E074
:1003400008C9121F08C0042AFAD203E011F8013BC1
:1003500000F8013B521EF9D27047D2B201E000F81A
:10036000012B491EFBD270470022F6E710B5134659
:100370000A4604461946FFF7F0FF204610BD202A22
:1003800004DB203A00FA02F1002070479140C2F1EC
:10039000200320FA03F3194390407047202A04DB1E
:1003A000203A21FA02F00021704721FA02F3D040EE
:1003B000C2F120029140084319467047064C074D90
:1003C00006E0E06840F0010394E807009847103425
:1003D000AC42F6D3FFF764FF805F0008A05F00081F
:1003E0001EF0040F0CBFEFF30880EFF3098002F05A
:1003F00049BC014648780A7840EA0220704700BFAD
:10040000FEE7000010B500BF2A48006800F4003085
:1004100000B115E0BFF34F8FBFF36F8F0020264967
:100420000860BFF34F8FBFF36F8F2248006840F41E
:10043000003020490860BFF34F8FBFF36F8F00BFBC
:1004400000BF1C4B1B6803F4803303B130E0002372
:10045000184C70342360BFF34F8F231F1868C0F30C
:100460004E3100BFC0F3C90200BF43F6E07303EA98
:1004700041134FF0404404EA827423430E4C10347D
:10048000236000BF00BF131EA2F10102EDD10B1EBD
:10049000A1F10101E6D1BFF34F8F064B1B6843F476
:1004A0008033044C2360BFF34F8FBFF36F8F00BFC7
:1004B00010BD000014ED00E050EF00E070B5024602
:1004C0000C46FF25FF2309E012F8010B80EA050125
:1004D0000648405C80EA03050548435C201EA4F101
:1004E0000106B4B2F0D143EA052070BD185D0008E2
:1004F000185E000810B504460CB9124810BD012C56
:1005000001D10020FAE7022C01D10F48F6E7032CB5
:1005100001D10020F2E7042C01D10020EEE7052CE8
:1005200001D10020EAE7062C01D10020E6E7072CE4
:1005300001D10020E2E74FF48E7104A000F019F819
:100540000020DBE768020024940A00242E2E5C2E93
:100550002E5C557365725C6273705C7372635C626F
:1005600073705F756172745F6669666F2E630000F9
:10057000704701B9704700BFFEE7000070B5044640
:10058000B3F5804F13D1D1E9000540EA05108D681D
:1005900040EA05208D6928438D8940EA054054F8DA
:1005A0002250064E3540284344F8220003E06FF005
:1005B000704044F82200002070BD00000000F0CF21
:1005C00070B50246086852F8200020F001000E685D
:1005D00042F826008868082801D1402500E000255F
:1005E000486828438E683043CE6830430E693043F4
:1005F0004E6930438E693043CE6930430E6A3043D2
:100600004E6A30438E6A3043CE6A40EA0603086B76
:100610000343486B0343886B0343114C44F4801439
:1006200044F4001444F4E024086852F82000A04385
:1006300018430E6842F82600086BB0F5801F07D1FA
:10064000086828B1106820F480100E6B30431060E9
:10065000086818B110684E6B30431060002070BD00
:100660007FFB080030B50346D1E9000540EA0510DC
:100670008D6840EA05208D8940EA0545088A401EBC
:1006800045EA0055087D801E45EA00608D692843D3
:10069000551C53F8255005F040452843551C43F898
:1006A0002500186800F48010B0F5801F0BD1586841
:1006B00020F47004088A401E44EA0054586820F46C
:1006C000700020435860002030BD000003480068DF
:1006D00040F0010001490860704700002004005804
:1006E000F8B502460023734DDEE001279F400E68F7
:1006F00006EA0704002C71D04E68012E08D04E681F
:10070000022E05D04E68112E02D04E68122E13D143
:1007100090685F000326BE40B0435F00CE68BE40D5
:1007200030439060506801269E40B0430E79C6F376
:1007300000169E4030435060D0685F000326BE40E4
:10074000B0435F008E68BE403043D0604E68022EDA
:1007500002D04E68122E13D1DF0802F1200656F89F
:1007600027005E07F70E0F26BE40B0435F07FF0E5F
:100770000E69BE403043DF0802F1200646F827002C
:1007800010685F000326BE40B0430E7906F00306F2
:100790005F00BE40304310604E6806F08056B6F1F0
:1007A000805F1BD100BF444E366846F00206424FC0
:1007B0003E603E46366806F00206009600BF00BF67
:1007C0003E4E9F0856F827009E07370F0F26BE4063
:1007D000B0433B4EB24202D100262EE063E0394ED8
:1007E000B24201D1012628E0374EB24201D10226A1
:1007F00023E0364EB24201D103261EE0344EB2420F
:1008000001D1042619E0334EB24201D1052614E08D
:10081000314EB24201D106260FE0304EB24201D134
:1008200007260AE02E4EB24201D1082605E02D4EE1
:10083000B24201D1092600E00A269F073F0FBE40C1
:1008400030431E4E9F0846F827002868A0434E6894
:1008500006F48036B6F5803F00D1204328606868F2
:10086000A0434E6806F40036B6F5003F00D12043A1
:1008700068604FF0B0463068A0434E6806F48016BA
:10088000B6F5801F00D120434FF0B046306070684D
:10089000A0434E6806F40016B6F5001F00D12043B1
:1008A0004FF0B04670605B1C0E68DE40002E7FF497
:1008B0001CAFF8BD80000058F444025808040058EA
:1008C000000002580004025800080258000C0258A8
:1008D000001002580014025800180258001C025858
:1008E000002002580024025801480068000C70479C
:1008F0000010005C014800687047000028000024D8
:1009000003480068034909780844014908607047B2
:10091000280000243000002410B5032000F0FCF86B
:1009200001F0CAFA10490968C1F303210F4A515C6A
:1009300001F01F0120FA01F40B48006800F00F00DD
:100940001146085C00F01F0024FA00F00849086016
:10095000084804600F2000F00FF808B1012010BD16
:1009600000F088F80020FAE718440258705F000889
:10097000380000243400002470B504461148007883
:1009800008B9012070BD0F4800784FF47A71B1FBAF
:10099000F0F00D490968B1FBF0F5284601F0C5FFFC
:1009A00008B10120EEE7102C07D200222146501E8C
:1009B00000F075F80548046001E00120E2E700203E
:1009C000E0E7000030000024340000242C00002464
:1009D0004178154A11600178F9B1121D4168116022
:1009E000017B0907C27A41EA0261827A41EAC24187
:1009F000427B41EA8241827B41EA4241C27B41EA39
:100A00000241427A41EA0221027A41EA4201027835
:100A10001143054A0832116005E00021024A121D07
:100A20001160121D1160704798ED00E0BFF35F8FF9
:100A30000548006820F4803003490860002002491E
:100A4000703108607047000024ED00E040F00101C3
:100A5000074A116006497039096841F48031044A37
:100A6000703A1160BFF34F8FBFF36F8F7047000074
:100A700094ED00E070470146084600280DDB00BFFA
:100A800000BF00F01F0301229A4043099B0003F1BD
:100A9000E023C3F8002100BF00BF00BF70472DE96D
:100AA000F05F80460D46164604F02EFA074639469A
:100AB0002A46334601F00700C0F1070ABAF1040FD5
:100AC00002D94FF0040A01E0C0F1070AD14600F153
:100AD000040ABAF1070F02D24FF0000A01E0A0F1B8
:100AE000030AD4464FF0010A0AFA09FAAAF1010AE8
:100AF0000AEA020A0AFA0CFA4FF0010B0BFA0CFB95
:100B0000ABF1010B0BEA030B4AEA0B04214640460A
:100B100004F002FABDE8F09F00BF00F00702064BA8
:100B200019684FF6FF031940044B0B4343EA0221B7
:100B3000014B196000BF70470CED00E00000FA05A2
:100B400010B501F06FF905490968C1F30211044AB3
:100B5000515C01F01F01C84010BD00002044025844
:100B6000705F000870B50146844D2D6805F00303E1
:100B7000824D2D68C5F30530804D2D1D2D68C5F3C0
:100B800000147E4D14352D68C5F3CC0515FB04F516
:100B900001EE105AB8EE411AF0EE410A00286FD06B
:100BA00023B1012B4ED0022B6BD16BE0734D283D4E
:100BB0002D68C5F340153DB3704D283D2D68C5F334
:100BC000C1066F4D25FA06F201EE102AF8EE411A21
:100BD00001EE100AB8EE411A81EE812A9FED691AE2
:100BE000C0EE811A654D10352D68C5F3080501EE7C
:100BF000105AB8EE411A31EE811AF7EE001A31EEB2
:100C0000211A22EE010A1CE001EE100AB8EE411A88
:100C1000DFED5D1A81EE812A9FED5A1AC0EE811A2E
:100C2000564D10352D68C5F3080501EE105AB8EE83
:100C3000411A31EE811AF7EE001A31EE211A22EE36
:100C4000010A5BE001EE100AB8EE411ADFED4F1A1F
:100C500081EE812A9FED4B1AC0EE811A474D103567
:100C60002D68C5F3080501EE105AB8EE411A31EEB1
:100C7000811AF7EE001A31EE211A22EE010A3DE048
:100C800077E01DE001EE100AB8EE411A9FED402A10
:100C9000C2EE011A9FED3B1A80EE812A374D1035C6
:100CA0002D68C5F3080501EE105AB8EE411A32EE70
:100CB000011AB7EE002A31EE021A21EE810A1DE078
:100CC00001EE100AB8EE411ADFED301A81EE812AEA
:100CD0009FED2C1AC0EE811A284D10352D68C5F3F2
:100CE000080501EE105AB8EE411A31EE811AF7EEFE
:100CF000001A31EE211A22EE010A00BF00BF1F4D7B
:100D000010352D68C5F3462501EE105AB8EE411A8C
:100D1000F7EE001A31EE211AC0EE011ABCEEE11A0C
:100D200081ED001A154D10352D68C5F3064501EE0D
:100D3000105AB8EE411AF7EE001A31EE211AC0EE41
:100D4000011ABCEEE11A81ED011A0C4D10352D6827
:100D5000C5F3066501EE105AB8EE411AF7EE001A17
:100D600031EE211AC0EE011ABCEEE11A81ED021A31
:100D700003E000250D604D608D6070BD2844025871
:100D80000090D003000000460024744C0024744AF4
:100D900020BCBE4B70B50146844D2D6805F00303A1
:100DA000824D2D68C5F30550804D2D1D2D68C5F36E
:100DB00000247E4D1C352D68C5F3CC0515FB04F5CC
:100DC00001EE105AB8EE411AF0EE410A00286FD039
:100DD00023B1012B4ED0022B6BD16BE0734D283D1C
:100DE0002D68C5F340153DB3704D283D2D68C5F302
:100DF000C1066F4D25FA06F201EE102AF8EE411AEF
:100E000001EE100AB8EE411A81EE812A9FED691AAF
:100E1000C0EE811A654D18352D68C5F3080501EE41
:100E2000105AB8EE411A31EE811AF7EE001A31EE7F
:100E3000211A22EE010A1CE001EE100AB8EE411A56
:100E4000DFED5D1A81EE812A9FED5A1AC0EE811AFC
:100E5000564D18352D68C5F3080501EE105AB8EE49
:100E6000411A31EE811AF7EE001A31EE211A22EE04
:100E7000010A5BE001EE100AB8EE411ADFED4F1AED
:100E800081EE812A9FED4B1AC0EE811A474D18352D
:100E90002D68C5F3080501EE105AB8EE411A31EE7F
:100EA000811AF7EE001A31EE211A22EE010A3DE016
:100EB00077E01DE001EE100AB8EE411A9FED402ADE
:100EC000C2EE011A9FED3B1A80EE812A374D18358C
:100ED0002D68C5F3080501EE105AB8EE411A32EE3E
:100EE000011AB7EE002A31EE021A21EE810A1DE046
:100EF00001EE100AB8EE411ADFED301A81EE812AB8
:100F00009FED2C1AC0EE811A284D18352D68C5F3B7
:100F1000080501EE105AB8EE411A31EE811AF7EECB
:100F2000001A31EE211A22EE010A00BF00BF1F4D48
:100F300018352D68C5F3462501EE105AB8EE411A52
:100F4000F7EE001A31EE211AC0EE011ABCEEE11ADA
:100F500081ED001A154D18352D68C5F3064501EED3
:100F6000105AB8EE411AF7EE001A31EE211AC0EE0F
:100F7000011ABCEEE11A81ED011A0C4D18352D68ED
:100F8000C5F3066501EE105AB8EE411AF7EE001AE5
:100F900031EE211AC0EE011ABCEEE11A81ED021AFF
:100FA00003E000250D604D608D6070BD284402583F
:100FB0000090D003000000460024744C0024744AC2
:100FC00020BCBE4B2DE9F04104460025A846206810
:100FD00000F00060B0F1006F30D1606E48B1B0F544
:100FE000801F0DD0B0F5001F10D0B0F5401F15D1F7
:100FF00013E0F948006840F40030F74908600FE05A
:101000000221201D02F0F6FD054609E0022104F14F
:10101000240002F0A1FE054602E001E0012500BF28
:1010200000BF55B9EC482430006820F44010616ED0
:101030000843E9492431086000E0A846208800F40C
:101040008070B0F5807F2DD1606D05281AD2DFE861
:1010500000F0030A10171800DF48006840F4003061
:10106000DD49086010E00021201D02F0C3FD0546A7
:101070000AE0002104F1240002F06EFE054603E0C0
:1010800002E001E0012500BF00BF55B9D24824307D
:10109000006820F00700616D0843CF4924310860E3
:1010A00000E0A846208800F40070B0F5007F33D13E
:1010B000A06D802817D003DC40B140281CD10CE083
:1010C000C02817D0B0F5807F16D114E0C248006860
:1010D00040F40030C049086010E00021201D02F0FB
:1010E00089FD05460AE0002104F1240002F034FEE7
:1010F000054603E002E001E0012500BF00BF55B94D
:10110000B5482430006820F4E070A16D0843B2496E
:101110002431086000E0A846208800F48060B0F523
:10112000806F38D1D4F8A400B0F5800F19D004DC5A
:1011300050B1B0F5001F1DD10DE0B0F5C00F17D0B4
:10114000B0F5000F16D114E0A348006840F4003059
:10115000A149086010E00021201D02F04BFD05466A
:101160000AE0002104F1240002F0F6FD054603E048
:1011700002E001E0012500BF00BF5DB996482C30B8
:10118000006820F46000D4F8A410084392492C3180
:10119000086000E0A846208800F40060B0F5006F09
:1011A00038D1D4F8A800B0F1007F19D004DC50B1D8
:1011B000B0F1807F1DD10DE0B0F1407F17D0B0F1CC
:1011C000806F16D114E08448006840F400308249F2
:1011D000086010E00021201D02F00CFD05460AE029
:1011E000002104F1240002F0B7FD054603E002E00F
:1011F00001E0012500BF00BF5DB977482C300068D1
:1012000020F0E060D4F8A810084373492C3108603E
:1012100000E0A846206800F00070B0F1007F27D100
:10122000A06CA0B1102804D0202809D030280FD1FC
:101230000CE06948006840F400306749086009E044
:101240000221201D02F0D6FC054603E002E001E089
:10125000012500BF00BF55B95F482030006820F06D
:101260003000A16C08435C492031086000E0A846CA
:10127000208800F48050B0F5805F36D1E06DB0F585
:10128000005F19D004DC50B1B0F5805F1DD10DE0D6
:10129000B0F5405F17D0B0F5804F16D114E04E483E
:1012A000006840F400304C49086010E00021201D27
:1012B00002F0A0FC05460AE0002104F1240002F03F
:1012C0004BFD054603E002E001E0012500BF00BF41
:1012D00055B941482430006820F4E040E16D0843EE
:1012E0003D492431086000E0A846208800F4005001
:1012F000B0F5005F34D1206EB0F5403F1DD007DC63
:1013000068B1B0F5803F0BD0B0F5003F18D10DE0CB
:10131000B0F5802F12D0B0F5A02F11D10FE011E061
:101320000121201D02F066FC05460BE0012104F1BD
:10133000240002F011FD054604E003E002E001E0B4
:10134000012500BF00BF55B923482430006820F4B0
:10135000E020216E084320492431086000E0A846BF
:10136000208800F48040B0F5804F38D1D4F8AC002C
:10137000B0F1405F1DD007DC68B1B0F1805F0BD0E9
:10138000B0F1005F18D10DE0B0F1804F12D0B0F194
:10139000A04F11D10FE011E00121201D02F02AFC25
:1013A00005460BE0012104F1240002F0D5FC0546BE
:1013B00004E003E002E001E0012500BF00BF6DB9D9
:1013C00005482C30006820F0E040D4F8AC10084309
:1013D00001492C31086002E02C440258A8462088BC
:1013E00000F40040B0F5004F26D1E06E98B1B0F1A6
:1013F000805F03D0B0F1005F0ED106E0F9480068CD
:1014000040F40030F749086008E00121201D02F097
:10141000F1FB054602E001E0012500BF00BF55B920
:10142000F0482430006820F04050E16E0843ED4958
:101430002431086000E0A846206800F08070B0F118
:10144000807F27D1606CA0B1012804D0022809D088
:1014500003280FD10CE0E348006840F40030E14974
:10146000086009E00221201D02F0C4FB054603E0EC
:1014700002E001E0012500BF00BF55B9D948203086
:10148000006820F00300616C0843D64920310860F1
:1014900000E0A846206800F48000B0F5800F7DD100
:1014A000D148006840F48070CF490860FFF722FA05
:1014B000064606E0FFF71EFA801B642801D90325C3
:1014C00005E0C948006800F480700028F2D000BF31
:1014D00085BBC4484430006800F44070B4F8B010D4
:1014E00001F44071884213D0BE484430006820F4B3
:1014F0004077BC484430006840F48030B9494431FA
:1015000008600846006820F48030086008460760DC
:10151000D4F8B000B0F5807F15D1FFF7EBF906469F
:1015200009E0FFF7E7F9801B41F28831884202D9D0
:10153000032507E038E0AB4844300068C0F34000C2
:101540000028EED000BF55BB00BFB4F8B00000F4D7
:101550004070B0F5407F0ED1A2481C38006820F4DE
:101560007C51A24AD4F8B000104041EA10109D49C5
:101570001C39086007E09B481C38006820F47C5048
:1015800098491C390860974844300068B4F8B01096
:10159000C1F30B0108439349443101E005E001E048
:1015A000086002E0A84600E0A846207800F00100AC
:1015B00068B3A06F182819D005DC48B1082808D0F6
:1015C000102816D10BE0202811D0282811D10FE0C7
:1015D00011E00121201D02F00DFB05460BE0012169
:1015E00004F1240002F0B8FB054604E003E002E049
:1015F00001E0012500BF00BF55B97A4828300068D6
:1016000020F03800A16F084376492831086000E0D7
:10161000A846207800F00200022828D1606F062832
:1016200015D2DFE800F003040A11121311E00121C2
:10163000201D02F0DFFA05460BE0012104F1240031
:1016400002F08AFB054604E003E002E001E0012528
:1016500000BF00BF55B963482830006820F007007C
:10166000616F08435F492831086000E0A846207890
:1016700000F0040004282AD1D4F89000062815D2DE
:10168000DFE800F003040A11121311E00121201D0C
:1016900002F0B0FA05460BE0012104F1240002F04B
:1016A0005BFB054604E003E002E001E0012500BF2A
:1016B00000BF5DB94B482C30006820F00700D4F81B
:1016C0009010084347492C31086000E0A846207874
:1016D00000F02000202836D1D4F88C00B0F1405F13
:1016E0001DD007DC68B1B0F1805F0BD0B0F1005FB6
:1016F00018D10DE0B0F1804F12D0B0F1A04F11D150
:101700000FE011E00021201D02F074FA05460BE005
:10171000022104F1240002F01FFB054604E003E06F
:1017200002E001E0012500BF00BF5DB92D4828306F
:10173000006820F0E040D4F88C1008432949283193
:10174000086000E0A846207800F04000402836D12C
:10175000D4F89800B0F5406F1DD007DC68B1B0F543
:10176000806F0BD0B0F5006F18D10DE0B0F5805F41
:1017700012D0B0F5A05F11D10FE011E00021201DC3
:1017800002F038FA05460BE0022104F1240002F0D1
:10179000E3FA054604E003E002E001E0012500BFB2
:1017A00000BF5DB90F482C30006820F4E050D4F839
:1017B000981008430B492C31086000E0A8462078B7
:1017C00000F0800080283AD1D4F89C00B0F5C04FDA
:1017D00023D00DDC98B1B0F5005F11D0B0F5804F8B
:1017E0001ED113E02C44025800480258FFFCFF0FA2
:1017F000B0F5004F12D0B0F5204F11D10FE011E03D
:101800000021201D02F0F6F905460BE0022104F14B
:10181000240002F0A1FA054604E003E002E001E042
:10182000012500BF00BF4DB9B548006820F46040F5
:10183000D4F89C100843B249086000E0A84620781C
:1018400000F00800082817D1D4F88000B0F5805FB8
:1018500007D1022104F1240002F07EFA08B14FF012
:101860000108A748001F006820F44050D4F88010F9
:101870000843A349091F0860207800F010001028D1
:1018800015D1D4F89400B0F5807F07D1022104F17E
:10189000240002F061FA08B14FF00108984800688E
:1018A00020F44070D4F894100843954908602068EB
:1018B00000F40020B0F5002F26D1D4F8A00030B1FC
:1018C000B0F5803F09D0B0F5003F0ED10CE000210B
:1018D000201D02F08FF9054609E0022104F12400E1
:1018E00002F03AFA054602E001E0012500BF00BF20
:1018F0004DB98348006820F44030D4F8A010084364
:101900007F49086000E0A846206800F48020B0F518
:10191000802F2DD1D4F88400B0F5801F06D0B0F50B
:10192000001F0CD0B0F5401F11D10FE074482C38C7
:10193000006840F4003072492C39086009E0012148
:1019400004F1240002F008FA054602E001E0012556
:1019500000BF00BF5DB96A48001F006820F4401056
:10196000D4F8841008436649091F086000E0A846BF
:10197000206800F48030B0F5803F24D1E06C18B1CD
:10198000B0F5803F0FD108E05D482C38006840F486
:1019900000305B492C39086007E00221201D02F06D
:1019A00029F9054601E0012500BF00BF55B954489B
:1019B0000C38006820F48030E16C084350490C3941
:1019C000086000E0A846206800F00050B0F1005F19
:1019D00007D1022104F1240002F0BEF908B14FF052
:1019E0000108206800F40030B0F5003F27D1E06F17
:1019F000A0B1B0F5807F06D0B0F5007F0CD0B0F577
:101A0000407F0CD109E03E482C38006840F400309B
:101A10003B492C39086004E003E002E001E00125C5
:101A200000BF00BF55B93648001F006820F4407061
:101A3000E16F08433249091F086000E0A8462068AA
:101A400000F48010B0F5801F09D12D4808380068D7
:101A500020F00040216F08432949083908602068B8
:101A600000F08050B0F1805F0AD125484838006806
:101A700020F48040D4F8B410084321494839086064
:101A8000206800F40010B0F5001F09D11C48083888
:101A9000006820F08070A16E084319490839086079
:101AA000206800F08040B0F1804F11D100BF144891
:101AB0004838006820F40040114948390860084659
:101AC0000068D4F8B81008430D494839086000BFD1
:101AD000206800F00040B0F1004F09D108480C38F0
:101AE000006820F04050216D084305490C3908601A
:101AF000B8F1000F02D10020BDE8F0810120FBE722
:101B0000584402582DE9F04104460D4614B901200D
:101B1000BDE8F081BD48006800F00F00A8420ED279
:101B2000BA48006820F00F002843B849086008460A
:101B3000006800F00F00A84201D00120E8E72078FB
:101B400000F0040004280ED1B1492069096801F0B1
:101B50007001884207D9AE48006820F07000216902
:101B60000843AB490860207800F00800082811D12C
:101B7000A749091D6069096801F07001884209D907
:101B8000A348001D006820F0700061690843A04967
:101B9000091D0860207800F01000102811D19C4920
:101BA000091DA069096801F4E061884209D99848D3
:101BB000001D006820F4E060A16908439449091DF4
:101BC0000860207800F02000202811D190490831C9
:101BD000E069096801F07001884209D98C48083031
:101BE000006820F07000E169084389490831086005
:101BF000207800F0020002280ED18549E0680968CB
:101C000001F00F01884207D98148006820F00F00D9
:101C1000E16808437E490860207800F00100002850
:101C200050D07B48006820F47060A1680843784970
:101C300008606068022807D1754818380068C0F34A
:101C40004040F8B9012063E76068032807D1704875
:101C500018380068C0F34060A0B9012058E76068F8
:101C6000012807D16A4818380068C0F3002048B935
:101C700001204DE7664818380068C0F3800008B9B5
:101C8000012045E762480838006820F007006168D5
:101C900008435F4908390860FEF72CFE064608E055
:101CA000FEF728FE801B41F28831884201D90320CB
:101CB0002EE757480838006800F038006168B0EB3C
:101CC000C10FEDD1207800F0020002280ED150495A
:101CD000E068096801F00F01884207D24C480068AB
:101CE00020F00F00E1680843494908604748006850
:101CF00000F00F00A8420ED94448006820F00F0001
:101D00002843424908600846006800F00F00A842D6
:101D100001D00120FCE6207800F0040004280ED158
:101D20003B492069096801F07001884207D23848B0
:101D3000006820F070002169084335490860207868
:101D400000F00800082811D13149091D60690968AF
:101D500001F07001884209D22D48001D006820F072
:101D60007000616908432A49091D0860207800F065
:101D70001000102811D12649091DA069096801F435
:101D8000E061884209D22248001D006820F4E0602A
:101D9000A16908431E49091D0860207800F0200051
:101DA000202811D11A490831E069096801F0700151
:101DB000884209D216480830006820F07000E169B6
:101DC000084313490831086000F076F810490968A3
:101DD000C1F303210F4A515C01F01F0120FA01F702
:101DE0000B48006800F00F001146085C00F01F006F
:101DF00027FA00F0084908600848076008480068AA
:101E0000FEF7BAFD8046404682E600000020005200
:101E100018440258705F0008380000243400002481
:101E20002C00002410B500F047F80D490968C1F3F3
:101E300003210C4A515C01F01F0120FA01F408480B
:101E4000006800F00F001146085C00F01F0024FA43
:101E500000F005490860054804600846006810BDA8
:101E600018440258705F0008380000243400002431
:101E700000B5FFF7D7FF05490968C1F30211044A0D
:101E8000515C01F01F01C84000BD00001C44025815
:101E9000705F000800B5FFF7C5FF05490968C1F389
:101EA0000221044A515C01F01F01C84000BD00003E
:101EB0001C440258705F0008F0B5824E366806F088
:101EC000380636B1082E15D0102E15D0182E7DD11B
:101ED00014E07C4E103E3668C6F3401646B1794E8B
:101EE000103E3668C6F3C107774E26FA07F000E0C9
:101EF0007548E5E07548E3E07548E1E0714E183655
:101F0000366806F003046F4E18363668C6F30511BE
:101F10006C4E1C36366806F001056A4E243636686B
:101F2000C6F3CC0616FB05F601EE106AB8EE410AC0
:101F3000002971D024B1012C50D0022C6DD16DE05C
:101F4000604E103E3668C6F340163EB35D4E103EFE
:101F50003668C6F3C1075C4E26FA07F301EE103A65
:101F6000F8EE411A01EE101AB8EE411A81EE812AFC
:101F70009FED581AC0EE011A524E20363668C6F34D
:101F8000080601EE106AB8EE411A31EE811AF7EE3A
:101F9000001A31EE211A62EE010A1EE001EE101A5B
:101FA000B8EE411ADFED4C1A81EE812A9FED491AF5
:101FB000C0EE011A434E20363668C6F3080601EE1D
:101FC000106AB8EE411A31EE811A00E076E0F7EEC1
:101FD000001A31EE211A62EE010A5BE001EE101ADE
:101FE000B8EE411A9FED3D2AC2EE011A9FED391A53
:101FF00080EE012A334E20363668C6F3080601EE1D
:10200000106AB8EE411A32EE011AB7EE002A31EE2C
:10201000021A61EE810A3DE04EE01DE001EE101A69
:10202000B8EE411ADFED2E1A81EE812A9FED291AB2
:10203000C0EE011A234E20363668C6F3080601EEBC
:10204000106AB8EE411A31EE811AF7EE001A31EE3D
:10205000211A62EE010A1DE001EE101AB8EE411AD3
:102060009FED1E2AC2EE011A9FED1A1A80EE012A78
:10207000144E20363668C6F3080601EE106AB8EE34
:10208000411A32EE011AB7EE002A31EE021A61EE61
:10209000810A00BF00BF0B4E20363668C6F34626C5
:1020A000721C01EE102AB8EE411AC0EE811ABCEE85
:1020B000E11A11EE100A00E0002001E0034800BF21
:1020C00000BFF0BD104402580090D00300093D004D
:1020D00040787D01000000460024744C0024744ABE
:1020E00020BCBE4B2DE9F047044614B90120BDE8E1
:1020F000F087207800F00100002872D0F7480068CF
:1021000000F03808F5481830D0F80090B8F1100FFA
:1021100006D0B8F1180F0FD109F0030002280BD137
:10212000EE4810380068C0F3404000286ED0606868
:1021300000286BD10120DAE700BF6068B0F5803F6E
:1021400008D1E6481038006840F48030E34910397F
:1021500008602EE0606868B9E0481038006820F434
:102160008030DE49103908600846006820F480207D
:1021700008601EE06068B0F5A02F0DD1D748103878
:10218000006840F48020D54910390860084600688E
:1021900040F4803008600CE0D0481038006820F42B
:1021A0008030CE49103908600846006820F480204D
:1021B000086000BF6068A8B1FEF79CFB054608E018
:1021C000FEF798FB401B41F28831884201D9032079
:1021D0008DE7C24810380068C0F340400028EFD0B7
:1021E00014E014E0FEF786FB054608E0FEF782FBEC
:1021F000401B41F28831884201D9032077E7B74874
:1022000010380068C0F340400028EFD100BF2078AC
:1022100000F0020002287BD1B048006800F03808C6
:10222000AE481830D0F80090B8F1000F05D0B8F1E2
:10223000180F3AD109F00300B0BBA8481038006865
:10224000C0F3800018B1E06808B901204FE700BF73
:10225000FEF74AFB41F20301884219D82069402861
:102260000AD19E480C38006820F47C3040F40030DD
:102270009A490C39086016E098480C38006820F438
:102280007C30216940EA013094490C3908600AE049
:1022900092480C38006820F0FE40217C40EA016042
:1022A0008E490C39086067E0FFE7E06888B38B4827
:1022B0001038006820F01900E16808438749103998
:1022C0000860FEF717FB054606E0FEF713FB401B10
:1022D000022801D903200AE7804810380068C0F3BB
:1022E00080000028F1D000BFFEF7FEFA41F20301A2
:1022F00088421BD8206940280CD178480C380068E7
:1023000020F47C3040F4003074490C39086018E047
:1023100033E017E071480C38006820F47C30216904
:1023200040EA01306D490C3908600AE06B480C380E
:10233000006820F0FE40217C40EA016067490C39CA
:10234000086019E065481038006820F00100634912
:1023500010390860FEF7CEFA054606E0FEF7CAFA25
:10236000401B022801D90320C1E65C4810380068F0
:10237000C0F380000028F1D100BF207800F01000E9
:1023800010287CD15548006800F0380853481830B0
:10239000D0F80090B8F1080F06D0B8F1180F3DD171
:1023A00009F00300012839D14C4810380068C0F307
:1023B000002020B1E069802801D0012097E600BF0D
:1023C000FEF792FA41F2030188421AD8206A2028C7
:1023D0000AD142480C38006820F0F84040F08040B4
:1023E0003E490C39086018E03C480C38006820F081
:1023F000F84094F8201040EA816038490C390860B0
:102400000BE03648001F006820F07C5094F8201044
:1024100040EA01603149091F086067E0E06978B36C
:102420002E481038006840F080002C4910390860B0
:10243000FEF760FA054606E0FEF75CFA401B02284C
:1024400001D9032053E6254810380068C0F3002066
:102450000028F1D000BFFEF747FA41F2030188429D
:102460001CD8206A20280CD11C480C38006820F0A9
:10247000F84040F0804019490C3908601AE036E015
:1024800019E016480C38006820F0F84094F8201045
:1024900040EA816011490C3908600BE00F48001FC9
:1024A000006820F07C5094F8201040EA01600B494D
:1024B000091F08601AE009481038006820F0800001
:1024C000064910390860FEF715FA054608E0FEF7E0
:1024D00011FA401B022803D9032008E610440258D1
:1024E000F3480068C0F300200028F0D100BF207836
:1024F00000F00800082836D16069D0B1EC4874308B
:10250000006840F00100EA4974310860FEF7F2F912
:10251000054606E0FEF7EEF9401B022801D903202C
:10252000E5E5E34874300068C0F340000028F1D0CE
:1025300019E0DF487430006820F00100DC49743194
:102540000860FEF7D7F9054606E0FEF7D3F9401B11
:10255000022801D90320CAE5D54874300068C0F3C9
:1025600040000028F1D1207800F02000202830D150
:10257000A069B8B1CE48006840F48050CC490860EA
:10258000FEF7B8F9054606E0FEF7B4F9401B02284D
:1025900001D90320ABE5C6480068C0F340300028ED
:1025A000F2D016E0C248006820F48050C0490860AC
:1025B000FEF7A0F9054606E0FEF79CF9401B02284D
:1025C00001D9032093E5BA480068C0F340300028E1
:1025D000F2D1207800F0040004287DD1B5480068CD
:1025E00040F48070B3490860FEF784F9054606E0C0
:1025F000FEF780F9401B642801D9032077E5AD4838
:10260000006800F480700028F2D000BFA0680128A4
:1026100008D1A7487030006840F00100A44970312B
:1026200008602DE0A06868B9A1487030006820F00B
:1026300001009F49703108600846006820F00400DE
:1026400008601DE0A06805280DD199487030006829
:1026500040F004009649703108600846006840F078
:10266000010008600CE092487030006820F0010022
:102670008F49703108600846006820F00400086047
:1026800000BFA068A0B1FEF735F9054608E0FEF7E7
:1026900031F9401B41F28831884201D9032026E5F7
:1026A000834870300068C0F340000028EFD013E08A
:1026B000FEF720F9054608E0FEF71CF9401B41F241
:1026C0008831884201D9032011E5794870300068CB
:1026D000C0F340000028EFD1606A00287DD0744824
:1026E0001030006800F03800182877D0606A02289F
:1026F00075D16F48006820F080706D490860FEF762
:10270000F9F8054606E0FEF7F5F8401B022801D966
:102710000320ECE466480068C0F340600028F2D172
:1027200000BFD4E90A1041EA001061492831096864
:1027300040F2F332914308435D4928310860208E0E
:10274000401EC0F30800616B491E4FF47E4202EA4E
:1027500041210843218F491ED20102EA0141084369
:102760003C21095D491E120202EA016108435049F9
:102770003031086000BF081F006820F00100091F09
:1027800008604B48343000684FF6F8718843A16CFC
:1027900040EAC10046493431086045482C300068A1
:1027A00020F00C00216C084341492C310860084698
:1027B000006820F00200616C08433D492C3108603C
:1027C0000846006840F4803008600846006840F41D
:1027D000003008600846006802E066E038E01FE06C
:1027E00040F4802008600846006840F0010008605E
:1027F0002F48006840F080702D490860FEF77AF895
:10280000054606E0FEF776F8401B022801D90320B2
:102810006DE427480068C0F340600028F2D044E02F
:102820002348006820F0807021490860FEF762F8B4
:10283000054606E0FEF75EF8401B022801D903209A
:1028400055E41B480068C0F340600028F2D12CE03A
:10285000174828300768164830300668606A012833
:1028600021D007F00301A06A81421CD1C7F30511F2
:10287000E06A884217D1C6F30801206B401E8142EE
:1028800011D1606B401EC6F3462188420BD1A06B6C
:10289000401EC6F30641884205D1E06B401EC6F3D8
:1028A0000661884201D0012021E400201FE40000DD
:1028B000004402580048025870B504460E461546BA
:1028C0000CB9012070BD94F8450028B9002084F8A7
:1028D0004400204600F028F804F108012068FDF7C4
:1028E0006FFE3146A2682068FDF7BCFE2946E36A08
:1028F000D4E90102FDF742FEA168206850F82100EA
:1029000040F00100A268216841F8220005480068F3
:1029100040F0004003490860012084F84500002091
:10292000D0E7000000400052704770B504462546CD
:10293000681EB0F1807F01D301200FE0681E4FF0C8
:10294000E02148610F214FF0FF3002F0E5FA00204E
:102950004FF0E021886107200861002070BD10B5AC
:1029600004460CB9012010BD94F83D0028B90020A0
:1029700084F83C00204600F029F8022084F83D004D
:10298000211D206801F004FD012084F8480000BFEB
:1029900084F83E0001213F2001554020015541208F
:1029A0000155422001554320015500BF00BF0120C1
:1029B00084F8440045200155462001554720015523
:1029C00000BF012084F83D000020CCE770470000E4
:1029D000014691F83D00012801D0012070470220F6
:1029E00081F83D0008688068074B00EA0302062A68
:1029F00008D0B2F5803F05D00868006840F00100BB
:102A00000B6818600020E9E70700010010B50446D4
:102A10000CB9012010BDA06900B100E000BFD4F8DE
:102A2000800028B9002084F87C00204600F02AF8B5
:102A30002420C4F880002068006820F0010021688C
:102A40000860204601F0C0FD012800D1E2E7A06A3D
:102A500010B1204601F002FD2068406820F490404B
:102A6000216848602068806820F02A00216888601A
:102A70002068006840F0010021680860204601F0ED
:102A800069FDC7E77047000000B59BB04C2108A85E
:102A9000FDF76AFC1C2101A8FDF766FC18480890A8
:102AA000184809900520019002200290039001200F
:102AB0000490022005900690002007900A900021C3
:102AC0000B910C9120210D9100210E910F911091ED
:102AD0004FF480511191002112911391149115918D
:102AE0001691179101AA01A908A8FFF7E5FE20B1E8
:102AF0004FF4927104A0FDF73CFD1BB000BD000037
:102B000000400052044100522E2E5C2E2E5C557364
:102B100065725C6273705C7372635C6273705F6633
:102B20006D635F696F2E630000B587B000BF3E48DC
:102B3000006840F008003C4908600846006800F062
:102B40000800019000BF00BF00BF0846006840F0C9
:102B5000100008600846006800F01000019000BFF7
:102B600000BF00BF0846006840F04000086008460B
:102B7000006800F04000019000BF00BF00BF0846A1
:102B8000006840F0800008600846006800F080009F
:102B9000019000BF00BF00BF0846006840F480708D
:102BA00008600846006800F48070019000BF00BF14
:102BB00000BF1D480C38006840F480501A490C3999
:102BC00008600846006800F48050019000BF00BF14
:102BD0000220039001200490032005900C20069011
:102BE0004CF2B370029002A91048FDF779FD4FF640
:102BF0008070029002A90E48FDF772FD032002903A
:102C000002A90C48FDF76CFD4FF47F40029002A929
:102C10000948FDF765FD40F2CF60029002A9074820
:102C2000FDF75EFD07B000BDE0440258000C0258FD
:102C30000010025800180258001C025800200258C8
:102C4000014604480068084008B101207047002090
:102C5000FCE700002000002429B9084A12688243DA
:102C6000064B1A6004E0054A12680243034B1A60DF
:102C7000024A1268024B1A607047000020000024CC
:102C80000010006010B53249096801F0004149B1F7
:102C90002F49096841F000412D4A11608169891C62
:102CA000816110BD2A49083909682A4A11622849F8
:102CB000091F097882F824102549C91E09789162F4
:102CC00023490C310968D1622149891E098811867E
:102CD0001F49096851631E49091D096891631C4910
:102CE00010310968D1631CA200210BE0535C254C14
:102CF000A36200BF234BDB6903F04003002BF9D034
:102D00004B1CD9B22929F1D300211F4A116000BF01
:102D10001D4909680029FBD00E4A0168116041680D
:102D2000516081689160C168D16001691161416938
:102D3000516181699161C169D1610021124A1160BB
:102D400000BF114909680029FBD000BFA9E70000B6
:102D50002CED00E0741300240D0A456E746572209A
:102D6000486172644661756C745F48616E646C653D
:102D7000722C2053797374656D2048616C742E0D2C
:102D80000A000000001001403C00002400B5B5B06E
:102D90000120019000201F9001A8FEF713F900BF49
:102DA0006548006840F00100634908600846006813
:102DB00000F00100009000BF00BF00BF084600689F
:102DC00040F0010008600846006800F00100009033
:102DD00000BF00BF00BF58481030006840F010002E
:102DE0005549103108600846006800F01000009056
:102DF00000BF00BF4FF400703090022031900120DE
:102E00003290032033900720349030A94B48FDF7CF
:102E100067FC4FF4806030900720349030A9474819
:102E2000FDF75EFC002204212520FDF738FE252059
:102E3000FDF721FE0C2300224FF4E131404802F05F
:102E400013FE3F48006A40F040003D4908620846D2
:102E5000806940F0080088610846006840F0200062
:102E6000086000BF3448006840F002003249086042
:102E70000846006800F00200009000BF00BF00BFDD
:102E80000846006840F0020008600846006800F04C
:102E90000200009000BF00BF00BF27480830006854
:102EA00040F480202449083108600846006800F496
:102EB0008020009000BF00BF4FF48060309002205F
:102EC000319001203290032033900720349030A9B4
:102ED0001C48FDF705FC4FF400603090072034904B
:102EE00030A91848FDF7FCFB032204212720FDF739
:102EF000D6FD2720FDF7BFFD0C2300224FF4E13162
:102F0000114802F0B1FD10482030006840F0400048
:102F10000D49203108600C481830006840F0080066
:102F20000949183108600848006840F02000064947
:102F3000086035B000BD0000E044025800000258AF
:102F40000010014000040258004800402DE9F04103
:102F50000446082C17DA0026FF27002508E028463B
:102F600000F030F810B1701CC6B22F46681CC5B214
:102F7000082DF4DB012E04D1A74202D10120BDE8C7
:102F8000F0810020FBE7082C0BD1002000F01AF89C
:102F900028B1012000F016F808B10120EFE7002069
:102FA000EDE7092C0BD1012000F00CF828B102202C
:102FB00000F008F808B10120E1E70020DFE7002079
:102FC000DDE7000001460B4850F831000069094B6D
:102FD00003EBC1039B88184008B9002200E00122DE
:102FE000044800EBC1008079904201D10120704774
:102FF0000020FCE7A85C0008FEB50020524981F8DB
:1030000021000846807F082803D0032081F8210092
:10301000FEBD4D48801CFDF7ECF907464A48001DEF
:10302000FDF7E7F90546E81DC11700EB5171CE1019
:10303000B7F5807F35DD002D33DD7819B0F5837F5E
:103040002FDA002404E000200DF80400601C84B294
:10305000B442F8DB002421E0611C3944491EC8B2A7
:1030600002F036FCC0B1E21704EB5272D2101DF828
:1030700002202146E31704EB5373DB10A4EBC30CCF
:10308000012303FA0CF31A43D2B22046E31704EBF0
:103090005373DB100DF80320601C84B2AC42DBDB01
:1030A00003E00220284981F82100274890F82100F8
:1030B000002841D1244981F8A2000846017890F8FF
:1030C000A22090F8A200401C1F4B83F8A20003F13D
:1030D000220081542238417890F8A22090F8A20072
:1030E000401C83F8A20003F122008154223890F89A
:1030F000A22090F8A200401C83F8A20003F1220055
:10310000865400240FE01DF804100F4890F8A22008
:1031100090F8A200401C0C4B83F8A20003F122009F
:103120008154601C84B2B442EDDB074890F8A210D1
:10313000223000F0A9FB04E0034991F8210000F0DF
:103140007BFB00BF64E70000C0120024FEB5002036
:10315000514981F821000846807F082803D00320C8
:1031600081F82100FEBD4C48801CFDF742F906465F
:103170004948001DFDF73DF90546E81DC11700EB64
:103180005171CF10B6F5007F34DD002D32DD70199E
:10319000B0F5017F2EDC002404E000200DF80400CF
:1031A000601C84B2BC42F8DB002420E0711E214484
:1031B000C8B202F091F9C0B1E21704EB5272D2101A
:1031C0001DF802202146E31704EB5373DB10A4EB38
:1031D000C30C012303FA0CF31A43D2B22046E317BF
:1031E00004EB5373DB100DF80320601C84B2AC4277
:1031F000DCDB03E00220284981F82100264890F812
:103200002100002841D1244981F8A2000846017814
:1032100090F8A22090F8A200401C1F4B83F8A20057
:1032200003F1220081542238417890F8A22090F8CE
:10323000A200401C83F8A20003F12200815422382E
:1032400090F8A22090F8A200401C83F8A20003F19D
:103250002200875400240FE01DF804100E4890F857
:10326000A22090F8A200401C0B4B83F8A20003F1AF
:1032700022008154601C84B2BC42EDDB064890F809
:10328000A210223000F000FB04E0034991F8210075
:1032900000F0D2FA00BF65E7C012002470B590B00C
:1032A0000020494981F821000846807F082803D082
:1032B000032081F8210027E04348801CFDF799F89E
:1032C00006464148001DFDF794F80546202D04D917
:1032D00003203D4981F8210016E0002410E06846F3
:1032E000022202FB0401304600F058FA20B9022005
:1032F000354981F8210005E0701C86B2601C84B25B
:10330000AC42ECDB00BF00BF2F4890F82100002842
:1033100052D12D4981F8A2000846017890F8A220E8
:1033200090F8A200401C284B83F8A20003F1220071
:1033300081542238417890F8A22090F8A200401CD5
:1033400083F8A20003F1220081546806010E18469A
:1033500090F8A22090F8A200401C83F8A20003F18C
:103360002200815400241EE01DF81410164890F825
:10337000A22090F8A200401C134B83F8A20003F196
:10338000220081546000401C1DF80010184690F87F
:10339000A22090F8A200401C83F8A20003F12200B2
:1033A0008154601C84B2AC42DEDB074890F8A21066
:1033B000223000F069FA04E0034991F8210000F09E
:1033C0003BFA10B070BD0000C012002470B586B08A
:1033D000142101A8FCF7C8FF00204E4981F8210004
:1033E0000846807F082803D0032081F8210030E0C0
:1033F0004848801CFCF7FDFF06464648001DFCF7C8
:10340000F8FF0546B6F5806F1EDD002D1CDD701936
:1034100040F20241884217DC002412E0A6F201408B
:1034200028B93D48808801A921F8140004E0002053
:1034300001A921F8140000BF00BF701C86B2601CF7
:1034400084B2AC42EADB03E00220324981F8210079
:1034500000BF304890F82100002853D12D4981F851
:10346000A2000846017890F8A22090F8A200401C23
:10347000284B83F8A20003F12200815422384178BE
:1034800090F8A22090F8A200401C83F8A20003F15B
:10349000220081546806010E184690F8A22090F888
:1034A000A200401C83F8A20003F1220081540024F2
:1034B0001FE001A830F814000112164890F8A2206D
:1034C00090F8A200401C134B83F8A20003F12200E5
:1034D000815401A810F81410184690F8A22090F812
:1034E000A200401C83F8A20003F122008154601C5A
:1034F00084B2AC42DDDB074890F8A210223000F025
:10350000C3F904E0034991F8210000F095F906B0F1
:1035100070BD0000C01200246413002470B50020A8
:10352000244981F821000846807F082803D0032021
:1035300081F8210031E01F48801CFCF75AFF054646
:103540001C48001DFCF755FF04463CB1B4F57F4F05
:1035500004D00320174981F821001EE040F2011039
:10356000854202D11448C48016E0B5F5817F02D1AE
:103570001148048110E040F20310854202D10E4848
:10358000448109E0B5F5827F02D10B48848103E0D4
:103590000220084981F8210000BF064890F8210068
:1035A00010B900F05FF904E0024991F8210000F041
:1035B00043F970BDC01200246413002470B50020CC
:1035C000164981F821000846807F082803D003208F
:1035D00081F8210014E01148801CFCF70AFF054621
:1035E0000E48001DFCF705FF04462146284600F062
:1035F0006BF9012803D00220084981F8210000BF9F
:10360000064890F8210010B900F02CF904E00349B5
:1036100091F8210000F010F970BD0000C0120024E4
:103620002DE9F0410020204981F821000846807FE3
:103630000B2803DA032081F8210026E01A48801CB9
:10364000FCF7D7FE06461848001DFCF7D2FE0546DB
:1036500015488779002414E06100C91D124A8818B2
:10366000FCF7C7FE8046311988B2414600F02CF9BC
:10367000012804D002200C4981F8210003E0601CDD
:10368000C4B2AC42E8DB00BF00BF074890F821009D
:1036900010B900F0E7F804E0034991F8210000F0C8
:1036A000CBF8BDE8F0810000C012002410B5274817
:1036B0004078042823D006DC01280BD0022810D043
:1036C000032838D114E0052820D0062825D010285A
:1036D00031D129E0FFF790FC0021012002F090F9A0
:1036E00032E0FFF733FD0021022002F089F92BE0E0
:1036F000FFF7D4FD0021032002F082F924E0FFF758
:1037000065FE0021042002F07BF91DE0FFF706FFB3
:103710000021052002F074F916E0FFF74FFF0021A9
:10372000062002F06DF90FE0FFF77AFF0021072075
:1037300002F066F908E00120044981F8210091F8BF
:10374000210000F079F800BF00BF10BDC0120024B6
:1037500070B51048007800B970BD00200D490870A0
:103760000D48807F042800DA0EE00B48817FFCF7CB
:10377000A5FE044604B107E007480578012D00D0F6
:1037800002E0FFF793FF00BF00200349887700BFE6
:10379000E2E7000024000024C012002403460A4689
:1037A000A3F2013010B1012806D102E006480188D9
:1037B00004E00548418801E00020704700BF08127E
:1037C000107051700120F8E76413002470B50546AD
:1037D000002408E0114850F83400B0F5E13F00D172
:1037E00003E0601CC4B2082CF4D300BF00200C49D5
:1037F00008700A4800EBC4000A4A4168012002F040
:10380000C5F90948807F1E2807DA0748817F807F35
:10381000401C054A90771046455470BD185F00085B
:10382000240000242D380008C01200240120014982
:10383000087070472400002438B504460848007812
:103840008DF800000648407840F080008DF80100B7
:103850008DF802400321684600F016F838BD0000DC
:10386000C01200241CB5002405E00648005D0DF8D8
:103870000400601CC4B2062CF7DB0621684600F089
:1038800003F81CBDC012002470B5A0B005460C465C
:10389000224629466846FCF74EFD21462846FCF79D
:1038A0000DFE064632122046611CCCB20DF80020F7
:1038B000F2B22046611CCCB20DF8002021466846C9
:1038C00000F02AFB20B070BD0246A2F2013010B118
:1038D000012806D102E00548018004E00348418048
:1038E00001E00020704700BF0120FBE764130024C3
:1038F0001FB5FDF79BF801208DF800004FF0105028
:10390000019012208DF8080003208DF80B00002094
:103910008DF80F008DF80E008DF80D008DF8010068
:1039200001208DF80A0000208DF809008DF80C00A8
:103930006846FDF74DF801208DF800004FF0C040BB
:1039400001900F208DF8080003208DF80B00012056
:103950008DF80F0000208DF80E008DF80D0001206D
:103960008DF8010000208DF80A008DF809008DF80F
:103970000C006846FDF72CF80420FDF767F81FBD22
:1039800000BFFEE7704770472DE9F04121A001F02C
:10399000ABFA30480468001D0568001D06682E4813
:1039A00000682E49B0FBF1F739462DA001F09CFAD2
:1039B00023462A46314635A001F096FA15A001F0BB
:1039C00093FA38A13EA001F08FFA42A142A001F083
:1039D0008BFA46A148A001F087FA4CA001F084FAC6
:1039E00056A001F081FA57A001F07EFA5BA001F029
:1039F0007BFA5FA001F078FA64A001F075FA6BA081
:103A000001F072FA71A001F06FFA02A001F06CFAF5
:103A1000BDE8F0812A2A2A2A2A2A2A2A2A2A2A2A98
:103A20002A2A2A2A2A2A2A2A2A2A2A2A2A2A2A2AF6
:103A30002A2A2A2A2A2A2A2A2A2A2A2A2A2A2A2AE6
:103A40002A2A2A2A2A2A2A2A2A2A2A2A2A2A2A2AD6
:103A50002A0D0A0000E8F11F3400002440420F0044
:103A6000435055203A2053544D333248373433585D
:103A70004948362C204247413234302C20D6F7C6F4
:103A8000B53A2025644D487A0D0A00005549442076
:103A90003D202530385820253038582025303858DA
:103AA0000D0A000056372D5253343835204D4F44FF
:103AB00042555320525455B4D3D5BEC0FDB3CC00AB
:103AC0002A20C0FDB3CCC3FBB3C62020203A20255A
:103AD000730D0A00312E30002A20C0FDB3CCB0E6B1
:103AE000B1BE2020203A2025730D0A003230323238
:103AF0002D31302D303200002A20B7A2B2BCC8D5FB
:103B0000C6DA2020203A2025730D0A002A204841D9
:103B10004CBFE2B0E6B1BE20203A2056312E392EFD
:103B200030202853544D3332483778782048414C60
:103B300020447269766572290D0A00002A200D0A58
:103B4000000000002A205151202020203A2031324C
:103B50003935373434363330200D0A002A20CDFA77
:103B6000CDFA20203A2061726D666C790D0A000052
:103B70002A20456D61696C203A2061726D666C790E
:103B80004071712E636F6D200D0A00002A20CEA2B5
:103B9000D0C5B9ABD6DABAC53A20616E66756C612C
:103BA000695F636F6D200D0A000000002A20CCD4ED
:103BB000B1A6B5EA3A20616E66756C61692E7461D2
:103BC0006F62616F2E636F6D0D0A00002A20436FD4
:103BD00070797269676874207777772E61726D6685
:103BE0006C792E636F6D20B0B2B8BBC0B3B5E7D7A8
:103BF000D30D0A002DE9F04104460E460027554832
:103C0000006800F00300032802D10120BDE8F08124
:103C100050482838006820F080604E4928390860F4
:103C2000FCF768FE054606E0FCF764FE401B022830
:103C300001D90320EAE7474828380068C0F3C0608C
:103C40000028F1D100BF4348006820F47C3021688F
:103C500040EA01303F490860A088401EC0F30800D8
:103C6000A168491E4FF47E4202EA41210843A1891E
:103C7000491ED20102EA01410843217C491E120279
:103C800002EA0161084333491031086000BF31483E
:103C9000001D006820F0C000616908432D49091D1E
:103CA00008600846006820F02000A16908432949FF
:103CB000091D08600846006820F0100008602548CB
:103CC000143000684FF6F8718843E16940EAC1009A
:103CD0002049143108601F48001D006840F01000A2
:103CE0001C49091D08602EB90846006840F40020F0
:103CF000086012E0012E08D11648001D006840F44B
:103D000080101449091D086007E01248001D006872
:103D100040F400100F49091D08600E48283800685B
:103D200040F080600B4928390860FCF7E3FD054648
:103D300006E0FCF7DFFD401B022801D9032065E700
:103D4000044828380068C0F3C0600028F1D0384625
:103D50005CE70000284402582DE9F04104460E4675
:103D600000275548006800F00300032802D1012015
:103D7000BDE8F08150482838006820F080504E4956
:103D800028390860FCF7B6FD054606E0FCF7B2FDF1
:103D9000401B022801D90320EAE747482838006879
:103DA000C0F340700028F1D100BF4348006820F004
:103DB0007C70218840EA01503F490860A088401E7D
:103DC000C0F30800A168491E4FF47E4202EA412177
:103DD0000843A189491ED20102EA01410843217C1E
:103DE000491E120202EA0161084333491831086092
:103DF00000BF3148001D006820F44060616908433D
:103E00002D49091D08600846006820F40070A1696A
:103E100008432949091D08600846006820F480709D
:103E2000086025481C3000684FF6F8718843E16946
:103E300040EAC10020491C3108601F48001D00688D
:103E400040F480701C49091D08602EB908460068BE
:103E500040F48000086012E0012E08D11648001DD1
:103E6000006840F400001449091D086007E012488A
:103E7000001D006840F080700F49091D08600E4861
:103E80002838006840F080500B4928390860FCF75A
:103E900031FD054606E0FCF72DFD401B022801D947
:103EA000032065E7044828380068C0F34070002804
:103EB000F1D038465CE700002844025800B587B0CE
:103EC00000BF0D48006840F002000B49086008463A
:103ED000006800F00200019000BF00BF01200390C5
:103EE00000200490032005900420029002A90348BA
:103EF000FCF7F6FB07B000BDE0440258000402588E
:103F000010B504462046FFF761FC10BD04200149AE
:103F1000086070471804025870B504460D462A46DA
:103F20002146022001F078FE70BD00004FF4802091
:103F300001490860704700001804025870470000EB
:103F400010B51848C088B0F57F4F03D1012001F0AB
:103F500005FD02E0012001F0E3FC12480089B0F504
:103F60007F4F03D1022001F0F9FC02E0022001F0B2
:103F7000D7FC0C484089B0F57F4F03D1032001F0F6
:103F8000EDFC02E0032001F0CBFC06488089B0F58F
:103F90007F4F03D1042001F0E1FC02E0042001F096
:103FA000BFFC10BD6413002410B5FCF7A9FC044845
:103FB000007800B910BD00F005F800BFFAE7000076
:103FC0001C00002410B51B48006840B11948006867
:103FD000401E1849086010B90120174908700024D4
:103FE00008E004EB4401154A02EB810001F072FD88
:103FF000601CC4B2042CF4DB11480068401C10495A
:104000000860084600686FF00041884202D1002035
:104010000B49086001F014FD0A480078401CC0B24A
:10402000084908700A2803DB0020087001F004FD2D
:1040300010BD0000100000241400002438020024E9
:10404000180000241D00002410B59CB0202114A8E5
:10405000FCF78AF94C2101A8FCF786F900245548A1
:10406000006820F004005349086000BF0020009061
:104070005148006820F001004F4908600846006878
:1040800000F0010000904B480C30006840F44040C4
:1040900048490C3108600846006800F44040009030
:1040A00000BF00BF00BF43480C30006800F4005060
:1040B000B0F5005FF7D101200190000402900020CC
:1040C0000490089002200A9002210B9105210C9186
:1040D000A0210D9102210E91109104210F91002138
:1040E00012910821119101A8FDF7FCFF04461CB1B3
:1040F0008D2132A0FCF73DFA3F201490032015904B
:104100000020169008201790402018901990000168
:104110001A9040201B90042114A8FDF7F3FC0446DC
:104120001CB1A82125A0FCF724FA2A48006840F019
:1041300080002849086000BF2648F430006840F03D
:1041400002002449F43108600846006800F00200CB
:10415000009000BF00BFFCF7B9FA00BF1D48DC307B
:10416000006840F000501B49DC31086008460068D8
:1041700000F00050009000BF00BF00BF084600687C
:1041800040F0804008600846006800F080400090E1
:1041900000BF00BF00BF0846006840F00040086054
:1041A0000846006800F00040009000BF00BF1CB04F
:1041B00010BD00000C4802582C0400582E2E5C2E16
:1041C0002E5C557365725C6273705C6273702E63F3
:1041D00000000000004402583648006840F47000B7
:1041E000344908603448006800F00F00072806D200
:1041F0003148006820F00F00C01D2F4908602F488B
:10420000006840F001002D49086000202B49103162
:1042100008602A4800682A4908402849086026485A
:10422000006800F00F00072806D92348006820F036
:104230000F00C01D20490860002020491831086087
:10424000091D0860091D08601E481C4928310860C6
:104250001D48091D08601D48091D08600020091D32
:1042600008601A48091D08600020091D08601748E9
:10427000091D08600020091D08601048006820F42E
:1042800080200E49086000200C4960310860104809
:1042900000686FF30F00B0F1005F02D201200D49FA
:1042A000086043F2D2000C49086048030149803994
:1042B0000860704788ED00E000200052004402587A
:1042C0007FEDF6EA000202020000FF018002010118
:1042D0000010005C088100510040005270B50025BC
:1042E00000264FF08044206900F00205E06800F0ED
:1042F00002065DB156B14FF6FD702061E0684FF6E1
:10430000FD710840E0601E4800688047206900F0A9
:104310000405E06800F004065DB156B14FF6FB708D
:104320002061E0684FF6FB710840E06015480068C6
:104330008047206900F00805E06800F008065DB1DC
:1043400056B14FF6F7702061E0684FF6F7710840FC
:10435000E0600D4800688047206900F01005E068C3
:1043600000F010065DB156B14FF6EF702061E068C5
:104370004FF6EF710840E06004480068804770BD68
:104380000000002404000024080000240C00002485
:1043900010B50268294B98420ED0B0F1804F0BD077
:1043A000274B984208D0274B984205D0264B98427D
:1043B00002D0264B984203D122F070024B681A4378
:1043C0001E4B984217D0B0F1804F14D01C4B98422E
:1043D00011D01C4B98420ED01B4B98420BD01B4B5C
:1043E000984208D01A4B984205D01A4B984202D0F6
:1043F000194B984203D122F44072CB681A4322F041
:1044000080034C6943EA040202608B68C3620B6854
:1044100083620A4B98420BD00C4B984208D00C4B4D
:10442000984205D00B4B984202D00B4B984201D1D9
:104430000B6903630123436110BD000000000140CC
:104440000004004000080040000C0040000401404F
:1044500000400140004401400048014090F828100D
:1044600001F0010139B10168496821F40031C26AE3
:1044700011430268516090F8281001F002010229EE
:1044800007D10168496821F48031026B1143026849
:10449000516090F8281001F00401042907D1016847
:1044A000496821F48021426B11430268516090F801
:1044B000281001F00801082907D10168496821F492
:1044C0000041826B11430268516090F8281001F09E
:1044D0001001102907D10168896821F48051C26B4D
:1044E00011430268916090F8281001F02001202902
:1044F00007D10168896821F40051026C11430268F8
:10450000916090F8281001F04001402913D1016812
:10451000496821F48011426C114302685160416C7A
:10452000B1F5801F07D10168496821F4C001826C90
:1045300011430268516090F8281001F08001802931
:1045400007D10168496821F40021C26C1143026857
:104550005160704738B504460020C4F88800FCF765
:10456000C9F905462068006800F0080008280CD149
:104570006FF07E402B4600224FF400110090204641
:1045800000F0F0FA08B1032038BD2068006800F0A0
:10459000040004280CD16FF07E402B4600224FF41B
:1045A00080010090204600F0DDFA08B10320EBE71F
:1045B0002020C4F88000C4F8840000BF002084F8E4
:1045C0007C0000BF00BFDFE72DE9F04F8BB0054650
:1045D00000200890F9492868884200D100E000BF17
:1045E0002969A868084369690843E96940EA01083C
:1045F000686E40EA080828680068F149084040EA07
:104600000800296808602868406820F44050E9687C
:10461000084329684860D5F81880E8492868884226
:1046200002D0286A40EA080828688068E5490840FE
:1046300040EA0800296888602868C06A20F00F00F6
:10464000696A08432968C86200BFDF492868884250
:1046500020D1DE48006800F03800182811D005DCB1
:1046600048B1082809D0102811D108E020280AD024
:1046700028280CD109E001240BE0042409E00824D7
:1046800007E0102405E0202403E0402401E080241A
:1046900000BFF8E0CE492868884219D1CB480068AD
:1046A00000F00700062810D2DFE800F00305070934
:1046B0000B0D00240BE0042409E0082407E010247B
:1046C00005E0202403E0402401E0802400BFDAE07C
:1046D000C0492868884219D1BC48006800F007002A
:1046E000062810D2DFE800F0030507090B0D0024AF
:1046F0000BE0042409E0082407E0102405E020244E
:1047000003E0402401E0802400BFBCE0B2492868F7
:10471000884219D1AD48006800F00700062810D281
:10472000DFE800F0030507090B0D00240BE004246B
:1047300009E0082407E0102405E0202403E04024D9
:1047400001E0802400BF9EE0A4492868884219D176
:104750009E48006800F00700062810D2DFE800F04D
:10476000030507090B0D00240BE0042409E00824CD
:1047700007E0102405E0202403E0402401E0802429
:1047800000BF80E096492868884220D18F480068A1
:1047900000F03800182811D005DC48B1082809D0ED
:1047A000102811D108E020280AD028280CD109E0CF
:1047B00001240BE0042409E0082407E0102405E0AC
:1047C000202403E0402401E0802400BF5BE0854911
:1047D0002868884219D17D48006800F00700062843
:1047E00010D2DFE800F0030507090B0D00240BE0F1
:1047F000042409E0082407E0102405E0202403E055
:10480000402401E0802400BF3DE0774928688842C9
:1048100019D16E48006800F00700062810D2DFE8C2
:1048200000F0030507090B0D00240BE0042409E048
:10483000082407E0102405E0202403E0402401E0E0
:10484000802400BF1FE05D49286888421AD15F4874
:10485000001D006800F00700062810D2DFE800F015
:10486000030507090B0D02240BE0042409E00824CA
:1048700007E0102405E0202403E0402401E0802428
:1048800000BF00E0802400BF4C49286888427DD1E9
:10489000102C1AD006DC022C09D0042C0BD0082CCA
:1048A00029D10DE0202C21D0402C24D120E0FCF790
:1048B00047F9064623E005A8FCF754F9069E1EE0DA
:1048C00002A8FCF767FA039E19E0404854380068D4
:1048D000C0F3401040B13D4854380068C0F3C101F6
:1048E000424820FA01F600E0404E08E0404E06E063
:1048F0004FF4004603E000260120089000BF00BFEF
:10490000002E10D03B49686A31F81000B6FBF0F970
:10491000686800EB4000484503D8686800034845D4
:1049200002D20120089009E13249686A31F810C0CA
:104930006246002330461946FBF7CCFC4FF48073E7
:104940000022A0FB03AC01FB03C100FB021B0222FF
:104950000023D5F804C060461946FBF7BBFC1AEBF0
:1049600000004BF1000BCDE9000BD5F804C0624606
:1049700000235946FBF7AEFC0746B7F5407F06D348
:10498000B7F5801F03D22868C760D7E002E0012096
:104990000890D3E0E869B0F5004F7DD1082C39D0FC
:1049A00005DC4CB3012C2CD0042C4CD12DE0102C68
:1049B00035D0202C42D0402C45D141E0000C00588D
:1049C000F369FFCFFFF4FF11001001405444025877
:1049D0000044004000480040004C004000500040AF
:1049E0000014014000780040007C00400090D0039B
:1049F00000093D00585F0008FFE7FDF739FA064659
:104A000025E0FDF747FA064621E005A8FCF7AAF8DD
:104A1000069E1CE002A8FCF7BDF9039E17E04D4876
:104A20000068C0F3401038B14A480068C0F3C101C3
:104A3000494820FA01F600E0474E08E0474E06E0FC
:104A40004FF4004603E000260120089000BF00BF9D
:104A50000EB34349686A31F81000B6FBF0F040002D
:104A6000696800EB5100B0FBF1F087B2102F10D352
:104A7000B7F5803F0DD24FF6F07038400990C7F37C
:104A8000420109980843099009982968C86055E0CF
:104A900002E00120089051E0082C1AD005DC5CB13E
:104AA000012C0DD0042C2DD10EE0102C16D0202C72
:104AB00023D0402C26D122E0FDF7DAF9064625E086
:104AC000FDF7E8F9064621E005A8FCF74BF8069E3D
:104AD0001CE002A8FCF75EF9039E17E01D48006881
:104AE000C0F3401038B11B480068C0F3C1011A4838
:104AF00020FA01F600E0184E08E0184E06E04FF4E8
:104B0000004603E000260120089000BF00BFAEB1C0
:104B10001349686A31F81000B6FBF0F0696800EBE1
:104B20005100B0FBF1F087B2102F05D3B7F5803FED
:104B300002D22868C76001E0012008900120A5F892
:104B40006A00A5F868000020E866286708980BB09E
:104B5000BDE8F08F004402580090D00300093D00EA
:104B6000585F00082DE9F04104460D461746984667
:104B7000069E4AE0701C002847D0FBF7BBFEA0EB66
:104B80000800B04200D8C6B92068006820F4D07090
:104B9000216808602068806820F001002168886032
:104BA0002020C4F88000C4F8840000BF002084F8EE
:104BB0007C0000BF0320BDE8F0812068006800F0A1
:104BC000040010B32068C069C0F3C020E8B14FF4FE
:104BD0000060216808622068006820F4D0702168B5
:104BE00008602068806820F001002168886020202B
:104BF000C4F88000C4F88400C4F8880000BF002016
:104C000084F87C0000BF0320D5E72068C0692840F5
:104C1000A84201D1012000E00020B842AAD0002023
:104C2000C9E7000010B5024800F00CF810BD000004
:104C30006802002410B5024800F004F810BD00001E
:104C4000940A00242DE9F04104462068C5692068D3
:104C500006682068D0F8088005F02000D8B12068E8
:104C6000406AC7B2E18AA0684754E08A401C80B21B
:104C7000E082E189884201DB0020E082608BE189EB
:104C8000884202DA608B401C6083606A10B138464B
:104C9000616A884700BF05F0800028B306F08000F5
:104CA00010B3A08A60B92068006820F080002168F5
:104CB00008602068006840F040002168086013E048
:104CC000012084F82800618A6068405C216888625D
:104CD000608A401C80B26082A189884201DB00208A
:104CE0006082A08A401EA08205F0400018B306F042
:104CF000400000B3A08A68B92068006820F0400036
:104D000021680860206A08B1206A8047002084F882
:104D1000280010E0618A6068405C21688862608ACF
:104D2000401C80B26082A189884201DB0020608241
:104D3000A08A401EA0822068006A40F0010021681D
:104D400008622068006A40F002002168086220685A
:104D5000006A40F00400216808622068006A40F0A0
:104D60000800216808622068006A40F0100021688D
:104D700008622068006A40F04000216808622068EC
:104D8000006A40F48070216808622068006A40F47C
:104D90000070216808622068006A40F400302168D1
:104DA00008622068006A40F4801021680862206868
:104DB000006A40F0200021680862BDE8F081F8B583
:104DC00004460F461646002539E01EE0012000F09B
:104DD000C9F8A08A0090002000F0C4F8A089BDF8AE
:104DE0000010884200DD11E0A089BDF80010884263
:104DF0000AD12068006800F0800028B920680068A7
:104E000040F080002168086000BFDFE700BF785DE8
:104E1000228A61688854012000F0A4F8208A401C8E
:104E200080B22082A189884201DB00202082A08AF2
:104E3000401CA082002000F095F8681C85B2B542A5
:104E4000C3DB2068006840F0800021680860F8BD7E
:104E500019481A4908601A4848601A4888604FF48F
:104E600080608881C881002008824882C8820883C7
:104E700048838882C8610862486281F82800124825
:104E80001249086012484860124888604FF48060F8
:104E90008881C881002008824882C88208834883AC
:104EA00088820D48C8610D4808620D48486200209C
:104EB00081F82800704700000010014068020024BB
:104EC000940200249406002400480040940A002420
:104ED000C00A0024C00E00240D3F00082D3F00082A
:104EE000013F000800BFFEE70FB4054B10B503A952
:104EF000044A029800F03AF810BC5DF814FB000078
:104F0000495C00084000002402480068C0F3022009
:104F1000704700000CED00E010B5002804DB0A0724
:104F2000130E054A135406E00A07140E034A00F054
:104F30000F031B1FD45410BD00E400E018ED00E087
:104F400002E008C8121F08C1002AFAD17047704752
:104F5000002001E001C1121F002AFBD1704780F33D
:104F60001088704780F31088704700002DE9FF4FCC
:104F70008DB00F460546002606E025280BD0DDE95A
:104F80000F1290476D1C761C28780028F5D111B0BF
:104F90003046BDE8F08F0024A246A1460122E9492F
:104FA00000E0044315F8013F203B02FA03F00842F9
:104FB000F7D128782A2810D06FF02F022878A0F196
:104FC0003001092914D80AEB8A0102EB410144F0AF
:104FD000020400EB010A6D1CF0E701CF5FEA000A52
:104FE00003D544F40054CAF1000A44F002046D1CD5
:104FF00028782E2817D115F8010F44F004042A2828
:105000000ED06FF02F022878A0F1300109290AD8BC
:1050100009EB890102EB410100EB01096D1CF2E78C
:1050200057F8049B6D1C28786C280FD006DC4C28A0
:1050300017D068280DD06A2814D104E0742810D045
:105040007A280FD10DE044F400140AE044F48014EF
:1050500001E044F440146978814202D104F58014DF
:105060006D1C6D1C28786E281ED00CDC632830D097
:1050700004DC00288BD0582811D19FE0642867D029
:1050800069280CD164E073282DD004DC6F2872D01D
:10509000702804D194E075286ED078286DD0DDE9B1
:1050A0000F129047761C4BE1C4F30250022806D041
:1050B000032809D0042801CF09D0066040E101CFC0
:1050C000F117C0E900613BE101CF068038E10670CD
:1050D00036E117F8040B8DF8000000208DF8010070
:1050E000EB46012003E057F804BB4FF0FF306107A7
:1050F0004FF0000102D40DE008F101018846494556
:105100000FDA8045F8DB1BF808100029F4D108E01D
:1051100008F1010188468142FADB1BF808100029DA
:10512000F6D1DDE90F23AAEB08008146214600F005
:1051300031F9304400EB080604E0DDE90F121BF8FA
:10514000010B9047B8F10108F7D221464846F2E03A
:105150000A21C4F302524FF0000B0891022A04D036
:1051600001CFC117032A09D00AE0FF1D27F0070766
:10517000F7E8020108E02CE01EE01FE000B2C117D2
:10518000042A01D140B2C117021E71F1000206DAF1
:105190000023D0EB030063EB01012D2202E0220586
:1051A00004D52B228DF82420012203E0E20701D050
:1051B0002022F7E7904653E00A210BE0102109E096
:1051C00010214FF0000B44F004044FF0080908913F
:1051D00003E008214FF0000B0891C4F30252022AA9
:1051E00004D001CF0021032A06D006E0FF1D27F0DE
:1051F0000707F7E8020103E080B2042A00D1C0B239
:105200004FF0000822072BD52A78702A07D0DDF846
:1052100020C08CF0100C5CEA0B0C05D00EE0402294
:105220008DF82420012208E050EA010306D0302343
:105230008DF824308DF8252002229046089B83F0BB
:10524000080353EA0B030BD150EA010201D16207B4
:1052500006D530228DF824204FF00108A9F101096C
:105260002A78582A04D038A20B9208AA0A920BE096
:105270003AA2F9E75B46089AFBF72CF80B9B9B5C7C
:105280000A9A521E0A92137050EA0102F2D10A9849
:10529000ADEB000000F1200B600702D524F4803450
:1052A00001E04FF00109D94502DDA9EB0B0000E058
:1052B000002000EB0B0141440890AAEB010AE00337
:1052C00006D4DDE90F232146504600F063F806447A
:1052D0004FF0000908E009A911F80900DDE90F12F3
:1052E000904709F10109761CC145F4DBE0030CD5B8
:1052F000DDE90F232146504600F04CF8064404E057
:10530000DDE90F1230209047761C0899481E08905E
:105310000029F5DC08E00A980A990078491C0A91EE
:10532000DDE90F129047761CBBF10001ABF1010BD8
:10533000F1DC21465046DDE90F2300F019F8064460
:105340006D1C21E6092801003031323334353637FF
:1053500038396162636465660000000030313233C1
:105360003435363738394142434445460000000061
:105370002DE9F041044600251E461746880404D452
:1053800005E039462020B0476D1C641EF9D528463B
:10539000BDE8F0812DE9F041044600251E46904607
:1053A000C80301D5302700E02027880404D505E094
:1053B00041463846B0476D1C641EF9D52846BDE805
:1053C000F08100000146042901DB0020704701EB59
:1053D0004100084A02EB80004078012808D10020F3
:1053E00001EB4102034B03EB820250700120EDE719
:1053F0000020EBE738020024034890F841010249FD
:1054000081F84001704700004400002470B5054653
:10541000304800EB05142846FDF798FD00283ED0E3
:105420002079052802DA0520207152E020790A2827
:1054300003DA2079401C20714BE0A07A38B90120B2
:10544000A07205EB4501491CC8B200F0C9FA2089D9
:1054500000283EDDE088218988420DDAE088401C82
:1054600080B2E0802189884233D105EB4501C91C17
:10547000C8B200F0B5FA2CE0E07A002829DD207BE4
:10548000401CC0B22073E17A884222DB00202073E6
:1054900005EB4501491CC8B200F0A2FA19E02079D9
:1054A000052802DD0520207110E0207918B120794F
:1054B000401E20710AE0A07A012807D10020A072C6
:1054C00005EB4501891CC8B200F08AFA0020E08093
:1054D000207370BD880100240146024800EB0110D2
:1054E000807A7047880100240146114890F84001F5
:1054F0000F4B93F84131984201D1002070470C487E
:1055000090F840010A4B03EBC002184690F84001A6
:10551000401CC0B283F84001282802DB002083F839
:10552000400110880880506848600120E6E70000CC
:105530004400002410B5FEF70BF910BD10B5FEF7BE
:10554000D7F9FAF75FFFFBF7E7F9FEF77DFD00F00B
:105550000BF800F0ADF800F05FF900F0B1F900F0E1
:1055600017F800F047F910BD0748006840F0807058
:10557000054908600020054948600846006840F079
:105580000100086070470000FCED00E0001000E042
:1055900010B5FDF7C9FAFDF777FA40F61470034924
:1055A0000860084600680249086010BD2000002419
:1055B00000100060F0B595B04C2102A8FAF7D4FEB7
:1055C0004FF0804400BF2948006840F0010027499F
:1055D00008600846006800F00100019000BF00BFAD
:1055E000234884420BD02348844208D02248844276
:1055F00005D02248844202D02148844203D1214868
:105600000068460802E01F48006846081E48B6FBCE
:10561000F0F0401E87B2B4F1804F02D01B488442A4
:1056200002D14FF0FF3501E04FF6FF75029403976A
:10563000059500210691049107918021089102A807
:10564000FDF78DF920B14FF40C7111A0FAF791FF1D
:10565000022200211C20FBF722FA1C20FBF70BFA88
:1056600002A8FDF7B5F915B0F0BD0000E8440258F6
:10567000000001400004014000400140004401409E
:10568000004801403400002440420F00000C00405C
:105690002E2E5C2E2E5C557365725C6273705C738B
:1056A00072635C6273705F74696D65722E63000073
:1056B00010B500F063F800F001F810BD10B586B029
:1056C00000BF2C48006840F002002A4908600846E4
:1056D000006800F00200009000BF00BF00BF084655
:1056E000006840F0040008600846006800F004000C
:1056F000009000BF00BF00BF0846006840F04000B7
:1057000008600846006800F04000009000BF00BF3D
:1057100000BF0846006840F0800008600846006846
:1057200000F08000009000BF00BF00BF0846006886
:1057300040F4807008600846006800F480700090B3
:1057400000BF00BF002002900390032004900024BB
:105750000CE0094800EBC40080880190064951F82C
:10576000340001A9FAF7BCFF601CC4B2082CF0DBBE
:1057700006B010BDE0440258A85C000810B5002037
:105780001A498872C8720873002418E06420184906
:1057900001EB041108810220154901EB0411087185
:1057A0000020134901EB04118872114901EB041127
:1057B000C8720F4901EB04110873601CC4B20A2CB3
:1057C000E4DB06226421032000F03CF90622642178
:1057D000042000F037F906226421052000F032F998
:1057E00006226421104600F02DF910BD2802002485
:1057F0008801002410B5012000F092F8022000F08A
:105800008FF8032000F08CF8042000F089F810BD18
:1058100000B5FFF7F1FD00BD70B5002416E00020D3
:1058200004EB4401214A02EB8101486004EB44018E
:1058300002EB8101886004EB440102EB81014870B6
:1058400004EB440102F82100601CC4B2042CE6DB26
:10585000174800684FF47A72B0FBF2F1481EB0F1BD
:10586000807F00D31BE0481E4FF0E02250615017AC
:105870000F22002804DB13071D0E0E4B1D5406E0FB
:1058800013071E0E0C4B00F00F052D1F5E5500BFB9
:1058900000204FF0E02290610720106100BF01203E
:1058A00006490870FFF786FE70BD0000380200242C
:1058B0003400002400E400E018ED00E01C000024A7
:1058C00010B5FFF7C5FAFDF761FAFEF7F7FA10BD5C
:1058D00070B50446012C01D105020EE0022C01D165
:1058E00025020AE0032C02D14FF4806505E0042C68
:1058F00001D1650201E0002070BD2846FDF7A0F946
:1059000008B10020F8E70120F6E710B5002404E014
:105910002046FFF77BFD601CC4B20A2CF8DB10BDEB
:1059200010B50446012C04D101210002FDF794F9C1
:1059300013E0022C04D101214802FDF78DF90CE09F
:10594000032C04D101218802FDF786F905E0042C1F
:1059500003D10121C802FDF77FF910BD10B504463F
:10596000012C04D100210002FDF776F914E0022C8D
:1059700004D100212002FDF76FF90DE0032C05D1C1
:1059800000214FF48060FDF767F905E0042C03D196
:1059900000216002FDF760F910BD70B50446012CCE
:1059A00001D105020DE0022C01D1250209E0032CF2
:1059B00002D14FF4806504E0042C01D1650200E0BF
:1059C00070BD2846FDF73CF920B100212846FDF7BF
:1059D00043F903E001212846FDF73EF900BFEFE758
:1059E0000649C97A054A50541146C97A491CC9B2B8
:1059F000D1720A2901DB0021D172704728020024EC
:105A00000C4A92F841210B4B23F832001A4692F8C7
:105A1000412103EBC20251601A4692F84121521C07
:105A2000D2B283F84121282A02DB002283F84121E7
:105A3000704700004400002410B5FFF766FF10BD5A
:105A40007047000010B5074B03EB00131981054B9D
:105A500003EB0013DA720023024C04EB00142373EF
:105A600010BD000088010024F0B5A3B004460D4627
:105A700017461E468C216846FAF776FC009401957D
:105A8000002102914FF400510391049700210691E7
:105A900005960791089100200A906846FCF7B6FF2A
:105AA00020B140F2263102A0FAF763FD23B0F0BD29
:105AB0002E2E5C2E2E5C557365725C6273705C7367
:105AC00072635C6273705F756172745F6669666F42
:105AD0002E630000416851B14168491E416031B9EF
